:100000000C9468000C94EC0A0C94C50A0C949000B3
:100010000C9490000C9490000C9490000C94900020
:100020000C9490000C9490000C9490000C94CC02D2
:100030000C9490000C9490000C9490000C94900000
:100040000C947B0A0C9490000C946E090C94480953
:100050000C9490000C9490000C9490000C949000E0
:100060000C9490000C9490000000000023002600E7
:10007000290072740092740048940078C400000053
:100080000000240027002A000000000025002800AE
:100090002B00040404040404040402020202020209
:1000A000030303030303010204081020408001023C
:1000B00004081020010204081020000000080002BB
:1000C0000100000304070000000000000000DA0B3C
:1000D00011241FBECFEFD8E0DEBFCDBF12E0A0E0FD
:1000E000B1E0ECEDFCE102C005900D92A435B10742
:1000F000D9F724E0A4E5B2E001C01D92A233B20713
:10010000E1F710E0C8E6D0E004C02197FE010E94AC
:10011000580EC736D107C9F70E94400C0C946C0EDC
:100120000C9400009FB7F89480915602882319F030
:1001300081508093560280915602811105C08CB582
:100140008F7B8CBD109258029FBF08958CB58F771E
:100150008CBD08958CB580688CBD08956EBD00007F
:100160000DB407FEFDCF8EB50895FC017383628345
:100170000895FC01778366830895FC017583648389
:1001800008950895089580E00895FC0181850895FB
:10019000FC0180850895FC0187810895FC0186811A
:1001A0000895FC01409595854923642B6587089542
:1001B000FC0164870895FC0163870895FC01628750
:1001C0000895FC0164830895FC016583089580E02F
:1001D0000895FC012281338123303105D1F381E080
:1001E0000895CF93DF93EC01E881F9810280F381D8
:1001F000E02DCE0109958823B9F3DF91CF910895C1
:1002000081E00895CF92DF92EF92FF920F931F93B8
:10021000CF93DF93EC017B018A01E881F9810280B1
:10022000F381E02D0995D82E882339F1E114F104EA
:10023000E1F001151105C9F0CFB6F8942D8D30E02D
:1002400023503109F801808190E0821793071CF058
:100250009D8D94509083F801408150E0BE016E5D09
:100260007F4FC7010E94630ECFBE8FB7F894FE0187
:10027000E35EFE4F10821D8E8FBF8D2DDF91CF91DB
:100280001F910F91FF90EF90DF90CF900895CF9343
:10029000DF93FC01228133812230310569F0EC01CA
:1002A000668D848D0E94C90960E08B8D0E94C9090A
:1002B00082E090E09B838A83DF91CF910895CF9372
:1002C000DF93EC01888D998DDC01ED91FC91068026
:1002D000F781E02D099561E08A8D0E94F90961E0BE
:1002E0008A8D0E94C90964E670E080E090E00E9477
:1002F000350A81E0DF91CF9108950F931F93CF933B
:10030000FC01828193818430910569F083309105ED
:1003100079F08230910589F00197A1F040E452E430
:100320006FE070E013C040E054E264EF70E00EC094
:1003300040E052E16AE770E009C040E059E06DE357
:1003400070E004C040E854E86EE170E0A481B5813B
:1003500086819781009741F08130910539F0823094
:10036000910531F0039731F090E005C094E003C0AF
:1003700098E001C09CE080E000E012E12AE730E074
:10038000401751076207730740F436952795179574
:1003900007958F5F8630A1F787E021E02827119726
:1003A00011F080E501C080E7322F3695932B982B12
:1003B000908721702187CFB7F894809156028111E0
:1003C00027C0ECE9F0E08491E0EBF0E09491E82FB5
:1003D000F0E0EE0FFF1FE258FF4FA591B491EC91B2
:1003E000E92321F461E08AE00E94C90961E08AE022
:1003F0000E94F9098CB580618CBD8CB580648CBD80
:1004000061E08DE00E94F90961E08BE00E94F9094A
:10041000809156028F5F80935602CFBFCF911F917C
:100420000F9108958F929F92AF92BF92CF92DF92D9
:10043000EF92FF92CF93DF93EC016B010E946F0A62
:100440004B015C01E12CF12C0E946F0ADC01CB0115
:1004500088199909AA09BB098C159D05AE05BF0528
:1004600030F48A819B81039779F381E001C080E0B9
:10047000DF91CF91FF90EF90DF90CF90BF90AF9042
:100480009F908F9008958F929F92AF92BF92CF923C
:10049000DF92EF92FF92CF93DF93EC016B010E940A
:1004A0006F0A4B015C01E12CF12C0E946F0ADC0108
:1004B000CB0188199909AA09BB098C159D05AE05C0
:1004C000BF0550F4E881F9810280F381E02DCE016F
:1004D0000995882351F301C080E0DF91CF91FF900F
:1004E000EF90DF90CF90BF90AF909F908F90089546
:1004F0008F929F92AF92BF92CF92DF92EF92FF9234
:10050000CF93DF93FC0126893789232B11F481E0F7
:1005100038C0EC010E946F0A6B017C0189E0882ED3
:10052000912CA12CB12CE881F9810488F589E02D6A
:10053000CE010995882359F30E946F0AAB01BC01D3
:100540004C195D096E097F098E899F89A0E0B0E092
:1005500084179507A607B70798F00E94810DA5019B
:1005600094010E94CD0D9B01AC012F5F3F4F4F4F77
:100570005F4FA4E6B0E00E94EC0D0E94350AD3CF95
:1005800080E0DF91CF91FF90EF90DF90CF90BF9010
:10059000AF909F908F9008951F920F920FB60F9279
:1005A0001124CF92DF92EF92FF920F931F932F931C
:1005B0003F934F935F936F937F938F939F93AF93EB
:1005C000BF93CF93DF93EF93FF93C0915902D091E4
:1005D0005A028A819B81049709F0CAC02A8D30E0B3
:1005E000F901E654FF4F8491F901EA55FF4F049158
:1005F000F901EE56FF4F1491112379F081110E94F9
:10060000A009E12FF0E0EE0FFF1FE859FF4FA59181
:10061000B491EC91E02381E009F480E081709D8D3C
:10062000892719F09AA19F5F9AA399A1891771F060
:100630009BA1903518F02DE130E002C02BE030E0B6
:100640009BA1290F311D2BA389A303C08BA18C5E15
:100650008BA38BA1803A08F4DDC08DA19EA1969555
:1006600087959EA38DA38AA1853028F08DA19EA198
:1006700098609EA38DA38BA1805A8BA31AA28CA1F4
:10068000882309F468C08FA18F5F8FA38C3008F492
:10069000C1C08DA19EA1982F9F73892F86958695A5
:1006A000887028E0280F821749F0E82FF0E0E45E18
:1006B000FE4F3081931719F08F5FF5CF80E020E176
:1006C000829FC00111242DA13EA196E03695279569
:1006D0009A95E1F7422F36952795369527952870FC
:1006E00038E0320F231749F0E22FF0E0E45EFE4FCE
:1006F0005081451719F02F5FF5CF20E0822BAE0116
:1007000044595F4FFA019081DE01A559BF4F9923EB
:10071000B1F0FA01908121E0290F20839E01290F79
:10072000311DF90180A7FA0190818C91981788F00A
:100730001CA281E08F8FCE010E9447010AC08C93DA
:100740009C91973008F460C09C91943408F05CC090
:10075000E0CF1FA25FC08DA19EA188339B4009F00E
:1007600059C081E08CA31FA2C459DF4F188252C028
:100770008A819B81039709F04DC08E0101591F4F5B
:10078000F801808191E0980F9083811137C07E013C
:10079000FDE6EF0EF11CF7018081EF56FF4F9081CF
:1007A000891748F0CE010E9447018B899C890196E8
:1007B0009C8B8B8B23C0FE01E80FF11DE059FF4F8E
:1007C000608170E06E01FEE6CF0ED11CF6018081E3
:1007D00091E0980F908302C0759567958A95E2F72E
:1007E000617077278B8D0E94C909F6018081863060
:1007F00028F01082F70180818F5F8083F80180816B
:10080000883040F0108206C01CA28F85988901961E
:10081000988B8F87FF91EF91DF91CF91BF91AF912F
:100820009F918F917F916F915F914F913F912F9108
:100830001F910F91FF90EF90DF90CF900F900FBE20
:100840000F901F90189580915802882361F09FB7F0
:10085000F8942091580280915702213019F48DBBF1
:100860009FBF08958FBF089520915802222379F0E9
:100870002FB7F89430915802313039F43DB33093AA
:1008800057023DB33DBB2FBF02C0209357028CBD22
:100890009DBD0895EF92FF920F931F93CF93DF9327
:1008A0001F92CDB7DEB77C01162F0FB7F894DC018D
:1008B0005896ED91FC9159978085918549830E94C6
:1008C000340460E0F701828D0E94C909D70158966F
:1008D0008D919C915997DC01ED91FC91612F60689D
:1008E0000190F081E02D0995182FF701808D918DF1
:1008F000DC01ED91FC910190F081E02D4981642FA4
:10090000099561E0F701828D0E94C9090E942304C4
:100910000FBF812F0F90DF91CF911F910F91FF900B
:10092000EF900895CF93DF93FC0122813381233030
:100930003105B9F0EC0182819381049771F045E0B3
:1009400061E0CF010E944A0440E060E4CE010E94D1
:100950004A0484E090E09B838A83C35EDE4F8881F3
:1009600001C080E0DF91CF9108950F931F93CF9343
:10097000DF93EC01162F0FB7F894E88DF98D808581
:1009800091850E94340460E08A8D0E94C909888D97
:10099000998DDC01ED91FC91612F6F770190F081D1
:1009A000E02D0995888D998DDC01ED91FC910190E8
:1009B000F081E02D60E00995182F61E08A8D0E949A
:1009C000C9090E9423040FBF812FDF91CF911F918E
:1009D0000F910895DF92EF92FF920F931F93CF93A1
:1009E000DF93EC0162E10E94B5042A813B8124304F
:1009F000310519F4982F907A41F42A813B812430F3
:100A00003105A1F486FD20C011C08F85988901961B
:100A1000988B8F874FEF62E1CE01DF91CF911F91CD
:100A20000F91FF90EF90DF900C944A042A813B8154
:100A30002330310509F0A2C083FFA0C08B899C89B7
:100A400001969C8B8B8BA4C063E1CE010E94B50400
:100A5000F82E60E1CE010E94B504482F6DE0CE0172
:100A60000E944A04DFB6F894E88DF98D808591855F
:100A70000E94340460E08A8D0E94C909888D998D96
:100A8000DC01ED91FC910190F081E02D60E0099591
:100A90008E01025E1F4FEF2CE00EE01671F0888D84
:100AA000998DDC01ED91FC910190F081E02D60E0E9
:100AB0000995F80181938F01F0CF61E08A8D0E9442
:100AC000C9090E942304DFBEFD8E4FEF62E1CE0113
:100AD0000E944A0469E1CE010E94B5048E01015EC4
:100AE0001E4F87FD8D5F85958595D8018C936AE1B2
:100AF000CE010E94B5048E87F80190818E8597FF04
:100B000003C0890F8E8709C0F0E18F02C001112454
:100B10006FE070E00E94300E6E87FE01E25EFE4FD5
:100B20008081882319F08E858D5902C08E85845A64
:100B30008E878D8DFE01E35EFE4F843090F08E8DAA
:100B40008E838F8D8F8388A1888789A189878D81E6
:100B500081110CC09E818C81981741F08E818F3F4E
:100B600029F08081882309F455CF12C089899A8998
:100B700001969A8B898B81E08083F3CF2A813B8118
:100B80002530310509F046CF82FF44CF81708D8B2F
:100B9000CE010E94370B3ECF80916002909161029E
:100BA000009711F00C94EA04089580915E029091F0
:100BB0005F02009711F00C94EA04089580915C02A2
:100BC00090915D02009711F00C94EA040895EF9261
:100BD000FF920F931F93CF93DF9300D01F92CDB757
:100BE000DEB78C010E945F01F82E882341F1F801E5
:100BF000838D823019F0833011F523C0E12C40E859
:100C000061E0C8010E944A046AE070E080E090E080
:100C10000E94350A61E0C8010E94B5048038A1F045
:100C200061E0C8010E94B504682F70E080E090E0A8
:100C300040E10E94DF0882E891E00E94CD08F12C9B
:100C400075C0EE24E394DBCF60E0F801838D0E9451
:100C5000F909F801848D8F3F49F480915B0284305B
:100C600070F791E0980F90935B02848FF801848D68
:100C7000E82FF0E0EE0FFF1FE45AFD4F11830083D1
:100C8000811103C06EED75E009C0813019F465ED86
:100C900075E004C0823099F66CEC75E08E2D0E94F0
:100CA0002E0940E06EE0C8010E944A0440E06FE077
:100CB000C8010E944A04C8010E94370B43E050E07B
:100CC00062E770E0CE0101960E948F0D49816DE1CF
:100CD000C8010E944A044A816EE1C8010E944A0488
:100CE0004B8166E2C8010E944A0440E060E2C8010C
:100CF0000E944A0448E061E2C8010E944A044CE6AE
:100D000066E0C8010E944A0440E867E0C8010E940A
:100D10004A0440E068E0C8010E944A04F801E25E2B
:100D2000FE4F10826DE0C8010E94130B8F2D0F90B3
:100D30000F900F90DF91CF911F910F91FF90EF9047
:100D40000895CF92DF92EF92FF92CF93DF93CDB7CA
:100D5000DEB7C051D1400FB6F894DEBF0FBECDBF95
:100D600081E1E8E0F1E0DE01A450BF4F01900D9277
:100D70008A95E1F7C35FDE4F188219821A82CD503F
:100D8000D14080915402909155029C012F5F3F4FBA
:100D900030935502209354026CEF70E06C0F7D1F6E
:100DA000605F7F4F4AE00E94980D85E891E00E94C5
:100DB000CD08CE0184509F4F0E942009C15FDE4FB5
:100DC0001882CF50D1408EE891E00E94CD0844E1D6
:100DD000BE0164507F4F8FEF92E00E944B0B60E1A9
:100DE00077E28FEF92E00E941202882319F089E9DE
:100DF00091E002C083EB91E00E9420098BEFC05F7D
:100E0000DE4F8883C051D1406AE070E080E090E01E
:100E10000E94350A68EE73E08FEF92E00E94430271
:100E2000882309F442C0AE01405F5E4FBE016F5F90
:100E30007F4F8FEF92E00E940201882399F18AEBA5
:100E400091E00E94CD08CE0101960E94CD0886EC6B
:100E500091E00E94CD08C0900D030C2C000CDD0821
:100E6000EE08FF08F7FE14C0E0916202F091630201
:100E70000190F081E02D6DE282E692E0099566270F
:100E80007727CB016C197D098E099F094AE003C0C1
:100E90004AE0C701B6010E94DF0882E891E00E94A3
:100EA000CD0807C08FEC91E002C08EED91E00E946A
:100EB0002009C05FDE4F0FB6F894DEBF0FBECDBF76
:100EC000DF91CF91FF90EF90DF90CF900895CF9278
:100ED000DF92EF92FF920F931F93CF93DF936C01FA
:100EE0007A018B01C0E0D0E0CE15DF0589F0D80192
:100EF0006D918D01D601ED91FC910190F081E02D75
:100F0000C6010995892B11F47E0102C02196ECCF10
:100F1000C701DF91CF911F910F91FF90EF90DF906C
:100F2000CF900895089580E090E00895FC01538DDE
:100F3000448D252F30E0842F90E0821B930B5417B3
:100F400010F0CF96089501970895FC01918D828D40
:100F5000981761F0828DDF01A80FB11D5D968C910D
:100F6000928D9F5F9F73928F90E008958FEF9FEF18
:100F70000895FC01918D828D981731F0828DE80FD4
:100F8000F11D858D90E008958FEF9FEF0895FC018E
:100F9000918D228D892F90E0805C9F4F821B91095B
:100FA0008F739927089582E692E00E94C70721E097
:100FB000892B09F420E0822F0895FC01848DDF0144
:100FC000A80FB11DA35ABF4F2C91848D90E00196BC
:100FD0008F739927848FA689B7892C93A089B189AB
:100FE0008C9180648C93938D848D981306C00288B5
:100FF000F389E02D80818F7D80830895EF92FF92A9
:101000000F931F93CF93DF93EC0181E0888F9B8D2B
:101010008C8D981305C0E889F989808185FD24C0ED
:10102000F62E0B8D10E00F5F1F4F0F731127E02E70
:101030008C8DE8120CC00FB607FCFACFE889F9894D
:10104000808185FFF5CFCE010E94DD07F1CF8B8D2A
:10105000FE01E80FF11DE35AFF4FF0820B8FEA8982
:10106000FB898081806207C0EE89FF896083E889FF
:10107000F98980818064808381E090E0DF91CF9165
:101080001F910F91FF90EF900895CF93DF93EC01A4
:10109000888D8823C9F0EA89FB89808185FD05C098
:1010A000A889B9898C9186FD0FC00FB607FCF5CFD2
:1010B000808185FFF2CFA889B9898C9185FFEDCF1A
:1010C000CE010E94DD07E7CFDF91CF91089580E048
:1010D00090E0892B29F00E94D30781110C94000025
:1010E00008953FB7F8948091240490912504A0912D
:1010F0002604B091270426B5A89B05C02F3F19F000
:101100000196A11DB11D3FBFBA2FA92F982F882787
:10111000820F911DA11DB11DBC01CD0142E0660FE2
:10112000771F881F991F4A95D1F7089508958BEF6F
:101130000895CF93DF93EC018A819B81059771F02D
:1011400047E061E0CE010E944A0440E860E4CE013D
:101150000E944A0485E090E09B838A838A819B8178
:101160000597E1F38D89DF91CF910895CF93DF93B8
:10117000FC01228133812130310549F0EC0140E04E
:1011800061E00E944A0481E090E09B838A8381E0D1
:10119000DF91CF9108950E945E0E009769F0FC01E7
:1011A00001900020E9F73197AF01481B590BBC01B2
:1011B00082E692E00C94670780E090E008958F92B9
:1011C0009F92AF92BF920F931F93CF93DF93CDB7B0
:1011D000DEB7A1970FB6F894DEBF0FBECDBF19A240
:1011E000423008F44AE08E010F5D1F4F842E912C8F
:1011F000A12CB12CA50194010E94FF0DE62FB9018D
:10120000CA0101501109EA3014F4E05D01C0E95C43
:10121000D801EC93232B242B252B61F7C8010E94C6
:10122000CD08A1960FB6F894DEBF0FBECDBFDF91FB
:10123000CF911F910F91BF90AF909F908F90089585
:10124000CF93DF930E94CD08EC0182E891E00E94E9
:10125000CD088C0F9D1FDF91CF9108958230B8F497
:10126000E82FF0E0EE0FFF1FE050FF4F7183608327
:10127000813039F080916900836080936900E89A39
:101280000895809169008C6080936900E99A0895BF
:101290001F920F920FB60F9211242F933F934F93EB
:1012A0005F936F937F938F939F93AF93BF93EF93CE
:1012B000FF9382E692E00E94DD07FF91EF91BF91DC
:1012C000AF919F918F917F916F915F914F913F91DE
:1012D0002F910F900FBE0F901F9018951F920F9295
:1012E0000FB60F9211242F938F939F93EF93FF9339
:1012F000E0917202F09173028081E0917802F091A6
:10130000790282FD12C0908180917B028F5F8F7382
:1013100020917C02821751F0E0917B02F0E0EE59BF
:10132000FD4F958F80937B0201C08081FF91EF91EB
:101330009F918F912F910F900FBE0F901F90189536
:10134000833081F028F4813099F08230A1F0089543
:101350008730A9F08830B9F08430D1F480918000D2
:101360008F7D03C0809180008F77809380000895E7
:1013700084B58F7702C084B58F7D84BD0895809138
:10138000B0008F7703C08091B0008F7D8093B00054
:1013900008951F93CF93DF93282F30E0F901E6548F
:1013A000FF4F8491F901EA55FF4FD491F901EE56B0
:1013B000FF4FC491CC23C9F0162F81110E94A009C0
:1013C000EC2FF0E0EE0FFF1FE857FF4FA591B4910F
:1013D0008FB7F894111105C09C91ED2FE095E9238A
:1013E00002C0EC91ED2BEC938FBFDF91CF911F9159
:1013F0000895CF93DF9390E0FC01EA55FF4F2491CD
:10140000FC01EE56FF4F8491882361F190E0880F34
:10141000991FFC01E258FF4FC591D491FC01E85798
:10142000FF4FA591B491611109C09FB7F8948881CD
:10143000209582238883EC912E230BC0623061F4C7
:101440009FB7F8943881822F809583238883EC910D
:101450002E2B2C939FBF06C08FB7F894E8812E2BBC
:1014600028838FBFDF91CF9108958F929F92AF9283
:10147000BF92CF92DF92EF92FF926B017C010E94AC
:1014800071084B015C01C114D104E104F104F1F0D5
:101490000E947108DC01CB0188199909AA09BB09CE
:1014A000883E9340A105B10570F321E0C21AD1082E
:1014B000E108F10888EE880E83E0981EA11CB11C9B
:1014C000C114D104E104F10419F7DDCFFF90EF90CE
:1014D000DF90CF90BF90AF909F908F9008952FB7DF
:1014E000F8946091200470912104809122049091DD
:1014F00023042FBF08951F920F920FB60F9211244D
:101500002F933F938F939F93AF93BF93809120042A
:1015100090912104A0912204B091230430911F04E2
:1015200023E0230F2D3720F40196A11DB11D05C026
:1015300026E8230F0296A11DB11D20931F0480935E
:10154000200490932104A0932204B093230480915B
:10155000240490912504A0912604B09127040196BB
:10156000A11DB11D8093240490932504A09326040B
:10157000B0932704BF91AF919F918F913F912F918D
:101580000F900FBE0F901F9018951F920F920FB6DD
:101590000F9211242F933F934F935F936F937F93F9
:1015A0008F939F93AF93BF93EF93FF93E0910201CB
:1015B000F09103010995FF91EF91BF91AF919F9138
:1015C0008F917F916F915F914F913F912F910F90EC
:1015D0000FBE0F901F9018951F920F920FB60F928B
:1015E00011242F933F934F935F936F937F938F9328
:1015F0009F93AF93BF93EF93FF93E0910001F0911E
:1016000001010995FF91EF91BF91AF919F918F914A
:101610007F916F915F914F913F912F910F900FBEEE
:101620000F901F9018950F931F93CF938C01C62F87
:1016300068312CF465305CF0653114F409C0C7E101
:1016400047E06DE4C8010E944A04C35006C0C5E0EB
:1016500044E06DE4C8010E944A044BEF4C0F40681F
:1016600069E0C801CF911F910F910C944A04CF9368
:10167000DF93FC01228133812230310549F0EC01F6
:1016800041E061E00E944A0482E090E09B838A830B
:10169000DF91CF910895BF92CF92DF92EF92FF92A8
:1016A0000F931F93CF93DF934C3F10F0E12C77C043
:1016B000142F072FF62EEC01E881F9810484F585BB
:1016C000E02D0995CE010E94370BE881F98102884F
:1016D000F389E02DCE010995E82E882339F340E007
:1016E0006DE0CE010E944A044A8560E0CE010E946E
:1016F0004A044B8560E0CE010E944A044C8560E0BC
:10170000CE010E944A044D8560E0CE010E944A0449
:10171000BFB6F894E88DF98D808591850E943404D8
:1017200060E08A8D0E94C909888D998DDC01ED9158
:10173000FC910190F081E02D60E80995CF2CD02E2E
:10174000012F015068F0888D998DF60161916F012C
:10175000DC01ED91FC910190F081E02D0995F1CF34
:1017600061E08A8D0E94C9090E942304BFBE44E043
:10177000410F62E2CE010E944A048A819B81039755
:1017800071F043E061E0CE010E944A0440E460E46D
:10179000CE010E944A0483E090E09B838A838E2DD1
:1017A000DF91CF911F910F91FF90EF90DF90CF903D
:1017B000BF900895E2E6F2E01382128288EE93E091
:1017C000A0E0B0E084839583A683B78380E391E0B3
:1017D0009183808385EC90E09587848784EC90E00A
:1017E0009787868780EC90E0918B808B81EC90E0EE
:1017F000938B828B82EC90E0958B848B86EC90E0CF
:10180000978B868B118E128E138E148EA8E2B4E005
:1018100013961C921E92129715961C921E92149764
:1018200017961C921E92169780E518968C9318971F
:1018300019961C92199782E491E011969C938E93CD
:10184000EFEFF2E0138212828FEF84838287838727
:1018500014861586108A1786128A118A148A138AAA
:10186000178A168AB18FA08F94E0928F26E531E017
:101870003183208310921C0493E0938F848F08950A
:10188000789484B5826084BD84B5816084BD85B55B
:10189000826085BD85B5816085BD80916E00816067
:1018A00080936E001092810080918100826080930D
:1018B000810080918100816080938100809180000F
:1018C0008160809380008091B10084608093B1003A
:1018D0008091B00081608093B00080917A00846034
:1018E00080937A0080917A00826080937A00809160
:1018F0007A00816080937A0080917A00806880937A
:101900007A001092C10061E082E00E94F90961E072
:1019100082E00E94C909E0917202F0917302C2E074
:10192000C083E0916E02F0916F021082E09170022C
:10193000F09171028FEC808310927A02E09176022E
:10194000F091770286E08083E0917402F091750255
:10195000808180618083E0917402F09175028081C2
:1019600088608083E0917402F091750280818068C4
:101970008083E0917402F091750280818F7D808375
:1019800084E092E00E94200960E082E00E94C909A0
:101990006AE070E080E090E00E94350A61E082E059
:1019A0000E94C9096AE070E080E090E00E94350A78
:1019B0008FEF92E00E94E705811105C08AE192E075
:1019C0000E942009FFCF81E392E00E94200944EEAB
:1019D00066E08FEF92E00E944A0440EC67E08FEFF0
:1019E00092E00E944A0440E068E08FEF92E00E949B
:1019F0004A0481E080931D0485E492E00E94CD08B2
:101A00004AE063E973E080E090E00E94DF08E09143
:101A10006202F09163020190F081E02D6EE282E6B5
:101A200092E009954AE060E070E0CB010E94DF0897
:101A30004AE060E070E0CB010E94DF0882E891E0BC
:101A40000E94CD0867E18FEF92E00E94130BC093D4
:101A50000303C0930A0383E0809309030E94A10655
:101A60000E946708FBCF8F929F92AF92BF92CF9256
:101A7000DF92EF92FF92CF93DF93EC01688179813F
:101A80008A819B81611571058105910521F464E2CC
:101A900079ED8BE597E02DE133EF41E050E00E94D6
:101AA000CD0D49015A019B01AC01A7EAB1E40E94A6
:101AB000EC0D6B017C01ACEEB4EFA50194010E942A
:101AC000FA0DDC01CB018C0D9D1DAE1DBF1DB7FFB6
:101AD00003C00197A109B04888839983AA83BB8377
:101AE000BC01CD019F77DF91CF91FF90EF90DF9008
:101AF000CF90BF90AF909F908F9008950E94330D2C
:101B0000089584E091E00E94330D089560930401EC
:101B10007093050180930601909307010895FB01DE
:101B2000DC0102C005900D9241505040D8F7089555
:101B3000BB274A3031F4992322F4BDE29095819578
:101B40009F4F0C94A40DBB27FB015527AA27880F94
:101B5000991FAA1FA41710F0A41B83955051B9F721
:101B6000A05DAA3308F0A95DA193009779F7B111A0
:101B7000B1931192CB010C94BD0DDC01FC01672FD8
:101B800071917723E1F7329704C07C916D93708354
:101B90006291AE17BF07C8F30895052E97FB1EF498
:101BA00000940E94E40D57FD07D00E94FF0D07FC32
:101BB00003D04EF40C94E40D50954095309521954A
:101BC0003F4F4F4F5F4F0895909580957095619569
:101BD0007F4F8F4F9F4F08950E94210EA59F900D1C
:101BE000B49F900DA49F800D911D11240895B7FFFF
:101BF0000C94EC0D0E94EC0D821B930B0895A1E256
:101C00001A2EAA1BBB1BFD010DC0AA1FBB1FEE1F76
:101C1000FF1FA217B307E407F50720F0A21BB30BC1
:101C2000E40BF50B661F771F881F991F1A9469F73D
:101C300060957095809590959B01AC01BD01CF0199
:101C40000895A29FB001B39FC001A39F700D811D95
:101C50001124911DB29F700D811D1124911D0895B5
:101C600097FB072E16F4009407D077FD09D00E9449
:101C7000440E07FC05D03EF4909581959F4F089542
:101C8000709561957F4F0895AA1BBB1B51E107C05A
:101C9000AA1FBB1FA617B70710F0A61BB70B881FFC
:101CA000991F5A95A9F780959095BC01CD0108958B
:101CB000EE0FFF1F0590F491E02D099481E090E074
:101CC000F8940C946C0EFB01DC0102C001900D92A3
:0C1CD00041505040D8F70895F894FFCF21
:101CDC00960896080100000048656C6C6F205769E7
:101CEC006C64666972652023000000000D0E1315EC
:101CFC0016191A1C232526292A2C32340000000020
:101D0C00FE07670796074508C707A507B907000030
:101D1C000000AE00AA00A6007D019200BD00B90033
:101D2C00B50000000000E705920402014B0B970878
:101D3C00F100E9001202430278029908E100DE008A
:101D4C00DB00D800D100E400CE00CB00C800C500F9
:101D5C00B6080D0A0053656E64696E672000536502
:101D6C006E64696E672E2E2E0020556E737563653A
:101D7C00737366756C205472616E736D69737369DD
:101D8C006F6E002053656E742100476F742072656E
:101D9C00706C793A20002C20525353493A2000524F
:101DAC00656365697665206661696C6564004E6F74
:101DBC00207265706C792C2069732074686572656B
:101DCC002061206C697374656E65722061726F7529
:101DDC006E643F0041726475696E6F204C6F526186
:101DEC00205458205465737421004C6F526120723A
:101DFC006164696F20696E6974206661696C6564E1
:101E0C00004C6F526120726164696F20696E697455
:101E1C00204F4B2100536574204672657120746FFE
:041E2C003A20000058
:107800000C94343C0C94513C0C94513C0C94513CE1
:107810000C94513C0C94513C0C94513C0C94513CB4
:107820000C94513C0C94513C0C94513C0C94513CA4
:107830000C94513C0C94513C0C94513C0C94513C94
:107840000C94513C0C94513C0C94513C0C94513C84
:107850000C94513C0C94513C0C94513C0C94513C74
:107860000C94513C0C94513C11241FBECFEFD8E036
:10787000DEBFCDBF11E0A0E0B1E0ECE9FFE702C060
:1078800005900D92A230B107D9F712E0A2E0B1E065
:1078900001C01D92AD30B107E1F70E942D3D0C945F
:1078A000CC3F0C94003C982F959595959595959582
:1078B000905D8F708A307CF0282F295A8091C0000B
:1078C00085FFFCCF9093C6008091C00085FFFCCF60
:1078D0002093C6000895282F205DF0CF982F809127
:1078E000C00085FFFCCF9093C6000895EF92FF92F1
:1078F0000F931F93EE24FF2487018091C00087FD22
:1079000017C00894E11CF11C011D111D81E4E8164B
:1079100082E4F8068FE0080780E0180770F3E09132
:107920000401F091050109958091C00087FFE9CF1E
:107930008091C6001F910F91FF90EF9008950E94D3
:10794000763C982F8091C00085FFFCCF9093C600B5
:1079500091362CF490330CF09053892F089597555D
:10796000892F08951F930E949F3C182F0E949F3CCF
:107970001295107F810F1F9108951F93182F882350
:1079800021F00E94763C1150E1F71F9108951F935A
:10799000182F0E94763C803249F0809103018F5F5E
:1079A000809303018530C1F01F9108958091C0003C
:1079B00085FFFCCF84E18093C6008091C00085FFE5
:1079C000FCCF1093C6008091C00085FFFCCF80E102
:1079D0008093C6001F910895E0910401F091050184
:1079E00009951F9108950E94763C803241F0809164
:1079F00003018F5F80930301853081F008958091AA
:107A0000C00085FFFCCF84E18093C6008091C00058
:107A100085FFFCCF80E18093C6000895E0910401CA
:107A2000F09105010995089540E951E08823A1F0FE
:107A30002D9A28EE33E0FA013197F1F721503040CA
:107A4000D1F72D9828EE33E0FA013197F1F7215064
:107A50003040D1F7815061F708953F924F925F9285
:107A60006F927F928F929F92AF92BF92CF92DF924E
:107A7000EF92FF920F931F93CF93DF93000080E16B
:107A80008093C4001092C50088E18093C10086E015
:107A90008093C2005098589A259A81E00E94143D24
:107AA00024E1F22E9EE1E92E85E9D82E0FE0C02ECA
:107AB00010E1B12EAA24A394B1E49B2EA6E58A2E50
:107AC000F2E57F2EE0E26E2E79E4572E63E5462E36
:107AD00050E5352E0E94763C8033B1F18133B9F107
:107AE000803409F46FC0813409F476C0823409F41B
:107AF00085C0853409F488C0803531F1823521F1A3
:107B0000813511F1853509F485C0863509F48DC0BC
:107B1000843609F496C0843709F403C1853709F423
:107B200072C1863709F466C0809103018F5F80932C
:107B30000301853079F6E0910401F0910501099582
:107B40000E94763C803351F60E94F33CC3CF0E94E2
:107B5000763C803249F78091C00085FFFCCFF092DF
:107B6000C6008091C00085FFFCCF9092C600809136
:107B7000C00085FFFCCF8092C6008091C00085FFC9
:107B8000FCCF7092C6008091C00085FFFCCF609250
:107B9000C6008091C00085FFFCCF5092C600809146
:107BA000C00085FFFCCF4092C6008091C00085FFD9
:107BB000FCCF3092C6008091C00085FFFCCFB09210
:107BC000C60088CF0E94763C863808F4BDCF0E945C
:107BD000763C0E94F33C7ECF0E94763C803809F4CC
:107BE0009CC0813809F40BC1823809F43CC1883942
:107BF00009F48FC080E00E94C73C6CCF84E10E94F2
:107C0000BD3C0E94F33C66CF85E00E94BD3C0E94D3
:107C1000F33C60CF0E94763C809306010E94763C44
:107C2000809307010E94F33C55CF0E94763C80333D
:107C300009F41DC183E00E94BD3C80E00E94C73C66
:107C400049CF0E94763C809309020E94763C809343
:107C5000080280910C028E7F80930C020E94763C79
:107C6000853409F415C18091080290910902892B8D
:107C700089F000E010E00E94763CF801E85FFE4FDA
:107C800080830F5F1F4F80910802909109020817AF
:107C9000190788F30E94763C803209F045CF809125
:107CA0000C0280FF01C16091060170910701660F0F
:107CB000771F7093070160930601A0910802B091AD
:107CC00009021097C9F0E8E0F1E09B01AD014E0F09
:107CD0005F1FF999FECF32BD21BD819180BDFA9A17
:107CE000F99A2F5F3F4FE417F50799F76A0F7B1F4B
:107CF00070930701609306018091C00085FFFCCF5F
:107D0000F092C6008091C00085FFFCCFB092C60003
:107D1000E1CE83E00E94C73CDDCE82E00E94C73CFA
:107D2000D9CE0E94763C809309020E94763C8093D3
:107D300008028091060190910701880F991F909386
:107D40000701809306010E94763C853409F4A6C0A1
:107D500080910C028E7F80930C020E94763C8032D0
:107D600009F0B8CE8091C00085FFFCCFF092C6002C
:107D7000609108027091090261157105B9F140E046
:107D800050E080910C02A82FA170B82FB27011C0E2
:107D9000BB2309F45CC0E0910601F0910701319624
:107DA000F0930701E09306014F5F5F4F46175707B7
:107DB000E8F4AA2369F3F999FECF209106013091E6
:107DC000070132BD21BDF89A90B58091C00085FFB2
:107DD000FCCF9093C6002F5F3F4F30930701209355
:107DE00006014F5F5F4F4617570718F38091C00099
:107DF00085FDE5CE8091C00085FFF8CFE0CE81E023
:107E00000E94C73C67CE0E94763C803209F08CCE3F
:107E10008091C00085FFFCCFF092C6008091C00029
:107E200085FFFCCFE092C6008091C00085FFFCCFAB
:107E3000D092C6008091C00085FFFCCFC092C600E2
:107E40008091C00085FFFCCFB092C60043CEE09188
:107E50000601F091070194918091C00085FFFCCF4D
:107E60009093C6009CCF80E10E94C73C33CE0E9415
:107E7000763C0E94763C182F0E94763C112309F430
:107E800083C0113009F484C08FE00E94C73C22CE29
:107E900080910C02816080930C02E5CE80910C02EF
:107EA000816080930C0259CF809107018823880F4D
:107EB000880B8A2180930B02809106019091070123
:107EC000880F991F90930701809306018091080203
:107ED00080FF09C080910802909109020196909359
:107EE000090280930802F894F999FECF1127E091D6
:107EF0000601F0910701C8E0D1E08091080290915D
:107F00000902103091F40091570001700130D9F34B
:107F100003E000935700E89500915700017001308D
:107F2000D9F301E100935700E89509901990009169
:107F3000570001700130D9F301E000935700E89534
:107F40001395103498F011270091570001700130FB
:107F5000D9F305E000935700E895009157000170B0
:107F60000130D9F301E100935700E895329602976A
:107F700009F0C7CF103011F00296E5CF112480919F
:107F8000C00085FFB9CEBCCE8EE10E94C73CA2CD19
:0C7F900085E90E94C73C9ECDF894FFCF0D
:027F9C00800063
:040000030000780081
:00000001FF