:100000000C94B0000C94C7020C94A0020C94630CE6
:100010000C943F0C0C941B0C0C94D8000C94D8003E
:100020000C94D8000C94D8000C94D8000C94EE02D8
:100030000C94D8000C94D8000C94D8000C94D800E0
:100040000C9456020C94D8000C9463080C943D0850
:100050000C94D8000C94D8000C94D8000C94D800C0
:100060000C94D8000C94D8007274009274004894D8
:100070000078C40000000000240027002A000000CF
:100080000008000201000003040700000000000057
:10009000000000000000250028002B0000000000E8
:1000A00023002600290004040404040404040202BA
:1000B00002020202030303030303010204081020E7
:1000C000408001020408102001020408102000C230
:1000D00001000100110011000C0000E100000A0005
:1000E0002500250021000096000019003900390084
:1000F0003600127A00001F0046004600440080705F
:10010000000022004D004D004A00004B0000360068
:10011000750075007200403800004A009C009C0089
:100120009900802500007200EC00EC00E900C0128C
:100130000000E900DA01DA01D70160090000D70107
:10014000B603B603B303B0040000B3036E076E0733
:100150006B072C010000DC0EC11DC11DBE1D7813F4
:1001600011241FBECFEFD8E0DEBFCDBF13E0A0E06B
:10017000B1E0E4EEF2E302C005900D92AA30B107BF
:10018000D9F725E0AAE0B3E001C01D92AA34B20776
:10019000E1F710E0C0EBD0E004C02197FE010E941F
:1001A0002218CF3AD107C9F70E94F30E0C947019A8
:1001B0000C9400003FB7F8948091180390911903B4
:1001C000A0911A03B0911B0326B5A89B05C02F3F31
:1001D00019F00196A11DB11D3FBFBA2FA92F982F6D
:1001E0008827820F911DA11DB11DBC01CD0142E0E8
:1001F000660F771F881F991F4A95D1F708950895B4
:100200008BEF0895CF93DF93FC012281338122305D
:10021000310569F0EC01668D848D0E94950860E0DF
:100220008B8D0E94950882E090E09B838A83DF910A
:10023000CF9108950F931F93CF93DF93EC01162F67
:100240000FB7F894E88DF98D808591850E94250B74
:1002500060E08A8D0E949508888D998DDC01ED9172
:10026000FC91612F6F770190F081E02D0995888DC9
:10027000998DDC01ED91FC910190F081E02D60E021
:100280000995182F61E08A8D0E9495080E94140B31
:100290000FBF812FDF91CF911F910F910895CF92C2
:1002A000DF92EF92FF920F931F93CF93DF93EC01B6
:1002B0007B018A01E881F9810280F381E02D0995B3
:1002C000D82E882339F1E114F104E1F0011511056C
:1002D000C9F0CFB6F8942D8D30E023503109F801E4
:1002E000808190E0821793071CF09D8D945090833D
:1002F000F801408150E0BE016E5D7F4FC7010E9452
:100300006719CFBE8FB7F894FE01E35EFE4F1082EF
:100310001D8E8FBF8D2DDF91CF911F910F91FF907B
:10032000EF90DF90CF900895833081F028F48130F2
:1003300099F08230A1F008958730A9F08830B9F0A3
:100340008430D1F4809180008F7D03C08091800043
:100350008F7780938000089584B58F7702C084B52D
:100360008F7D84BD08958091B0008F7703C0809108
:10037000B0008F7D8093B0000895CF93DF9390E01D
:10038000FC01E654FF4F2491FC01EA55FF4F849194
:10039000882361F190E0880F991FFC01EC58FF4F12
:1003A000C591D491FC01EE56FF4FA591B491611116
:1003B00009C09FB7F8948881209582238883EC91A7
:1003C0002E230BC0623061F49FB7F8943881822FDE
:1003D000809583238883EC912E2B2C939FBF06C09E
:1003E0008FB7F894E8812E2B28838FBFDF91CF91B0
:1003F00008958E3008F08E508770806480937C0062
:1004000080917A00806480937A0080917A0086FDE2
:10041000FCCF809178002091790090E0922B089594
:100420008F929F92AF92BF92CF92DF92EF92FF9204
:100430006B017C010E94DA004B015C01C114D10404
:10044000E104F104F1F00E94DA00DC01CB0188192B
:100450009909AA09BB09883E9340A105B10570F32B
:1004600021E0C21AD108E108F10888EE880E83E085
:10047000981EA11CB11CC114D104E104F10419F7A8
:10048000DDCFFF90EF90DF90CF90BF90AF909F9027
:100490008F9008952FB7F89460911403709115030D
:1004A00080911603909117032FBF08951F920F920A
:1004B0000FB60F9211242F933F938F939F93AF9377
:1004C000BF938091140390911503A0911603B091EE
:1004D00017033091130323E0230F2D3720F40196E7
:1004E000A11DB11D05C026E8230F0296A11DB11D57
:1004F000209313038093140390931503A093160382
:10050000B09317038091180390911903A0911A03D7
:10051000B0911B030196A11DB11D80931803909308
:100520001903A0931A03B0931B03BF91AF919F913E
:100530008F913F912F910F900FBE0F901F901895A4
:100540001F920F920FB60F9211242F933F934F9348
:100550005F936F937F938F939F93AF93BF93EF932B
:10056000FF93E0910801F09109010995FF91EF9146
:10057000BF91AF919F918F917F916F915F914F91BB
:100580003F912F910F900FBE0F901F9018951F92C3
:100590000F920FB60F9211242F933F934F935F93B7
:1005A0006F937F938F939F93AF93BF93EF93FF933B
:1005B000E0910601F09107010995FF91EF91BF913C
:1005C000AF919F918F917F916F915F914F913F91EB
:1005D0002F910F900FBE0F901F9018951F920F92A2
:1005E0000FB60F921124CF92DF92EF92FF920F93EA
:1005F0001F932F933F934F935F936F937F938F93AB
:100600009F93AF93BF93CF93DF93EF93FF93C091EB
:100610000A03D0910B038A819B81049709F0CAC019
:100620002A8D30E0F901E258FF4F8491F901E65438
:10063000FF4F0491F901EA55FF4F1491112379F00E
:1006400081110E949401E12FF0E0EE0FFF1FE456AC
:10065000FF4FA591B491EC91E02381E009F480E093
:1006600081709D8D892719F09AA19F5F9AA399A106
:10067000891771F09BA1903518F02DE130E002C090
:100680002BE030E09BA1290F311D2BA389A303C0D0
:100690008BA18C5E8BA38BA1803A08F4DDC08DA169
:1006A0009EA1969587959EA38DA38AA1853028F05B
:1006B0008DA19EA198609EA38DA38BA1805A8BA330
:1006C0001AA28CA1882309F468C08FA18F5F8FA321
:1006D0008C3008F4C1C08DA19EA1982F9F73892FE3
:1006E00086958695887028E0280F821749F0E82FB4
:1006F000F0E0EC5EFE4F3081931719F08F5FF5CF7D
:1007000080E020E1829FC00111242DA13EA196E04E
:10071000369527959A95E1F7422F36952795369588
:100720002795287038E0320F231749F0E22FF0E0C8
:10073000EC5EFE4F5081451719F02F5FF5CF20E09A
:10074000822BAE0144595F4FFA019081DE01A55919
:10075000BF4F9923B1F0FA01908121E0290F208346
:100760009E01290F311DF90180A7FA0190818C911A
:10077000981788F01CA281E08F8FCE010E940201A1
:100780000AC08C939C91973008F460C09C9194347B
:1007900008F05CC0E0CF1FA25FC08DA19EA188338E
:1007A0009B4009F059C081E08CA31FA2C459DF4FC0
:1007B000188252C08A819B81039709F04DC08E0137
:1007C00001591F4FF801808191E0980F90838111AA
:1007D00037C07E01FDE6EF0EF11CF7018081EF5678
:1007E000FF4F9081891748F0CE010E9402018B894A
:1007F0009C8901969C8B8B8B23C0FE01E80FF11D19
:10080000E059FF4F608170E06E01FEE6CF0ED11C13
:10081000F601808191E0980F908302C075956795ED
:100820008A95E2F7617077278B8D0E949508F60113
:100830008081863028F01082F70180818F5F80836D
:10084000F8018081883040F0108206C01CA28F859C
:1008500098890196988B8F87FF91EF91DF91CF91C7
:10086000BF91AF919F918F917F916F915F914F91C8
:100870003F912F911F910F91FF90EF90DF90CF90BC
:100880000F900FBE0F901F901895EF92FF920F934D
:100890001F93CF93DF931F92CDB7DEB77C01162F46
:1008A0000FB7F894DC015896ED91FC91599780852B
:1008B000918549830E94250B60E0F701828D0E949B
:1008C0009508D70158968D919C915997DC01ED912F
:1008D000FC91612F60680190F081E02D0995182F3F
:1008E000F701808D918DDC01ED91FC910190F081FB
:1008F000E02D4981642F099561E0F701828D0E9406
:1009000095080E94140B0FBF812F0F90DF91CF919C
:100910001F910F91FF90EF9008950F931F93CF9326
:100920008C01C62F68312CF465305CF0653114F40D
:1009300009C0C7E147E06DE4C8010E944504C35007
:1009400006C0C5E044E06DE4C8010E9445044BEFD9
:100950004C0F406869E0C801CF911F910F910C9432
:100960004504CF93DF93EC018A819B81059771F059
:1009700047E061E0CE010E94450440E860E4CE011A
:100980000E94450485E090E09B838A838A819B8155
:100990000597E1F38D89DF91CF910895CF93DF9390
:1009A000FC01228133812130310549F0EC0140E026
:1009B00061E00E94450481E090E09B838A8381E0AE
:1009C000DF91CF910895CF93DF93FC012281338192
:1009D0002230310549F0EC0141E061E00E9445041C
:1009E00082E090E09B838A83DF91CF910895BF924C
:1009F000CF92DF92EF92FF920F931F93CF93DF93EB
:100A00004C3F10F0E12C77C0142F072FF62EEC018D
:100A1000E881F9810484F585E02D0995CE010E94D5
:100A2000E304E881F9810288F389E02DCE0109957C
:100A3000E82E882339F340E06DE0CE010E944504A2
:100A40004A8560E0CE010E9445044B8560E0CE01FE
:100A50000E9445044C8560E0CE010E9445044D850E
:100A600060E0CE010E944504BFB6F894E88DF98D90
:100A7000808591850E94250B60E08A8D0E949508F3
:100A8000888D998DDC01ED91FC910190F081E02D34
:100A900060E80995CF2CD02E012F015068F0888D89
:100AA000998DF60161916F01DC01ED91FC9101904E
:100AB000F081E02D0995F1CF61E08A8D0E949508C3
:100AC0000E94140BBFBE44E0410F62E2CE010E94BF
:100AD00045048A819B81039771F043E061E0CE0178
:100AE0000E94450440E460E4CE010E94450483E096
:100AF00090E09B838A838E2DDF91CF911F910F9180
:100B0000FF90EF90DF90CF90BF900895CF93DF9349
:100B1000FC012281338123303105B9F0EC0182815F
:100B20009381049771F045E061E0CF010E94450494
:100B300040E060E4CE010E94450484E090E09B83A5
:100B40008A83C35EDE4F888101C080E0DF91CF9150
:100B50000895DF92EF92FF920F931F93CF93DF934D
:100B6000EC0162E10E941A012A813B8124303105A7
:100B700019F4982F907A41F42A813B812430310571
:100B8000A1F486FD20C011C08F8598890196988BAD
:100B90008F874FEF62E1CE01DF91CF911F910F91CF
:100BA000FF90EF90DF900C9445042A813B81233025
:100BB000310509F0A2C083FFA0C08B899C890196F2
:100BC0009C8B8B8BA4C063E1CE010E941A01F82E8E
:100BD00060E1CE010E941A01482F6DE0CE010E9413
:100BE0004504DFB6F894E88DF98D808591850E94E3
:100BF000250B60E08A8D0E949508888D998DDC0117
:100C0000ED91FC910190F081E02D60E009958E015D
:100C1000025E1F4FEF2CE00EE01671F0888D998D6B
:100C2000DC01ED91FC910190F081E02D60E00995EF
:100C3000F80181938F01F0CF61E08A8D0E949508C1
:100C40000E94140BDFBEFD8E4FEF62E1CE010E94C9
:100C5000450469E1CE010E941A018E01015E1E4F1A
:100C600087FD8D5F85958595D8018C936AE1CE01CE
:100C70000E941A018E87F80190818E8597FF03C02C
:100C8000890F8E8709C0F0E18F02C00111246FE047
:100C900070E00E94FA176E87FE01E25EFE4F8081CF
:100CA000882319F08E858D5902C08E85845A8E87CF
:100CB0008D8DFE01E35EFE4F843090F08E8D8E832D
:100CC0008F8D8F8388A1888789A189878D818111E4
:100CD0000CC09E818C81981741F08E818F3F29F046
:100CE0008081882309F455CF12C089899A89019699
:100CF0009A8B898B81E08083F3CF2A813B812530D9
:100D0000310509F046CF82FF44CF81708D8BCE0133
:100D10000E94E3043ECF809111039091120300974B
:100D200011F00C94A905089580910F039091100380
:100D3000009711F00C94A905089580910D039091EE
:100D40000E03009711F00C94A9050895EF92FF92FD
:100D50000F931F93CF93DF9300D01F92CDB7DEB7D1
:100D60008C010E94A709F82E882341F1F801838D98
:100D7000823019F0833011F523C0E12C40E861E0A6
:100D8000C8010E9445046AE070E080E090E00E94A3
:100D9000100261E0C8010E941A018038A1F061E0F0
:100DA000C8010E941A01682F70E080E090E040E1E5
:100DB0000E945D0D8CE891E00E94490DF12C75C0F8
:100DC000EE24E394DBCF60E0F801838D0E94BD0147
:100DD000F801848D8F3F49F480910C03843070F7C3
:100DE00091E0980F90930C03848FF801848DE82F85
:100DF000F0E0EE0FFF1FE35FFC4F118300838111D2
:100E000003C06DE976E009C0813019F464E976E049
:100E100004C0823099F66BE876E08E2D0E94D90EE0
:100E200040E06EE0C8010E94450440E06FE0C80168
:100E30000E944504C8010E94E30443E050E068E6D4
:100E400070E0CE0101960E94521549816DE1C80102
:100E50000E9445044A816EE1C8010E9445044B810D
:100E600066E2C8010E94450440E060E2C8010E94B9
:100E7000450448E061E2C8010E9445044CE666E092
:100E8000C8010E94450440E867E0C8010E9445048B
:100E900040E068E0C8010E944504F801E25EFE4FB0
:100EA00010826DE0C8010E948D048F2D0F900F906D
:100EB0000F90DF91CF911F910F91FF90EF900895C8
:100EC000FC01538D448D252F30E0842F90E0821B50
:100ED000930B541710F0CF96089501970895FC01D5
:100EE000918D828D981761F0828DDF01A80FB11D61
:100EF0005D968C91928D9F5F9F73928F90E0089585
:100F00008FEF9FEF0895FC01918D828D981731F03E
:100F1000828DE80FF11D858D90E008958FEF9FEF92
:100F20000895FC01918D228D892F90E0805C9F4F68
:100F3000821B91098F739927089581E693E00E949F
:100F4000910721E0892B09F420E0822F0895FC010C
:100F5000848DDF01A80FB11DA35ABF4F2C91848D42
:100F600090E001968F739927848FA689B7892C9377
:100F7000A089B1898C9180648C93938D848D981312
:100F800006C00288F389E02D80818F7D80830895DB
:100F9000EF92FF920F931F93CF93DF93EC0181E0C9
:100FA000888F9B8D8C8D981305C0E889F989808185
:100FB00085FD24C0F62E0B8D10E00F5F1F4F0F73C1
:100FC0001127E02E8C8DE8120CC00FB607FCFACF6B
:100FD000E889F989808185FFF5CFCE010E94A707B6
:100FE000F1CF8B8DFE01E80FF11DE35AFF4FF08228
:100FF0000B8FEA89FB898081806207C0EE89FF89B7
:101000006083E889F98980818064808381E090E051
:10101000DF91CF911F910F91FF90EF900895CF93A3
:10102000DF93EC01888D8823C9F0EA89FB898081F0
:1010300085FD05C0A889B9898C9186FD0FC00FB6C2
:1010400007FCF5CF808185FFF2CFA889B9898C9103
:1010500085FFEDCFCE010E94A707E7CFDF91CF91AB
:10106000089580E090E0892B29F00E949D0781116E
:101070000C94000008950E9455191F920F920FB60C
:101080000F9211242F933F934F935F936F937F930E
:101090008F939F93AF93BF93EF93FF9381E693E07A
:1010A0000E94A707FF91EF91BF91AF919F918F9100
:1010B0007F916F915F914F913F912F910F900FBE54
:1010C0000F901F9018951F920F920FB60F92112438
:1010D0002F938F939F93EF93FF93E0917103F09180
:1010E00072038081E0917703F091780382FD12C052
:1010F000908180917A038F5F8F7320917B03821799
:1011000051F0E0917A03F0E0EF59FC4F958F809316
:101110007A0301C08081FF91EF919F918F912F9170
:101120000F900FBE0F901F9018951F93CF93DF93D2
:10113000282F30E0F901E258FF4F8491F901E6547D
:10114000FF4FD491F901EA55FF4FC491CC23C9F068
:10115000162F81110E949401EC2FF0E0EE0FFF1F7B
:10116000EE56FF4FA591B4918FB7F894111105C0B9
:101170009C91ED2FE095E92302C0EC91ED2BEC93CF
:101180008FBFDF91CF911F9108959FB7F894809101
:101190005E03882319F0815080935E0380915E0383
:1011A000811105C08CB58F7B8CBD109260039FBFF1
:1011B00008958CB58F778CBD08958CB580688CBDF3
:1011C00008956EBD00000DB407FEFDCF8EB50895E5
:1011D000FC01738362830895FC017783668308951D
:1011E000FC017583648308950895089580E008954F
:1011F000FC0181850895FC0180850895FC018781AB
:101200000895FC0186810895FC0140959585492348
:10121000642B65870895FC0164870895FC0163874A
:101220000895FC0162870895FC0164830895FC0120
:101230006583089580E00895FC0122813381233085
:101240003105D1F381E00895CF93DF93EC01E8817C
:10125000F9810280F381E02DCE0109958823B9F34D
:10126000DF91CF91089581E00895DC015196ED91D1
:10127000FC915297908150968C9180958923808320
:10128000089520910004309101042817390781F452
:101290009091FE038091FF03981751F0E091FE03B7
:1012A000F0E0E25EFC4F8081082E000C990B08955F
:1012B0008FEF9FEF089520910004309101042817CB
:1012C000390739F48FB7F8941092FF031092FE0398
:1012D0008FBF089520910004309101042817390729
:1012E00071F48091FF032091FE0390E0805C9F4F9A
:1012F000821B910960E470E00E94FA17089580E073
:1013000090E00895209100043091010428173907D6
:10131000B9F49091FE038091FF03981789F0E09152
:10132000FE03F0E0E25EFC4F80812091FE0330E09E
:101330002F5F3F4F2F7333272093FE0390E00895D4
:101340008FEF9FEF0895089580E090E00895CF9388
:10135000DF93EC01888D998DDC01ED91FC91068085
:10136000F781E02D099561E08A8D0E94BD0161E061
:101370008A8D0E94950864E670E080E090E00E940B
:10138000100281E0DF91CF9108950F931F93CF93C7
:10139000FC01828193818430910569F0833091054D
:1013A00079F08230910589F00197A1F040E452E490
:1013B0006FE070E013C040E054E264EF70E00EC0F4
:1013C00040E052E16AE770E009C040E059E06DE3B7
:1013D00070E004C040E854E86EE170E0A481B5819B
:1013E00086819781009741F08130910539F08230F4
:1013F000910531F0039731F090E005C094E003C00F
:1014000098E001C09CE080E000E012E12AE730E0D3
:10141000401751076207730740F4369527951795D3
:1014200007958F5F8630A1F787E021E02827119785
:1014300011F080E501C080E7322F3695932B982B71
:10144000908721702187CFB7F89480915E03811136
:1014500027C0E0EBF0E08491E4ECF0E09491E82F19
:10146000F0E0EE0FFF1FEC58FF4FA591B491EC9107
:10147000E92321F461E08AE00E94950861E08AE0B6
:101480000E94BD018CB580618CBD8CB580648CBD23
:1014900061E08DE00E94BD0161E08BE00E94BD0132
:1014A00080915E038F5F80935E03CFBFCF911F91CA
:1014B0000F9108958F929F92AF92BF92CF92DF9239
:1014C000EF92FF92CF93DF93EC016B010E944A02EF
:1014D0004B015C01E12CF12C0E944A02DC01CB01A2
:1014E00088199909AA09BB098C159D05AE05BF0588
:1014F00030F48A819B81039779F381E001C080E019
:10150000DF91CF91FF90EF90DF90CF90BF90AF90A1
:101510009F908F9008958F929F92AF92BF92CF929B
:10152000DF92EF92FF92CF93DF93EC016B010E9469
:101530004A024B015C01E12CF12C0E944A02DC01C1
:10154000CB0188199909AA09BB098C159D05AE051F
:10155000BF0550F4E881F9810280F381E02DCE01CE
:101560000995882351F301C080E0DF91CF91FF906E
:10157000EF90DF90CF90BF90AF909F908F900895A5
:101580008F929F92AF92BF92CF92DF92EF92FF9293
:10159000CF93DF93FC0126893789232B11F481E057
:1015A00038C0EC010E944A026B017C0189E0882E60
:1015B000912CA12CB12CE881F9810488F589E02DCA
:1015C000CE010995882359F30E944A02AB01BC0160
:1015D0004C195D096E097F098E899F89A0E0B0E0F2
:1015E00084179507A607B70798F00E944415A50130
:1015F00094010E945B159B01AC012F5F3F4F4F4F41
:101600005F4FA4E6B0E00E947A150E941002D3CF8B
:1016100080E0DF91CF91FF90EF90DF90CF90BF906F
:10162000AF909F908F90089580916003882361F020
:101630009FB7F8942091600380915F03213019F4E3
:101640008DBB9FBF08958FBF089520916003222313
:1016500079F02FB7F89430916003313039F43DB30D
:1016600030935F033DB33DBB2FBF02C020935F03A8
:101670008CBD9DBD089520E001972FEF8F3F92070D
:10168000D9F70895DF92EF92FF920F931F93CF93B4
:10169000DF93EC01298D3A8D2115310529F481E084
:1016A00090E09B838A835AC0162FDFB6F8948B8D07
:1016B00081FD4DC0CE010E943509898D9A8D059618
:1016C0000E943B0B8B8D98E0E92EF12C01E081FF0D
:1016D0001AC0802F812321F0CE010E94350906C057
:1016E000E989FA8990818889892B8083898D9A8DEF
:1016F0000E943B0B000F81E0E81AF10851F7CE0180
:101700000E9435091CC0802F812339F0E989FA89AC
:1017100090818889892B808303C0CE010E9435097E
:10172000898D9A8D0E943B0B000F81E0E81AF10829
:1017300051F7E989FA8990818889892B8083DFBEF6
:10174000898D9A8D0E943B0B21E030E007C0E9892A
:10175000FA8990818889892B8083AFCFC901DF9175
:10176000CF911F910F91FF90EF90DF900895EF922E
:10177000FF920F931F93CF93DF93C0910004D091FA
:101780000104209709F450C09B8DEE85FF858D855F
:1017900091FF04C09081892329F446C09081892358
:1017A00009F042C08B899C890E943B0B88E0E82E9F
:1017B000F12C10E001E08D899E890E943B0BEE85A3
:1017C000FF8590818D85892311F0102B03C0802F18
:1017D00080951823000F81E0E81AF10861F78F89DE
:1017E000988D0E943B0B8B8D81FD10958091FF039E
:1017F0002091FE0390E001968F73992730E08217C5
:10180000930779F0E091FF03F0E0E25EFC4F108374
:101810008091FF0390E001968F7399278093FF03D7
:1018200003C08B8D81608B8FDF91CF911F910F91C2
:10183000FF90EF9008951F920F920FB60F92112410
:101840002F933F934F935F936F937F938F939F93C8
:10185000AF93BF93EF93FF930E94B70BFF91EF916C
:10186000BF91AF919F918F917F916F915F914F91B8
:101870003F912F910F900FBE0F901F9018951F92C0
:101880000F920FB60F9211242F933F934F935F93B4
:101890006F937F938F939F93AF93BF93EF93FF9338
:1018A0000E94B70BFF91EF91BF91AF919F918F91E4
:1018B0007F916F915F914F913F912F910F900FBE4C
:1018C0000F901F9018951F920F920FB60F92112430
:1018D0002F933F934F935F936F937F938F939F9338
:1018E000AF93BF93EF93FF930E94B70BFF91EF91DC
:1018F000BF91AF919F918F917F916F915F914F9128
:101900003F912F910F900FBE0F901F901895CF927F
:10191000DF92EF92FF92CF93DF93EC0146E050E02D
:101920006DEB72E00E945A19892B51F484EC92E01D
:101930000E94A90D109201011092000160E014C0F4
:1019400046E050E064ED72E0CE010E945A19892B06
:1019500079F48AED92E00E94A90D81E090E09093E5
:1019600001018093000161E080E10E94950831C08F
:1019700047E050E069EE72E0CE010E945A19892BCF
:1019800041F582EF92E00E945B0DC884D984EA841D
:10199000FB84F7FC12C0C0920201D0920301E092D6
:1019A0000401F09205014AE0C701B6010E945D0DF5
:1019B0008CE891E00E94490D0CC08DE20E949E0DC2
:1019C00066277727CB016C197D098E099F094AE0AC
:1019D000EDCF80E090E0DF91CF91FF90EF90DF902E
:1019E000CF9008950F931F93CF93DF931F92CDB79E
:1019F000DEB78C01462F61E08FE049830E94BD0174
:101A000061E08FE00E9495084981B80188E194E087
:101A10000E94F70488E194E00E941C0961E08FE0D5
:101A20000E94BD0160E08FE00E94950880E090E098
:101A30000F90DF91CF911F910F910895CF92DF9278
:101A4000EF92FF920F931F93CF93DF936C017A0174
:101A50008B01C0E0D0E0CE15DF0589F0D8016D9193
:101A60008D01D601ED91FC910190F081E02DC60130
:101A70000995892B11F47E0102C02196ECCFC70194
:101A8000DF91CF911F910F91FF90EF90DF90CF905A
:101A90000895009769F0FC0101900020E9F7319763
:101AA000AF01481B590BBC0181E693E00C941E0D5D
:101AB00080E090E008950C94490D8F929F92AF9230
:101AC000BF920F931F93CF93DF93CDB7DEB7A1974C
:101AD0000FB6F894DEBF0FBECDBF19A2423008F496
:101AE0004AE08E010F5D1F4F842E912CA12CB12C4A
:101AF000A50194010E948D15E62FB901CA0101507C
:101B00001109EA3014F4E05D01C0E95CD801EC93FE
:101B1000232B242B252B61F7C8010E94490DA19688
:101B20000FB6F894DEBF0FBECDBFDF91CF911F91EE
:101B30000F91BF90AF909F908F900895E0916103B7
:101B4000F09162030190F081E02D682F81E693E02F
:101B50000994CF93DF930E94490DEC018CE891E04A
:101B60000E94490D8C0F9D1FDF91CF9108958F9298
:101B70009F92AF92BF92CF92DF92EF92FF92CF935C
:101B8000DF93A0910D04882311F03A2F01C030E0BB
:101B900080910E0490E0880F991F84569F4FC0904B
:101BA0001304D0901404E0901504F090160440E063
:101BB00050E0BA01FC01C591D49128812A23231356
:101BC0000FC04A015B012FEF821A920AA20AB20AE1
:101BD0004C155D056E057F0538F4B501A401EACF0B
:101BE000342F252FCB0104C030E020E080E090E0CE
:101BF000632F722FDF91CF91FF90EF90DF90CF9006
:101C0000BF90AF909F908F9008954F925F926F9288
:101C10007F928F929F92AF92BF92CF92DF92EF927C
:101C2000FF926B017C01B42E9B01AC010E94F51761
:101C3000882319F08DEF92E027C026013701E89440
:101C400077F82FEF3FEF4FE75FE7C301B2010E9444
:101C5000F51781110DC02FEF3FEF4FE75FE7C3018D
:101C6000B2010E942B1618161CF481E093E00CC000
:101C70002FEF3FEF4FE75FE4C701B6010E948317E4
:101C8000181684F485E093E0FF90EF90DF90CF90FA
:101C9000BF90AF909F908F907F906F905F904F908C
:101CA0000C94490D2FEF3FEF4FE75FECC701B601F2
:101CB0000E942B1687FDE6CF20E030E0A901C70186
:101CC000B6010E942B1687FF09C08DE20E949E0D6F
:101CD0004C01F7FAF094F7F8F09402C0812C912CA3
:101CE000A12C60E070E080E09FE3AB1441F020E0C5
:101CF00030E040E251E40E943016A394F6CF9B01FD
:101D0000AC01C701B6010E94BF152B013C010E9426
:101D1000A2166B017C010E94D1169B01AC01C3018C
:101D2000B2010E94BE152B013C014AE0C701B60179
:101D30000E945D0D7C01E80CF91CBB2029F08EE2AD
:101D40000E949E0DE80EF91EDB2CDD2021F120E023
:101D500030E040E251E4C301B2010E9488172B0138
:101D60003C010E94A2164B01A12CB12C4AE0C501F6
:101D7000B4010E945D0DE80EF91EC501B4010E9478
:101D8000D1169B01AC01C301B2010E94BE152B010B
:101D90003C01DA94DACFC701FF90EF90DF90CF904B
:101DA000BF90AF909F908F907F906F905F904F907B
:101DB00008958230B8F4E82FF0E0EE0FFF1FEA5FDD
:101DC000FE4F71836083813039F0809169008360B8
:101DD00080936900E89A0895809169008C608093EF
:101DE0006900E99A0895CF93DF93CDB7DEB7C35664
:101DF000D1400FB6F894DEBF0FBECDBF789484B546
:101E0000826084BD84B5816084BD85B5826085BDF6
:101E100085B5816085BD80916E00816080936E0084
:101E20001092810080918100826080938100809176
:101E30008100816080938100809180008160809327
:101E400080008091B10084608093B1008091B000E7
:101E500081608093B00080917A00846080937A00E2
:101E600080917A00826080937A0080917A0081600C
:101E700080937A0080917A00806880937A00109233
:101E8000C100E0917103F091720382E08083E091E0
:101E90006D03F0916E031082E0916F03F091700377
:101EA0008FEC808310927903E0917503F0917603B3
:101EB00086E08083E0917303F091740380818061F8
:101EC0008083E0917303F091740380818860808344
:101ED000E0917303F0917403808180688083E091C6
:101EE0007303F091740380818F7D80838FE891E08C
:101EF0000E94A90D68EE73E080E090E00E9410025D
:101F000060E08EE00E94BD0161E08FE00E94BD01B3
:101F100061E080E10E94BD0161E080E10E949508DE
:101F200083E10E94F90161E082E00E94BD0161E06D
:101F300082E00E94950860E082E00E9495086AE0D5
:101F400070E080E090E00E94100261E082E00E9478
:101F500095086AE070E080E090E00E94100288E15D
:101F600094E00E94A606C15ADE4F8883CF55D14027
:101F7000811109C080EB91E00E94A90D64E670E038
:101F800080E090E0EACF87EC91E00E94A90D44EE5A
:101F900066E088E194E00E94450440EC67E088E157
:101FA00094E00E94450440E068E088E194E00E94EB
:101FB000450411E0109336058BED91E00E945B0D16
:101FC00042E060E070EC84E694E40E94050E8CE848
:101FD00091E00E94490D6FE088E194E00E948D0439
:101FE00082E080931C0480932304109322047E01DA
:101FF0002FEBE21A2EEFF20AA7014C5F5F4FC05A97
:10200000DE4F59834883C056D140412C512C10E2F9
:10201000612E11E4712E8BEFC25ADE4F8883CE55AC
:10202000D1400E944A0200910204109103042091C1
:10203000040430910504DC01CB01801B910BA20B41
:10204000B30B009102011091030120910401309122
:10205000050180179107A207B30708F422C30E9465
:102060004A026093020470930304809304049093E3
:102070000504BCE1DB2EF7012D2D11922A95E9F71D
:102080008CE190E00E9428188C01FC011192DA94F6
:10209000E9F780911C0390911D036C01FFEFCF1AAB
:1020A000DF0AD0921D03C0921C0380910001909121
:1020B0000101892B21F061E080E10E949508C601B1
:1020C000DD0CAA0BBB0BF80180839183A283B38341
:1020D000F70180839183A283B38389EE91E00E940C
:1020E0005B0DF80180809180A280B380B7FE0CC0A8
:1020F0008DE20E949E0D66277727CB01681979092A
:102100008A099B094AE003C04AE0C501B4010E9464
:102110005D0D81EF91E00E945B0D0E944A0280906C
:102120000F0490901004A0901104B09012049B0131
:10213000AC01281939094A095B0949015A0130EDF6
:10214000831637E09306A104B10418F480911704B4
:10215000BCC060930F04709310048093110490939B
:10216000120410920A0410920904109208041092AA
:1021700007041092060461E080910B040E94950808
:102180006AEF70E080E090E00E94100261E08091D0
:102190000B040E94BD0160E080910B040E94950831
:1021A00064E170E080E090E00E941002F89461E049
:1021B00080910B040E9495088BE990E00197F1F75C
:1021C00062E080910B040E94BD0183E290E00197E0
:1021D000F1F780E00E94B70D672B682B692B21F483
:1021E000109217047894ACC081E00E94B70D672B61
:1021F000682B692BA9F3AE014F5F5F4F1A016A018B
:1022000080E00E94B70DF60160837183828393831F
:1022100081E00E94B70DF6016483758386839783FE
:10222000F8E0CF0ED11CCE14DF0451F7789480E093
:1022300090E0F101408151816281738184809580B9
:10224000A680B780411551056105710529F08114FB
:102250009104A104B10419F41092170471C0FC0197
:10226000A3E0F595E795AA95E1F7EA5FFB4F20819A
:10227000220F481559056A057B0508F42160208363
:102280000196F8E02F0E311C8832910591F62091CD
:102290000A0430E0409106048091070490E0840F26
:1022A000911D40910804840F911D40910904840FF1
:1022B000911D99272817390779F681E08093170433
:1022C000C15ADE4F8881CF55D1408823C9F1809112
:1022D0000C048B3029F0A0F18551823048F030C0D9
:1022E0006091080470E080E090E00E94D1162CC05C
:1022F00030900804632D6F7770E080E090E00E94DA
:10230000D31620E030E040E853E40E9488174B01E8
:102310005C016091090470E080E090E00E94D316B7
:102320009B01AC01C501B4010E94BF152DEC3CEC32
:102330004CEC5DE30E94881737FE06C0905804C03D
:1023400060E070E080EC9FE726E636E646EE5FE36D
:102350000E94881720E030E040E052E40E94BF1560
:10236000F801608B718B828B938BC05ADE4FE881B2
:10237000F981C056D140608371838283938386EF55
:1023800091E00E945B0DF8016089718982899389CF
:1023900042E00E94050EF8014482558266827782EF
:1023A0004086518662867386F70140865186628632
:1023B000738644865586668677868DEF91E00E9407
:1023C0005B0DF801648175818681978142E00E94EE
:1023D000050E85E092E00E945B0DF8016085718535
:1023E0008285938542E00E94050E812C912C540138
:1023F00031E3C32ED12CC501B4010E94A216862F51
:102400000E94F901BC01990F880B990B0E94D31609
:102410009B01AC01C501B4010E94BF154B015C01D9
:10242000F1E0CF1AD10839F72AE037ED43EA5CE34F
:102430000E94881729E238E240EA5BE30E9488178D
:10244000F8016487758786879787F701608B718BA2
:10245000828B938B8DE092E00E945B0DF801648586
:1024600075858685978542E00E94050E93E1C92E09
:10247000D12C812C912C54012BE3222E27E9322ED2
:1024800060E08AE00E9495088BE594E00197F1F7FF
:1024900081E10E94F9019C018BE990E00197F1F73D
:1024A00061E08AE0CE59DE4F2883C256D140CD5933
:1024B000DE4F3883C356D1400E949508C101019771
:1024C000F1F7C1010197F1F7CE59DE4F2881C256CD
:1024D000D140CD59DE4F3881C356D140B901330FB9
:1024E000880B990B0E94D31620E030E040EA5BE3B2
:1024F0000E9488172BE734E14EE25EE30E948817C2
:102500002DEC3CEC4CEC5DE30E94BE1520E030E08D
:102510004AE754E40E9488179B01AC01C501B4014D
:102520000E94BF154B015C01F1E0CF1AD10809F000
:10253000A7CF20E030E040EA51E40E943016F801D5
:10254000648B758B868B978BF701648B758B868B71
:10255000978B85E192E00E945B0DF8016489758993
:102560008689978942E00E94050E8EE00E94F9015B
:10257000BC01990F880B990B0E94D31620E030E024
:1025800040E85AE30E94881721EE3AE740EA50E417
:102590000E94881720E030E040E051E40E94881754
:1025A00021EE3AE740EA50E40E94301624E533E693
:1025B00045E552EC0E94881728E431EE4BED53E4D8
:1025C0000E94BF15F801608F718F828F938FF70182
:1025D000608F718F828F938F8DE192E00E945B0DEF
:1025E000F801608D718D828D938D42E00E94050E01
:1025F0008CE891E00E94490D8BEFD82E6CE170E0E1
:10260000C7010E94F20C68EE73E088E194E00E943A
:102610008B0A882399F3C35ADE4FD882CD55D14017
:10262000AE01435A5E4FBE016F5F7F4F88E194E079
:102630000E944F01882351F14CE150E0B701CE01D7
:1026400001960E945A19892B69F485E292E00E9452
:10265000A90D64E070E081E492E00E94F20C81E058
:1026600090E019C0CE0101960E94870C892B19F4C5
:1026700085E492E006C084E692E00E945B0DCE0104
:1026800001960E94A90D80E090E005C082E892E0EA
:102690000E94A90D06C0892B09F4B0CFC8010E9481
:1026A000BD1888E194E00E9486058823F1F0AE0110
:1026B000425A5E4FBE016F5F7F4F88E194E00E94F7
:1026C0004F01882391F084E992E00E945B0DCE01D6
:1026D00001960E94A90DCE0101960E94870C892BBC
:1026E00021F08FE992E00E94A90D0E94310893CC5D
:1026F000CF92DF92EF92FF92CF93DF931092640319
:102700001092630398EEC92E93E0D92EE12CF12CA0
:10271000C0926503D0926603E0926703F09268036B
:1027200088E291E0909362038093610385EC90E0EE
:1027300090936E0380936D0384EC90E0909370030C
:1027400080936F0380EC90E0909372038093710309
:1027500081EC90E0909374038093730382EC90E09B
:10276000909376038093750386EC90E090937803C2
:102770008093770310927A0310927B0310927C036C
:1027800010927D0310923F0510923E051092410574
:1027900010924005109243051092420580E5809307
:1027A0004405109245058AE391E090933D0580939E
:1027B0003C0510921B0410921A048FEF80931C04A6
:1027C0008093220480932304109224041092250401
:1027D000109228041092270410922A0410922904BF
:1027E00010922C0410922B0410922F0410922E049D
:1027F0002CE335E0309331042093300494E090933F
:10280000320420E631E0309319042093180410922A
:10281000350593E090933304809334048CE190E089
:102820000E942818EC011B821A82CC82DD82EE8283
:10283000FF828EE491E0998388831C8A1B8A1E8A1A
:102840001D8A188E1F8A1A8E198E8B8D8E7F8D7F12
:102850008B8F61E089E00E94BD0161E089E00E9408
:102860009508E3ECF0E0E491E88BEFEAF0E0E49126
:10287000F0E0EE0FFF1FEE56FF4F859194919A8B7B
:10288000898B60E088E00E94BD018B8D81FD04C0D2
:1028900061E088E00E94950888E08C87E2ECF0E037
:1028A000E491ED87EEEAF0E0E491F0E0EE0FFF1F37
:1028B000E456FF4F859194919F878E87D0933B0577
:1028C000C0933A051A8E198E188E1F8A1E8A1D8A89
:1028D0008EEC90E020E030E0FC014591559165914F
:1028E0007491403855426105710519F54CE0429FDD
:1028F000C001439F900D1124FC01EE52FF4F259122
:1029000034913C8B2B8BFC01EC52FF4F2591349181
:102910003E8B2D8BFC01EA52FF4F25913491388F6D
:102920002F8BFC01E852FF4F859194919A8F898FEC
:1029300009C02F5F3F4F0C962C30310509F0CCCFEA
:102940001C8A1B8A8F89988D892B71F08091680071
:1029500081608093680080916B00816080936B0040
:10296000898D9A8D0E943B0B809100049091010407
:102970008C179D0771F08B8D8E7F8B8F8FB7F8949E
:102980001092FF031092FE03D0930104C093000441
:102990008FBF87E080930B048BE080930C04E1EC05
:1029A000F0E0E491E0930D04EDEAF0E0E491E093CF
:1029B0000E0480E89EE3A0E0B0E0809313049093BF
:1029C0001404A0931504B09316040E944A02609365
:1029D0000204709303048093040490930504DF9130
:1029E000CF91FF90EF90DF90CF9008958F929F92BC
:1029F000AF92BF92CF92DF92EF92FF92CF93DF938D
:102A0000EC01688179818A819B816115710581055D
:102A1000910521F464E279ED8BE597E02DE133EF48
:102A200041E050E00E945B1549015A019B01AC0155
:102A3000A7EAB1E40E947A156B017C01ACEEB4EF19
:102A4000A50194010E948815DC01CB018C0D9D1D10
:102A5000AE1DBF1DB7FF03C00197A109B048888311
:102A60009983AA83BB83BC01CD019F77DF91CF916E
:102A7000FF90EF90DF90CF90BF90AF909F908F909E
:102A800008950E94F61408958AE091E00E94F614D9
:102A9000089560930A0170930B0180930C01909349
:102AA0000D010895FB01DC0102C005900D9241501B
:102AB0005040D8F70895052E97FB1EF400940E940D
:102AC000721557FD07D00E948D1507FC03D04EF4F8
:102AD0000C94721550954095309521953F4F4F4F6E
:102AE0005F4F089590958095709561957F4F8F4FBA
:102AF0009F4F08950E94AF15A59F900DB49F900D14
:102B0000A49F800D911D11240895B7FF0C947A1590
:102B10000E947A15821B930B0895A1E21A2EAA1B1C
:102B2000BB1BFD010DC0AA1FBB1FEE1FFF1FA2177D
:102B3000B307E407F50720F0A21BB30BE40BF50B7A
:102B4000661F771F881F991F1A9469F76095709503
:102B5000809590959B01AC01BD01CF010895A29F86
:102B6000B001B39FC001A39F700D811D1124911D61
:102B7000B29F700D811D1124911D08955058BB27DF
:102B8000AA270E94D6150C9449170E943B1738F0CB
:102B90000E94421720F039F49F3F19F426F40C9458
:102BA00038170EF4E095E7FB0C943217E92F0E94DA
:102BB0005A1758F3BA17620773078407950720F06E
:102BC00079F4A6F50C947C170EF4E0950B2EBA2F31
:102BD000A02D0B01B90190010C01CA01A001112423
:102BE000FF27591B99F0593F50F4503E68F11A16CF
:102BF000F040A22F232F342F4427585FF3CF469560
:102C000037952795A795F0405395C9F77EF41F1681
:102C1000BA0B620B730B840BBAF09150A1F0FF0F4B
:102C2000BB1F661F771F881FC2F70EC0BA0F621F37
:102C3000731F841F48F4879577956795B795F79527
:102C40009E3F08F0B0CF9395880F08F09927EE0FBC
:102C50009795879508950E940E1708F481E00895CE
:102C60000E9444160C9449170E94421758F00E9483
:102C70003B1740F029F45F3F29F00C9432175111B3
:102C80000C947D170C9438170E945A1768F39923F7
:102C9000B1F3552391F3951B550BBB27AA27621758
:102CA0007307840738F09F5F5F4F220F331F441F65
:102CB000AA1FA9F335D00E2E3AF0E0E832D0915099
:102CC0005040E695001CCAF72BD0FE2F29D0660F86
:102CD000771F881FBB1F261737074807AB07B0E8C9
:102CE00009F0BB0B802DBF01FF2793585F4F3AF0CF
:102CF0009E3F510578F00C9432170C947D175F3F7E
:102D0000E4F3983ED4F3869577956795B795F79554
:102D10009F5FC9F7880F911D9695879597F908953C
:102D2000E1E0660F771F881FBB1F621773078407D8
:102D3000BA0720F0621B730B840BBA0BEE1F88F7E7
:102D4000E09508950E94621788F09F5798F0B92F78
:102D50009927B751B0F0E1F0660F771F881F991FD0
:102D60001AF0BA95C9F714C0B13091F00E947C17DF
:102D7000B1E008950C947C17672F782F8827B85FEF
:102D800039F0B93FCCF3869577956795B395D9F728
:102D90003EF490958095709561957F4F8F4F9F4F32
:102DA0000895E89409C097FB3EF49095809570953E
:102DB00061957F4F8F4F9F4F9923A9F0F92F96E987
:102DC000BB279395F695879577956795B795F111FC
:102DD000F8CFFAF4BB0F11F460FF1BC06F5F7F4F99
:102DE0008F4F9F4F16C0882311F096E911C07723AB
:102DF00021F09EE8872F762F05C0662371F096E8B4
:102E0000862F70E060E02AF09A95660F771F881F82
:102E1000DAF7880F9695879597F90895990F000826
:102E2000550FAA0BE0E8FEEF16161706E807F9079C
:102E3000C0F012161306E407F50798F0621B730B37
:102E4000840B950B39F40A2661F0232B242B252BB8
:102E500021F408950A2609F4A140A6958FEF811D5B
:102E6000811D089597F99F6780E870E060E00895FC
:102E70009FEF80EC089500240A9416161706180692
:102E80000906089500240A9412161306140605066E
:102E90000895092E0394000C11F4882352F0BB0FFF
:102EA00040F4BF2B11F460FF04C06F5F7F4F8F4F62
:102EB0009F4F089557FD9058440F551F59F05F3F9D
:102EC00071F04795880F97FB991F61F09F3F79F04C
:102ED00087950895121613061406551FF2CF4695CE
:102EE000F1DF08C0161617061806991FF1CF869550
:102EF0007105610508940895E894BB276627772734
:102F0000CB0197F908950E940E1708F48FEF0895EA
:102F10000E949B170C9449170E943B1738F00E949F
:102F2000421720F0952311F00C9432170C943817A7
:102F300011240C947D170E945A1770F3959FC1F3CA
:102F4000950F50E0551F629FF001729FBB27F00D57
:102F5000B11D639FAA27F00DB11DAA1F649F6627AC
:102F6000B00DA11D661F829F2227B00DA11D621FFB
:102F7000739FB00DA11D621F839FA00D611D221FB5
:102F8000749F3327A00D611D231F849F600D211D99
:102F9000822F762F6A2F11249F5750409AF0F1F01C
:102FA00088234AF0EE0FFF1FBB1F661F771F881F85
:102FB00091505040A9F79E3F510580F00C94321774
:102FC0000C947D175F3FE4F3983ED4F38695779594
:102FD0006795B795F795E7959F5FC1F7FE2B880F2B
:102FE000911D9695879597F908950E940E17880B65
:102FF000990B089597FB072E16F4009407D077FDE0
:1030000009D00E940E1807FC05D03EF490958195DA
:103010009F4F0895709561957F4F0895AA1BBB1B24
:1030200051E107C0AA1FBB1FA617B70710F0A61BC8
:10303000B70B881F991F5A95A9F780959095BC01E9
:10304000CD010895EE0FFF1F0590F491E02D099436
:10305000CF93DF938230910510F482E090E0E0910D
:103060004805F091490520E030E0C0E0D0E030971D
:1030700011F14081518148175907C0F0481759078D
:1030800061F482819381209719F09B838A832BC0FE
:10309000909349058093480526C02115310519F004
:1030A0004217530718F49A01BE01DF01EF010280B5
:1030B000F381E02DDCCF2115310509F1281B390BF7
:1030C0002430310590F412968D919C9113976115DF
:1030D000710521F0FB019383828304C0909349051D
:1030E00080934805FD01329644C0FD01E20FF31FB5
:1030F00081939193225031092D933C933AC02091B2
:10310000460530914705232B41F420911001309161
:103110001101309347052093460520910E0130910F
:103120000F012115310541F42DB73EB74091120131
:1031300050911301241B350BE0914605F091470592
:10314000E217F307A0F42E1B3F0B2817390778F07E
:10315000AC014E5F5F4F2417350748F04E0F5F1FDD
:1031600050934705409346058193919302C0E0E058
:10317000F0E0CF01DF91CF9108950F931F93CF938C
:10318000DF93009709F48CC0FC01329713821282FE
:1031900000914805109149050115110581F4208120
:1031A0003181820F931F20914605309147052817E2
:1031B000390779F5F0934705E093460571C0D801CA
:1031C00040E050E0AE17BF0750F412962D913C91AD
:1031D0001397AD012115310509F1D901F3CF9D01F7
:1031E000DA013383228360817181860F971F8217F2
:1031F000930769F4EC0128813981260F371F2E5F70
:103200003F4F318320838A819B8193838283452B27
:1032100029F4F0934905E093480542C01396FC93C6
:10322000EE931297ED01499159919E01240F351F9C
:10323000E217F30771F480819181840F951F029644
:1032400011969C938E938281938113969C938E9377
:103250001297E0E0F0E0D80112968D919C911397BF
:10326000009719F0F8018C01F6CF8D919C9198018F
:103270002E5F3F4F820F931F2091460530914705E7
:103280002817390769F4309729F4109249051092EC
:10329000480502C013821282109347050093460529
:1032A000DF91CF911F910F91089581E090E0F89404
:1032B0000C947019FB01DC0104C08D910190801900
:1032C00021F441505040C8F7881B990B0895FB0129
:1032D000DC0102C001900D9241505040D8F7089592
:0432E000F894FFCF90
:1032E4000100A0860100FF00FF00010000000000B3
:1032F4004A0580000D0E131516191A1C23252629BC
:103304002A2C323400000000C8071E0D60070F0885
:1033140091076F07830700000000E108DD08D90862
:10332400C509C508F008EC08E80800000000420BD5
:103334001E0DA4095B096A09820941090000000005
:10334400A60686054F01F704000124091C095A0A40
:103354008B0AC00AB104140911090E090B090409E6
:1033640017090109FE08FB08F808CE040D0A0057E6
:10337400696C64666972652050726F6A6563742053
:103384005374617274696E672055702E2E2E2E0050
:103394004C6F526120726164696F20696E69742098
:1033A4006661696C6564004C6F5261207261646986
:1033B4006F20696E6974204F4B2100536574204659
:1033C40072657120746F3A20005061636B65745BA1
:1033D400005D203D200020546D703A20002C2043D5
:1033E4006F323A20002C20436F543A20002C204F97
:1033F4007A473A20002C2050504D3A20002C20428D
:1034040061743A20005061636B657473206D61745C
:1034140063682E2053656E64696E672041434B2EAA
:103424000041434B004641494C45442041434B3AFB
:103434002050726F63657373656420436F6D6D61B3
:103444006E642E005061636B6574206D69736D61E9
:103454007463682E204641494C45442041434B3A0D
:10346400200052656365697665206661696C6564F0
:103474002E2E2E0052454345495645443A200043DA
:103484006F6D6D616E64696E672050726F636573F2
:1034940073696E67204661696C65642E0066616EAF
:1034A4006F6666005475726E696E672046616E20A1
:1034B4004F46460066616E6F6E005475726E696E9B
:1034C400672046616E204F4E00696E7465727661A6
:1034D4006C00494E54455256414C3A20006E616E80
:0A34E40000696E66006F7666000056
:040000050080040271
:00000001FF
