:100000000C94B0000C94EE0F0C94C70F0C941F04CA
:100010000C94FB030C94D7030C94D8000C94D800D8
:100020000C94D8000C94D8000C94D8000C94F408CC
:100030000C94D8000C94D8000C94D8000C94D800E0
:100040000C947D0F0C94D8000C94590E0C94330E24
:100050000C94D8000C94D8000C94D8000C94D800C0
:100060000C94D8000C94D8007274009274004894D8
:100070000078C40000000000240027002A000000CF
:100080000008000201000003040700000000000057
:10009000000000000000250028002B0000000000E8
:1000A00023002600290004040404040404040202BA
:1000B00002020202030303030303010204081020E7
:1000C000408001020408102001020408102000C230
:1000D00001000100110011000C0000E100000A0005
:1000E0002500250021000096000019003900390084
:1000F0003600127A00001F0046004600440080705F
:10010000000022004D004D004A00004B0000360068
:10011000750075007200403800004A009C009C0089
:100120009900802500007200EC00EC00E900C0128C
:100130000000E900DA01DA01D70160090000D70107
:10014000B603B603B303B0040000B3036E076E0733
:100150006B072C010000DC0EC11DC11DBE1D8714E4
:1001600011241FBECFEFD8E0DEBFCDBF13E0A0E06B
:10017000B1E0E2EEF4E302C005900D92AE3AB107B1
:10018000D9F725E0AEEAB3E001C01D92AE3EB2075A
:10019000E1F710E0C0EBD0E004C02197FE010E941F
:1001A0002E19CF3AD107C9F70E942B130C946F1A5E
:1001B0000C9400008CB58F778CBD08958CB5806849
:1001C0008CBD08956EBD00000DB407FEFDCF8EB549
:1001D0000895FC01738362830895FC01778366832D
:1001E0000895FC017583648308950895089580E05F
:1001F0000895FC0181850895FC0180850895FC0126
:1002000087810895FC0186810895FC0140959585BC
:100210004923642B65870895FC0164870895FC01D8
:1002200063870895FC0162870895FC016483089543
:10023000FC016583089580E00895FC0122813381EB
:1002400023303105D1F381E00895CF93DF93EC01A2
:10025000E881F9810280F381E02DCE0109958823A0
:10026000B9F3DF91CF91089581E00895DC015196B3
:10027000ED91FC915297908150968C9180958923B5
:10028000808308952091A8043091A9042817390784
:1002900081F49091A6048091A704981751F0E09101
:1002A000A604F0E0E055FC4F8081082E000C990B6D
:1002B00008958FEF9FEF08952091A8043091A9042D
:1002C0002817390739F48FB7F8941092A7041092C1
:1002D000A6048FBF08952091A8043091A90428177F
:1002E000390771F48091A7042091A60490E0805C06
:1002F0009F4F821B910960E470E00E9406190895E7
:1003000080E090E008952091A8043091A904281776
:100310003907B9F49091A6048091A704981789F041
:10032000E091A604F0E0E055FC4F80812091A60406
:1003300030E02F5F3F4F2F7333272093A60490E0C8
:1003400008958FEF9FEF0895089580E090E008955D
:100350000F931F93CF93FC01828193818430910589
:1003600069F08330910579F08230910589F0019729
:10037000A1F040E452E46FE070E013C040E054E2CA
:1003800064EF70E00EC040E052E16AE770E009C03F
:1003900040E059E06DE370E004C040E854E86EE1ED
:1003A00070E0A481B58186819781009741F081300A
:1003B000910539F08230910531F0039731F090E0EA
:1003C00005C094E003C098E001C09CE080E000E03C
:1003D00012E12AE730E0401751076207730740F443
:1003E00036952795179507958F5F8630A1F787E09B
:1003F00021E02827119711F080E501C080E7322F16
:100400003695932B982B908721702187CFB7F8943E
:100410008091F003811127C0E0EBF0E08491E4ECDF
:10042000F0E09491E82FF0E0EE0FFF1FEC58FF4F43
:10043000A591B491EC91E92321F461E08AE00E9456
:10044000B40E61E08AE00E94E40E8CB580618CBD40
:100450008CB580648CBD61E08DE00E94E40E61E0AB
:100460008BE00E94E40E8091F0038F5F8093F00395
:10047000CFBFCF911F910F9108958F929F92AF920E
:10048000BF92CF92DF92EF92FF92CF93DF93EC0176
:100490006B010E94710F4B015C01E12CF12C0E9459
:1004A000710FDC01CB0188199909AA09BB098C15C8
:1004B0009D05AE05BF0530F48A819B81039779F3D2
:1004C00081E001C080E0DF91CF91FF90EF90DF905D
:1004D000CF90BF90AF909F908F9008958F929F92F2
:1004E000AF92BF92CF92DF92EF92FF92CF93DF93C2
:1004F000EC016B010E94710F4B015C01E12CF12CAE
:100500000E94710FDC01CB0188199909AA09BB0966
:100510008C159D05AE05BF0550F4E881F981028078
:10052000F381E02DCE010995882351F301C080E0CD
:10053000DF91CF91FF90EF90DF90CF90BF90AF9081
:100540009F908F9008958F929F92AF92BF92CF927B
:10055000DF92EF92FF92CF93DF93FC0126893789D8
:10056000232B11F481E038C0EC010E94710F6B0164
:100570007C0189E0882E912CA12CB12CE881F98195
:100580000488F589E02DCE010995882359F30E944E
:10059000710FAB01BC014C195D096E097F098E8991
:1005A0009F89A0E0B0E084179507A607B70798F0E9
:1005B0000E944916A50194010E9460169B01AC019E
:1005C0002F5F3F4F4F4F5F4FA4E6B0E00E947F1672
:1005D0000E94370FD3CF80E0DF91CF91FF90EF9053
:1005E000DF90CF90BF90AF909F908F90089520E0C4
:1005F00001972FEF8F3F9207D9F70895DF92EF927F
:10060000FF920F931F93CF93DF93EC01298D3A8DC7
:100610002115310529F481E090E09B838A835AC03B
:10062000162FDFB6F8948B8D81FD4DC0CE010E9450
:100630003601898D9A8D05960E94F7028B8D98E080
:10064000E92EF12C01E081FF1AC0802F812321F0D7
:10065000CE010E94360106C0E989FA899081888915
:10066000892B8083898D9A8D0E94F702000F81E08B
:10067000E81AF10851F7CE010E9436011CC0802F04
:10068000812339F0E989FA8990818889892B8083CF
:1006900003C0CE010E943601898D9A8D0E94F70217
:1006A000000F81E0E81AF10851F7E989FA89908191
:1006B0008889892B8083DFBE898D9A8D0E94F702FD
:1006C00021E030E007C0E989FA8990818889892B87
:1006D0008083AFCFC901DF91CF911F910F91FF9020
:1006E000EF90DF900895EF92FF920F931F93CF93B7
:1006F000DF93C091A804D091A904209709F450C0B9
:100700009B8DEE85FF858D8591FF04C090818923A7
:1007100029F446C09081892309F042C08B899C89C5
:100720000E94F70288E0E82EF12C10E001E08D89AC
:100730009E890E94F702EE85FF8590818D85892331
:1007400011F0102B03C0802F80951823000F81E03B
:10075000E81AF10861F78F89988D0E94F7028B8D56
:1007600081FD10958091A7042091A60490E0019648
:100770008F73992730E08217930779F0E091A704EF
:10078000F0E0E055FC4F10838091A70490E00196C3
:100790008F7399278093A70403C08B8D81608B8F03
:1007A000DF91CF911F910F91FF90EF9008951F92CD
:1007B0000F920FB60F9211242F933F934F935F9395
:1007C0006F937F938F939F93AF93BF93EF93FF9319
:1007D0000E947303FF91EF91BF91AF919F918F9111
:1007E0007F916F915F914F913F912F910F900FBE2D
:1007F0000F901F9018951F920F920FB60F92112411
:100800002F933F934F935F936F937F938F939F9318
:10081000AF93BF93EF93FF930E947303FF91EF9108
:10082000BF91AF919F918F917F916F915F914F9108
:100830003F912F910F900FBE0F901F9018951F9210
:100840000F920FB60F9211242F933F934F935F9304
:100850006F937F938F939F93AF93BF93EF93FF9388
:100860000E947303FF91EF91BF91AF919F918F9180
:100870007F916F915F914F913F912F910F900FBE9C
:100880000F901F9018952F923F924F925F926F9208
:100890007F928F929F92AF92BF92CF92DF92EF9210
:1008A000FF920F931F93CF93DF93CDB7DEB7CB5358
:1008B000D2400FB6F894DEBF0FBECDBF7E012FEB46
:1008C000E21A2EEFF20A87E1EBE2F1E0D7010190A4
:1008D0000D928A95E1F7F701779683EEDF011D927D
:1008E0008A95E9F78CE190E00E9434198C018CE143
:1008F000F80111928A95E9F78091AE039091AF03C8
:1009000001969093AF038093AE03092E000CAA0BBF
:10091000BB0BF80180839183A283B3838DE992E0BE
:100920000E940F13D8014D905D906D907C9077FEE2
:100930000CC08DE20E94EF1166277727CB01641966
:100940007509860997094AE003C04AE0C301B2016C
:100950000E94FA11F80180819181A281B381F7018F
:1009600080839183A283B3830E94710F4090B3046C
:100970005090B4046090B5047090B6049B01AC0133
:10098000241935094609570929013A0130ED431662
:1009900037E053066104710428F48091BB0481118F
:1009A000BDC0F5C06093B3047093B4048093B504E4
:1009B0009093B6041092AE041092AD041092AC0461
:1009C0001092AB041092AA0461E08091AF040E94DF
:1009D000B40E6AEF70E080E090E00E94370F61E0B3
:1009E0008091AF040E94E40E60E08091AF040E9409
:1009F000B40E64E170E080E090E00E94370FF8945C
:100A000061E08091AF040E94B40E8BE990E0019701
:100A1000F1F762E08091AF040E94E40E83E290E07F
:100A20000197F1F780E00E94A111672B682B692BD9
:100A300021F41092BB047894AAC081E00E94A11115
:100A4000672B682B692BA9F3AE014F5F5F4F3A010B
:100A50006A0180E00E94A111D6016D937D938D9370
:100A60009C93139781E00E94A111F6016483758322
:100A700086839783F8E0CF0ED11CCE14DF0449F7AC
:100A8000789420E030E0D3014D915D916D917C919F
:100A9000139714962D903D904D905C9017974115AB
:100AA00051056105710529F02114310441045104F7
:100AB00019F41092BB046BC0F901A3E0F595E7951A
:100AC000AA95E1F7E655FB4F8081880F4215530543
:100AD0006405750508F4816080832F5F3F4FB8E09F
:100AE0006B0E711C2832310571F62091AE0430E096
:100AF0004091AA048091AB0490E0840F911D409135
:100B0000AC04840F911D4091AD04840F911D992771
:100B10002817390771F681E08093BB048091B004F7
:100B20008B3029F0A0F18551823048F030C06091BF
:100B3000AC0470E080E090E00E94DD172CC0D09003
:100B4000AC046D2D6F7770E080E090E00E94DF17BD
:100B500020E030E040E853E40E9494182B013C016F
:100B60006091AD0470E080E090E00E94DF179B018F
:100B7000AC01C301B2010E94C4162DEC3CEC4CEC5C
:100B80005DE30E949418D7FE06C0905804C060E050
:100B900070E080EC9FE726E636E646EE5FE30E94D3
:100BA000941820E030E040E052E40E94C416F801BE
:100BB000608B718B828B938B85EB92E00E940F137D
:100BC000D80150966D917D918D919C91539742E003
:100BD0000E943B12F80180899189A289B389F701AB
:100BE00084839583A683B78380E090E00E94981069
:100BF000BC01990F880B990B0E94DF17D80114963E
:100C00006D937D938D939C9317978AEA92E00E944F
:100C10000F13F801648175818681978142E00E94FB
:100C20003B12F80184819581A681B781F701808705
:100C30009187A287B38781E090E00E949810BC0161
:100C4000990F880B990B0E94DF1720E030E048ECE9
:100C500052E40E94351720E030E040E151E40E9468
:100C6000941820E030E040EA50E40E94351720E07C
:100C700030E040E052E40E94C4160E94A717072EFD
:100C8000000C880B990B0E94DF17D80118966D9302
:100C90007D938D939C931B9781EB92E00E940F13A1
:100CA000F801608571858285938542E00E943B1240
:100CB000F80184819581A681B781F70184879587A2
:100CC000A687B78731E3C32ED12CC501B4010E949A
:100CD000AE17862F0E94200FBC01990F880B990B2D
:100CE0000E94DF179B01AC01C501B4010E94C4162C
:100CF0004B015C01F1E0CF1AD10839F72AE037ED5A
:100D000043EA5CE30E94941829E238E240EA5BE39C
:100D10000E949418D8011C966D937D938D939C939B
:100D20001F978DEB92E00E940F13F8016485758583
:100D30008685978542E00E943B12F801848595855F
:100D4000A685B785F701808B918BA28BB38B83E14E
:100D5000C82ED12C412C512C32019BE9292E312C4B
:100D60002BE3A22E27E9B22E60E08AE00E94B40EA7
:100D70008BE594E00197F1F781E10E94200F4C018F
:100D8000C1010197F1F761E08AE00E94B40EC5014C
:100D90000197F1F7C5010197F1F7B401990C880BA0
:100DA000990B0E94DF1720E030E040EA5BE30E94ED
:100DB00094182BE734E14EE25EE30E9494182DEC88
:100DC0003CEC4CEC5DE30E94C31620E030E04AE7C7
:100DD00054E40E9494189B01AC01C301B2010E942B
:100DE000C4162B013C01F1E0CF1AD10809F0BCCFA9
:100DF00020E030E040EA51E40E943517D8015496D3
:100E00006D937D938D939C9357978AEC92E00E940B
:100E10000F13F801648975898689978942E00E94D9
:100E20003B12F80184899589A689B789F701848BDB
:100E3000958BA68BB78B6AE070E080E090E00E9413
:100E4000370F8EE00E94200FBC01990F880B990B81
:100E50000E94DF1720E030E040E85AE30E94941837
:100E600021EE3AE740EA50E40E94941820E030E096
:100E700040E051E40E94941821EE3AE740EA50E441
:100E80000E9435174B015C0120E030E040EC50E45B
:100E90000E94301787FF04C081ED92E00E948A1003
:100EA000D80158968D929D92AD92BC925B978AEF35
:100EB00092E00E940F13F801608D718D828D938DE9
:100EC00042E00E943B1285E093E00E947810F80116
:100ED000808D918DA28DB38DF701808F918FA28F20
:100EE000B38F88E093E00E948A104AE064E070E0EB
:100EF00080E090E00E94FA1185E093E00E94781073
:100F000061E08EE00E94E40E61E08EE00E94B40E8B
:100F10004AEFB70180EC94E00E94930A80EC94E0E1
:100F20000E941D018BEFC55CDD4F8883CB53D240FF
:100F300068EE73E080EC94E00E946E028823D1F1A9
:100F4000AE01455C5D4FBE016F5F7F4F80EC94E06A
:100F50000E949108882359F188E193E00E940F13C1
:100F6000CE0101960E940F1384E293E00E940F13BA
:100F7000C090CE040C2C000CDD08EE08FF08F7FE34
:100F80000CC08DE20E94EF1166277727CB016C1908
:100F90007D098E099F094AE003C04AE0C701B601F6
:100FA0000E94FA1185E093E00E94781007C08DE25C
:100FB00093E002C08CE393E00E948A1061E08EE02F
:100FC0000E94E40E60E08EE00E94B40EC8010E9410
:100FD000C91968EE73E080E090E00E94370FC55CAD
:100FE000DD4F0FB6F894DEBF0FBECDBFDF91CF91BE
:100FF0001F910F91FF90EF90DF90CF90BF90AF9037
:101000009F908F907F906F905F904F903F902F9028
:1010100008958091F203882361F09FB7F89420919E
:10102000F2038091F103213019F48DBB9FBF089525
:101030008FBF08952091F203222379F02FB7F894FF
:101040003091F203313039F43DB33093F1033DB3C5
:101050003DBB2FBF02C02093F1038CBD9DBD089501
:101060009FB7F8948091F003882319F08150809302
:10107000F0038091F003811105C08CB58F7B8CBD8E
:101080001092F2039FBF0895CF93DF93FC0122815A
:1010900033812230310569F0EC01668D848D0E9428
:1010A000B40E60E08B8D0E94B40E82E090E09B83D2
:1010B0008A83DF91CF9108950F931F93CF93DF938E
:1010C000EC01162F0FB7F894E88DF98D8085918586
:1010D0000E941A0860E08A8D0E94B40E888D998D56
:1010E000DC01ED91FC91612F6F770190F081E02D93
:1010F0000995888D998DDC01ED91FC910190F0812D
:10110000E02D60E00995182F61E08A8D0E94B40EF1
:101110000E9409080FBF812FDF91CF911F910F917E
:101120000895CF92DF92EF92FF920F931F93CF9388
:10113000DF93EC017B018A01E881F9810280F38170
:10114000E02D0995D82E882339F1E114F104E1F05E
:1011500001151105C9F0CFB6F8942D8D30E023505C
:101160003109F801808190E0821793071CF09D8D72
:1011700094509083F801408150E0BE016E5D7F4F36
:10118000C7010E94661ACFBE8FB7F894FE01E35ED6
:10119000FE4F10821D8E8FBF8D2DDF91CF911F913D
:1011A0000F91FF90EF90DF90CF900895CF93DF9352
:1011B000EC01888D998DDC01ED91FC910680F78121
:1011C000E02D099561E08A8D0E94E40E61E08A8D30
:1011D0000E94B40E64E670E080E090E00E94370F59
:1011E00081E0DF91CF9108951F920F920FB60F9279
:1011F0001124CF92DF92EF92FF920F931F932F93C0
:101200003F934F935F936F937F938F939F93AF938E
:10121000BF93CF93DF93EF93FF93C091F303D091EC
:10122000F4038A819B81049709F0CAC02A8D30E0BB
:10123000F901E258FF4F8491F901E654FF4F049100
:10124000F901EA55FF4F1491112379F081110E94A1
:101250008B0EE12FF0E0EE0FFF1FE456FF4FA5913C
:10126000B491EC91E02381E009F480E081709D8DE0
:10127000892719F09AA19F5F9AA399A1891771F004
:101280009BA1903518F02DE130E002C02BE030E05A
:101290009BA1290F311D2BA389A303C08BA18C5EB9
:1012A0008BA38BA1803A08F4DDC08DA19EA19695F9
:1012B00087959EA38DA38AA1853028F08DA19EA13C
:1012C00098609EA38DA38BA1805A8BA31AA28CA198
:1012D000882309F468C08FA18F5F8FA38C3008F436
:1012E000C1C08DA19EA1982F9F73892F8695869549
:1012F000887028E0280F821749F0E82FF0E0EB5DB6
:10130000FD4F3081931719F08F5FF5CF80E020E11A
:10131000829FC00111242DA13EA196E0369527950C
:101320009A95E1F7422F369527953695279528709F
:1013300038E0320F231749F0E22FF0E0EB5DFD4F6C
:101340005081451719F02F5FF5CF20E0822BAE01B9
:1013500044595F4FFA019081DE01A559BF4F99238F
:10136000B1F0FA01908121E0290F20839E01290F1D
:10137000311DF90180A7FA0190818C91981788F0AE
:101380001CA281E08F8FCE010E9444080AC08C937A
:101390009C91973008F460C09C91943408F05CC034
:1013A000E0CF1FA25FC08DA19EA188339B4009F0B2
:1013B00059C081E08CA31FA2C459DF4F188252C0CC
:1013C0008A819B81039709F04DC08E0101591F4FFF
:1013D000F801808191E0980F9083811137C07E01E0
:1013E000FDE6EF0EF11CF7018081EF56FF4F908173
:1013F000891748F0CE010E9444088B899C89019688
:101400009C8B8B8B23C0FE01E80FF11DE059FF4F31
:10141000608170E06E01FEE6CF0ED11CF601808186
:1014200091E0980F908302C0759567958A95E2F7D1
:10143000617077278B8D0E94B40EF6018081863013
:1014400028F01082F70180818F5F8083F80180810E
:10145000883040F0108206C01CA28F8598890196C2
:10146000988B8F87FF91EF91DF91CF91BF91AF91D3
:101470009F918F917F916F915F914F913F912F91AC
:101480001F910F91FF90EF90DF90CF900F900FBEC4
:101490000F901F901895EF92FF920F931F93CF9389
:1014A000DF931F92CDB7DEB77C01162F0FB7F894EC
:1014B000DC015896ED91FC9159978085918549837F
:1014C0000E941A0860E0F701828D0E94B40ED701D5
:1014D00058968D919C915997DC01ED91FC91612F6B
:1014E00060680190F081E02D0995182FF701808D3B
:1014F000918DDC01ED91FC910190F081E02D49810D
:10150000642F099561E0F701828D0E94B40E0E945C
:1015100009080FBF812F0F90DF91CF911F910F917D
:10152000FF90EF900895BF92CF92DF92EF92FF92DB
:101530000F931F93CF93DF934C3F10F0E12C77C0B4
:10154000142F072FF62EEC01E881F9810484F5852C
:10155000E02D0995CE010E943910E881F9810288B9
:10156000F389E02DCE010995E82E882339F340E078
:101570006DE0CE010E944B0A4A8560E0CE010E94D8
:101580004B0A4B8560E0CE010E944B0A4C8560E01F
:10159000CE010E944B0A4D8560E0CE010E944B0AAD
:1015A000BFB6F894E88DF98D808591850E941A0860
:1015B00060E08A8D0E94B40E888D998DDC01ED91DA
:1015C000FC910190F081E02D60E80995CF2CD02EA0
:1015D000012F015068F0888D998DF60161916F019E
:1015E000DC01ED91FC910190F081E02D0995F1CFA6
:1015F00061E08A8D0E94B40E0E940908BFBE44E0DB
:10160000410F62E2CE010E944B0A8A819B810397BF
:1016100071F043E061E0CE010E944B0A40E460E4D7
:10162000CE010E944B0A83E090E09B838A838E2D3B
:10163000DF91CF911F910F91FF90EF90DF90CF90AE
:10164000BF900895CF93DF93FC0122813381233033
:101650003105B9F0EC0182819381049771F045E086
:1016600061E0CF010E944B0A40E060E4CE010E949D
:101670004B0A84E090E09B838A83C35EDE4F8881BF
:1016800001C080E0DF91CF910895DF92EF92FF9249
:101690000F931F93CF93DF93EC0162E10E945C08EC
:1016A0002A813B812430310519F4982F907A41F436
:1016B0002A813B8124303105A1F486FD20C011C070
:1016C0008F8598890196988B8F874FEF62E1CE01C5
:1016D000DF91CF911F910F91FF90EF90DF900C94CD
:1016E0004B0A2A813B812330310509F0A2C083FFD8
:1016F000A0C08B899C8901969C8B8B8BA4C063E1D5
:10170000CE010E945C08F82E60E1CE010E945C08C8
:10171000482F6DE0CE010E944B0ADFB6F894E88DA9
:10172000F98D808591850E941A0860E08A8D0E945B
:10173000B40E888D998DDC01ED91FC910190F081C2
:10174000E02D60E009958E01025E1F4FEF2CE00E48
:10175000E01671F0888D998DDC01ED91FC9101907E
:10176000F081E02D60E00995F80181938F01F0CFC1
:1017700061E08A8D0E94B40E0E940908DFBEFD8ED2
:101780004FEF62E1CE010E944B0A69E1CE010E9457
:101790005C088E01015E1E4F87FD8D5F85958595E6
:1017A000D8018C936AE1CE010E945C088E87F80113
:1017B00090818E8597FF03C0890F8E8709C0F0E165
:1017C0008F02C00111246FE070E00E9406196E873D
:1017D000FE01E25EFE4F8081882319F08E858D59CF
:1017E00002C08E85845A8E878D8DFE01E35EFE4F8A
:1017F000843090F08E8D8E838F8D8F8388A1888723
:1018000089A189878D8181110CC09E818C81981757
:1018100041F08E818F3F29F08081882309F455CFD4
:1018200012C089899A8901969A8B898B81E080837D
:10183000F3CF2A813B812530310509F046CF82FF65
:1018400044CF81708D8BCE010E9439103ECF8091A4
:10185000FA039091FB03009711F00C94450B089547
:101860008091F8039091F903009711F00C94450BC7
:1018700008958091F6039091F703009711F00C946E
:10188000450B0895EF92FF920F931F93CF93DF9331
:1018900000D01F92CDB7DEB78C010E94D608F82E7B
:1018A000882341F1F801838D823019F0833011F5DE
:1018B00023C0E12C40E861E0C8010E944B0A6AE0C5
:1018C00070E080E090E00E94370F61E0C8010E9464
:1018D0005C088038A1F061E0C8010E945C08682FB4
:1018E00070E080E090E040E10E94FA1185E093E032
:1018F0000E947810F12C75C0EE24E394DBCF60E0F9
:10190000F801838D0E94E40EF801848D8F3F49F425
:101910008091F503843070F791E0980F9093F50370
:10192000848FF801848DE82FF0E0EE0FFF1FEA505E
:10193000FC4F11830083811103C069E37CE009C07F
:10194000813019F460E37CE004C0823099F667E2EC
:101950007CE08E2D0E94111340E06EE0C8010E94D1
:101960004B0A40E06FE0C8010E944B0AC8010E9488
:10197000391043E050E068E670E0CE0101960E9425
:10198000571649816DE1C8010E944B0A4A816EE1F8
:10199000C8010E944B0A4B8166E2C8010E944B0AB3
:1019A00040E060E2C8010E944B0A48E061E2C801E1
:1019B0000E944B0A4CE666E0C8010E944B0A40E8D0
:1019C00067E0C8010E944B0A40E068E0C8010E943D
:1019D0004B0AF801E25EFE4F10826DE0C8010E94E2
:1019E00015108F2D0F900F900F90DF91CF911F91B9
:1019F0000F91FF90EF900895FC01538D448D252F9A
:101A000030E0842F90E0821B930B541710F0CF9698
:101A1000089501970895FC01918D828D981761F0CA
:101A2000828DDF01A80FB11D5D968C91928D9F5F15
:101A30009F73928F90E008958FEF9FEF0895FC01C0
:101A4000918D828D981731F0828DE80FF11D858D73
:101A500090E008958FEF9FEF0895FC01918D228D06
:101A6000892F90E0805C9F4F821B91098F7399278B
:101A7000089589E094E00E942D0D21E0892B09F45E
:101A800020E0822F0895FC01848DDF01A80FB11D95
:101A9000A35ABF4F2C91848D90E001968F739927A4
:101AA000848FA689B7892C93A089B1898C91806491
:101AB0008C93938D848D981306C00288F389E02D52
:101AC00080818F7D80830895EF92FF920F931F9303
:101AD000CF93DF93EC0181E0888F9B8D8C8D9813E1
:101AE00005C0E889F989808185FD24C0F62E0B8D1B
:101AF00010E00F5F1F4F0F731127E02E8C8DE8123F
:101B00000CC00FB607FCFACFE889F989808185FF00
:101B1000F5CFCE010E94430DF1CF8B8DFE01E80F72
:101B2000F11DE35AFF4FF0820B8FEA89FB89808118
:101B3000806207C0EE89FF896083E889F989808126
:101B40008064808381E090E0DF91CF911F910F91BD
:101B5000FF90EF900895CF93DF93EC01888D882359
:101B6000C9F0EA89FB89808185FD05C0A889B9890A
:101B70008C9186FD0FC00FB607FCF5CF808185FFE5
:101B8000F2CFA889B9898C9185FFEDCFCE010E9453
:101B9000430DE7CFDF91CF91089580E090E0892B4E
:101BA00029F00E94390D81110C94000008953FB76F
:101BB000F8948091010490910204A0910304B091E3
:101BC000040426B5A89B05C02F3F19F00196A11D5E
:101BD000B11D3FBFBA2FA92F982F8827820F911DC3
:101BE000A11DB11DBC01CD0142E0660F771F881F0A
:101BF000991F4A95D1F7089508958BEF0895CF93D3
:101C0000DF93EC018A819B81059771F047E061E0E9
:101C1000CE010E944B0A40E860E4CE010E944B0ACC
:101C200085E090E09B838A838A819B810597E1F31D
:101C30008D89DF91CF910895CF93DF93FC012281AD
:101C400033812130310549F0EC0140E061E00E9430
:101C50004B0A81E090E09B838A8381E0DF91CF9102
:101C600008950E94611A1F920F920FB60F921124CD
:101C70002F933F934F935F936F937F938F939F9394
:101C8000AF93BF93EF93FF9389E094E00E94430DDD
:101C9000FF91EF91BF91AF919F918F917F916F9144
:101CA0005F914F913F912F910F900FBE0F901F901A
:101CB00018951F920F920FB60F9211242F938F93A6
:101CC0009F93EF93FF93E0911904F0911A048081A0
:101CD000E0911F04F091200482FD12C09081809158
:101CE00022048F5F8F7320912304821751F0E091BB
:101CF0002204F0E0E75FFB4F958F8093220401C040
:101D00008081FF91EF919F918F912F910F900FBE46
:101D10000F901F901895833081F028F4813099F04E
:101D20008230A1F008958730A9F08830B9F084306E
:101D3000D1F4809180008F7D03C0809180008F77E7
:101D400080938000089584B58F7702C084B58F7D1D
:101D500084BD08958091B0008F7703C08091B0005A
:101D60008F7D8093B00008951F93CF93DF93282F2A
:101D700030E0F901E258FF4F8491F901E654FF4F3A
:101D8000D491F901EA55FF4FC491CC23C9F0162F25
:101D900081110E948B0EEC2FF0E0EE0FFF1FEE562C
:101DA000FF4FA591B4918FB7F894111105C09C9184
:101DB000ED2FE095E92302C0EC91ED2BEC938FBF62
:101DC000DF91CF911F910895CF93DF9390E0FC01B5
:101DD000E654FF4F2491FC01EA55FF4F849188237C
:101DE00061F190E0880F991FFC01EC58FF4FC591FD
:101DF000D491FC01EE56FF4FA591B491611109C039
:101E00009FB7F8948881209582238883EC912E23B4
:101E10000BC0623061F49FB7F8943881822F8095AF
:101E200083238883EC912E2B2C939FBF06C08FB702
:101E3000F894E8812E2B28838FBFDF91CF910895EE
:101E40008E3008F08E508770806480937C00809183
:101E50007A00806480937A0080917A0086FDFCCFBE
:101E6000809178002091790090E0922B08958F92D4
:101E70009F92AF92BF92CF92DF92EF92FF926B014F
:101E80007C010E94D70D4B015C01C114D104E10417
:101E9000F104F1F00E94D70DDC01CB0188199909FA
:101EA000AA09BB09883E9340A105B10570F321E062
:101EB000C21AD108E108F10888EE880E83E0981E66
:101EC000A11CB11CC114D104E104F10419F7DDCF48
:101ED000FF90EF90DF90CF90BF90AF909F908F904A
:101EE00008952FB7F8946091FD037091FE038091DF
:101EF000FF03909100042FBF08951F920F920FB619
:101F00000F9211242F933F938F939F93AF93BF937F
:101F10008091FD039091FE03A091FF03B091000416
:101F20003091FC0323E0230F2D3720F40196A11DEF
:101F3000B11D05C026E8230F0296A11DB11D2093F7
:101F4000FC038093FD039093FE03A093FF03B093E3
:101F500000048091010490910204A0910304B091C7
:101F600004040196A11DB11D809301049093020405
:101F7000A0930304B0930404BF91AF919F918F91FC
:101F80003F912F910F900FBE0F901F9018951F92A9
:101F90000F920FB60F9211242F933F934F935F939D
:101FA0006F937F938F939F93AF93BF93EF93FF9321
:101FB000E0910201F09103010995FF91EF91BF912A
:101FC000AF919F918F917F916F915F914F913F91D1
:101FD0002F910F900FBE0F901F9018951F920F9288
:101FE0000FB60F9211242F933F934F935F936F93EC
:101FF0007F938F939F93AF93BF93EF93FF93E09162
:102000000001F09101010995FF91EF91BF91AF910E
:102010009F918F917F916F915F914F913F912F9100
:102020000F900FBE0F901F9018950F931F93CF9393
:102030008C01C62F68312CF465305CF0653114F4E6
:1020400009C0C7E147E06DE4C8010E944B0AC350D4
:1020500006C0C5E044E06DE4C8010E944B0A4BEFA6
:102060004C0F406869E0C801CF911F910F910C940B
:102070004B0ACF93DF93FC0122813381223031055B
:1020800049F0EC0141E061E00E944B0A82E090E0FF
:102090009B838A83DF91CF910895CF92DF92EF9255
:1020A000FF920F931F93CF93DF936C017A018B0103
:1020B000C0E0D0E0CE15DF0589F0D8016D918D012B
:1020C000D601ED91FC910190F081E02DC6010995BA
:1020D000892B11F47E0102C02196ECCFC701DF915C
:1020E000CF911F910F91FF90EF90DF90CF900895C7
:1020F000009769F0FC0101900020E9F73197AF01EA
:10210000481B590BBC0189E094E00C944D1080E011
:1021100090E00895CF93DF930E947810EC0185E062
:1021200093E00E9478108C0F9D1FDF91CF9108954E
:102130008F929F92AF92BF92CF92DF92EF92FF92D7
:102140000F931F93CF93DF93CDB7DEB727970FB6CB
:10215000F894DEBF0FBECDBF8C0125E1E22EF12C3D
:102160008091BE049091BF04DC01ED91FC9100844C
:10217000F185E02D0995892B09F062C00130110528
:1021800051F19CF40115110509F0C3C08091BE0402
:102190009091BF04DC01ED91FC910280F381E02D70
:1021A00047E050E06AE171E033C00230110511F1FF
:1021B0000330110509F0ADC08091BE049091BF04B9
:1021C000DC01ED91FC910280F381E02D48E050E0CC
:1021D00064E071E01DC08091BE049091BF04DC01F9
:1021E000ED91FC910280F381E02D47E050E063E146
:1021F00071E00EC08091BE049091BF04DC01ED91AE
:10220000FC910280F381E02D47E050E06CE071E04A
:102210000995B1E0EB1AF10809F47EC00E94710F34
:102220004B015C010E94710FDC01CB0188199909F7
:10223000AA09BB0982389105A105B1059CF390CF8D
:102240008091BE049091BF04DC01ED91FC9100846B
:10225000F185E02D09958091BE049091BF04DC01C9
:10226000ED91FC910084F185E02D0995079749F5E2
:10227000FE0131967F016E01F8E0CF0ED11C8091F6
:10228000BE049091BF04DC01ED91FC910284F385C2
:10229000E02D0995F70181937F01EC15FD0579F794
:1022A000CC80D12CDC2CCC248D81C80ED11C0D2CE3
:1022B000000CEE08FF080FB6F894DEBF0FBECDBFCE
:1022C00026C084EDC82E8EEFD82EEE24EA94FE2C84
:1022D0008091BE049091BF04DC01ED91FC910084DB
:1022E000F185E02D0995181619068CF4FFEFCF1A29
:1022F000DF0AEF0AFF0A8091BE049091BF04DC015F
:10230000ED91FC910284F385E02D0995E1CFC601A2
:1023100005C080E09FEF02C085E39FEF27960FB6D0
:10232000F894DEBF0FBECDBFDF91CF911F910F910B
:10233000FF90EF90DF90CF90BF90AF909F908F90E5
:1023400008958F929F92AF92BF92CF92DF92EF92B9
:10235000FF92CF93DF93A091B104882311F03A2F1D
:1023600001C030E08091B20490E0880F991F84563C
:102370009F4FC090B704D090B804E090B904F0909B
:10238000BA0440E050E0BA01FC01C591D491288123
:102390002A2323130FC04A015B012FEF821A920AEE
:1023A000A20AB20A4C155D056E057F0538F4B50129
:1023B000A401EACF342F252FCB0104C030E020E068
:1023C00080E090E0632F722FDF91CF91FF90EF902C
:1023D000DF90CF90BF90AF909F908F900895E09145
:1023E0000904F0910A040190F081E02D682F89E042
:1023F00094E009948F929F92AF92BF920F931F9394
:10240000CF93DF93CDB7DEB7A1970FB6F894DEBFB9
:102410000FBECDBF19A2423008F44AE08E010F5D15
:102420001F4F842E912CA12CB12CA50194010E9448
:102430009216E62FB901CA0101501109EA3014F4CD
:10244000E05D01C0E95CD801EC93232B242B252B04
:1024500061F7C8010E947810A1960FB6F894DEBF0C
:102460000FBECDBFDF91CF911F910F91BF90AF9065
:102470009F908F9008954F925F926F927F928F926C
:102480009F92AF92BF92CF92DF92EF92FF926B0139
:102490007C01B42E9B01AC010E940119882319F024
:1024A00082EA93E027C026013701E89477F82FEFFE
:1024B0003FEF4FE75FE7C301B2010E9401198111AD
:1024C0000DC02FEF3FEF4FE75FE7C301B2010E945E
:1024D000301718161CF486EA93E00CC02FEF3FEF7C
:1024E0004FE75FE4C701B6010E948F18181684F405
:1024F0008AEA93E0FF90EF90DF90CF90BF90AF908B
:102500009F908F907F906F905F904F900C94781079
:102510002FEF3FEF4FE75FECC701B6010E94301786
:1025200087FDE6CF20E030E0A901C701B6010E9497
:10253000301787FF09C08DE20E94EF114C01F7FAB6
:10254000F094F7F8F09402C0812C912CA12C60E05B
:1025500070E080E09FE3AB1441F020E030E040E227
:1025600051E40E943517A394F6CF9B01AC01C7013B
:10257000B6010E94C4162B013C010E94AE176B01EC
:102580007C010E94DD179B01AC01C301B2010E94D6
:10259000C3162B013C014AE0C701B6010E94FA11A3
:1025A0007C01E80CF91CBB2029F08EE20E94EF119F
:1025B000E80EF91EDB2CDD2021F120E030E040E2C6
:1025C00051E4C301B2010E9494182B013C010E9406
:1025D000AE174B01A12CB12C4AE0C501B4010E94F9
:1025E000FA11E80EF91EC501B4010E94DD179B0126
:1025F000AC01C301B2010E94C3162B013C01DA9465
:10260000DACFC701FF90EF90DF90CF90BF90AF90EF
:102610009F908F907F906F905F904F9008950C9453
:1026200078108230B8F4E82FF0E0EE0FFF1FE05092
:10263000FF4F71836083813039F08091690083603E
:1026400080936900E89A0895809169008C60809376
:102650006900E99A0895789484B5826084BD84B550
:10266000816084BD85B5826085BD85B5816085BD8D
:1026700080916E00816080936E0010928100809145
:1026800081008260809381008091810081608093CD
:102690008100809180008160809380008091B100F2
:1026A00084608093B1008091B00081608093B0001D
:1026B00080917A00846080937A0080917A008260B1
:1026C00080937A0080917A00816080937A00809173
:1026D0007A00806880937A001092C100E09119041A
:1026E000F0911A0482E08083E0911504F0911604C1
:1026F0001082E0911704F09118048FEC80831092FF
:102700002104E0911D04F0911E0486E08083E09195
:102710001B04F0911C04808180618083E0911B0484
:10272000F0911C04808188608083E0911B04F0910B
:102730001C04808180688083E0911B04F0911C045C
:1027400080818F7D808388E493E00E948A1068EE08
:1027500073E080E090E00E94370F60E08EE00E941E
:10276000E40E61E08FE00E94E40E61E084E10E94EB
:10277000E40E61E084E10E94E40EE2E9F0E0E4911D
:10278000E33011F150F4E130D1F0E230D9F584B505
:10279000806284BD81E088BD39C0E73009F1E8304E
:1027A00041F1E43079F5809180008062809380006F
:1027B00081E090E090938B0080938A0027C084B5DD
:1027C000806884BDE7BD22C08091800080688093CE
:1027D000800081E090E0909389008093880016C08B
:1027E0008091B00080688093B00081E08093B30056
:1027F0000DC08091B00080628093B00081E0809332
:10280000B40004C060E084E10E94B40E83E10E9441
:10281000200FBC01990F880B990B0E94DF1729E24A
:1028200038E240EA5BE30E94941825E931EF49E37E
:1028300052E40E94941860930504709306048093F8
:1028400007049093080461E082E00E94E40E61E0D6
:1028500082E00E94B40E60E082E00E94B40E6AE062
:1028600070E080E090E00E94370F61E082E00E941B
:10287000B40E6AE070E080E090E00E94370F80ECD8
:1028800094E00E94420C811109C089E693E00E9405
:102890008A1064E670E080E090E0EFCF80E893E09B
:1028A0000E948A1044EE66E080EC94E00E944B0A9D
:1028B00040EC67E080EC94E00E944B0A40E068E066
:1028C00080EC94E00E944B0AC1E0C093DE0584E9ED
:1028D00093E00E940F1342E060E070EC84E694E421
:1028E0000E943B1285E093E00E9478106FE080EC3C
:1028F00094E00E94151082E08093C4048093CB047E
:10290000C093CA040E9443040E94CD0DFBCFCF9216
:10291000DF92EF92FF92CF93DF9310920C0410920C
:102920000B0498EEC92E93E0D92EE12CF12CC09225
:102930000D04D0920E04E0920F04F092100489E38B
:1029400092E090930A048093090485EC90E09093C0
:1029500016048093150484EC90E0909318048093FF
:10296000170480EC90E090931A048093190481EC92
:1029700090E090931C0480931B0482EC90E0909371
:102980001E0480931D0486EC90E0909320048093B5
:102990001F04109222041092230410922404109217
:1029A00025041092E3051092E2051092E5051092BD
:1029B000E4051092E7051092E60580E58093E805AE
:1029C0001092E9058BE492E09093E1058093E00595
:1029D0001092C3041092C2048FEF8093C4048093BA
:1029E000CA048093CB041092CC041092CD041092B0
:1029F000D0041092CF041092D2041092D1041092FD
:102A0000D4041092D3041092D7041092D60420EE6E
:102A100035E03093D9042093D80494E09093DA04FD
:102A200021E732E03093C1042093C0041092DD0509
:102A300093E09093DB048093DC048CE190E00E94AF
:102A40003419EC011B821A82CC82DD82EE82FF8275
:102A50008FE592E0998388831C8A1B8A1E8A1D8ACF
:102A6000188E1F8A1A8E198E8B8D8E7F8D7F8B8F7D
:102A700061E089E00E94E40E61E089E00E94B40E0A
:102A8000E3ECF0E0E491E88BEFEAF0E0E491F0E0D1
:102A9000EE0FFF1FEE56FF4F859194919A8B898B15
:102AA00060E088E00E94E40E8B8D81FD04C061E04F
:102AB00088E00E94B40E88E08C87E2ECF0E0E491BC
:102AC000ED87EEEAF0E0E491F0E0EE0FFF1FE45650
:102AD000FF4F859194919F878E87D093BF04C093B9
:102AE000BE041A8E198E188E1F8A1E8A1D8A8EECBD
:102AF00090E020E030E0FC014591559165917491A2
:102B0000403855426105710519F54CE0429FC001FE
:102B1000439F900D1124FC01EE52FF4F25913491FB
:102B20003C8B2B8BFC01EC52FF4F259134913E8B5B
:102B30002D8BFC01EA52FF4F25913491388F2F8B5A
:102B4000FC01E852FF4F859194919A8F898F09C0BB
:102B50002F5F3F4F0C962C30310509F0CCCF1C8AEB
:102B60001B8A8F89988D892B71F080916800816014
:102B70008093680080916B00816080936B00898DE9
:102B80009A8D0E94F7028091A8049091A9048C1755
:102B90009D0771F08B8D8E7F8B8F8FB7F89410927D
:102BA000A7041092A604D093A904C093A8048FBFD1
:102BB00087E08093AF048BE08093B004E1ECF0E019
:102BC000E491E093B104EDEAF0E0E491E093B20423
:102BD00080E89EE3A0E0B0E08093B7049093B8044F
:102BE000A093B904B093BA04DF91CF91FF90EF9016
:102BF000DF90CF9008958F929F92AF92BF92CF9225
:102C0000DF92EF92FF92CF93DF93EC01688179819D
:102C10008A819B81611571058105910521F464E22A
:102C200079ED8BE597E02DE133EF41E050E00E9434
:102C3000601649015A019B01AC01A7EAB1E40E9468
:102C40007F166B017C01ACEEB4EFA50194010E94EC
:102C50008D16DC01CB018C0D9D1DAE1DBF1DB7FF78
:102C600003C00197A109B04888839983AA83BB83D5
:102C7000BC01CD019F77DF91CF91FF90EF90DF9066
:102C8000CF90BF90AF909F908F9008950E94FB15BA
:102C9000089581E291E00E94FB150895609321015F
:102CA0007093220180932301909324010895FB01E6
:102CB000DC0102C005900D9241505040D8F70895B4
:102CC000052E97FB1EF400940E94771657FD07D03F
:102CD0000E94921607FC03D04EF40C947716509580
:102CE0004095309521953F4F4F4F5F4F08959095F8
:102CF0008095709561957F4F8F4F9F4F08950E94EB
:102D0000B416A59F900DB49F900DA49F800D911DAA
:102D100011240895B7FF0C947F160E947F16821B22
:102D2000930B0895A1E21A2EAA1BBB1BFD010DC037
:102D3000AA1FBB1FEE1FFF1FA217B307E407F5076B
:102D400020F0A21BB30BE40BF50B661F771F881F47
:102D5000991F1A9469F760957095809590959B01DD
:102D6000AC01BD01CF010895A29FB001B39FC00186
:102D7000A39F700D811D1124911DB29F700D811DA7
:102D80001124911D08955058BB27AA270E94DB16D5
:102D90000C9455180E94471838F00E944E1820F0E5
:102DA00039F49F3F19F426F40C9444180EF4E0957E
:102DB000E7FB0C943E18E92F0E94661858F3BA17E7
:102DC000620773078407950720F079F4A6F50C9441
:102DD00088180EF4E0950B2EBA2FA02D0B01B90127
:102DE00090010C01CA01A0011124FF27591B99F081
:102DF000593F50F4503E68F11A16F040A22F232F8D
:102E0000342F4427585FF3CF469537952795A795DC
:102E1000F0405395C9F77EF41F16BA0B620B730B83
:102E2000840BBAF09150A1F0FF0FBB1F661F771FF4
:102E3000881FC2F70EC0BA0F621F731F841F48F4A9
:102E4000879577956795B795F7959E3F08F0B0CF32
:102E50009395880F08F09927EE0F97958795089519
:102E60000E941A1808F481E008950E9449170C94F2
:102E700055180E944E1858F00E94471840F029F447
:102E80005F3F29F00C943E1851110C9489180C9452
:102E900044180E94661868F39923B1F3552391F3FF
:102EA000951B550BBB27AA2762177307840738F0B9
:102EB0009F5F5F4F220F331F441FAA1FA9F335D016
:102EC0000E2E3AF0E0E832D091505040E695001CCA
:102ED000CAF72BD0FE2F29D0660F771F881FBB1F84
:102EE000261737074807AB07B0E809F0BB0B802D62
:102EF000BF01FF2793585F4F3AF09E3F510578F08E
:102F00000C943E180C9489185F3FE4F3983ED4F378
:102F1000869577956795B795F7959F5FC9F7880F61
:102F2000911D9695879597F90895E1E0660F771FB3
:102F3000881FBB1F621773078407BA0720F0621B44
:102F4000730B840BBA0BEE1F88F7E09508950E946F
:102F5000AE176894B1110C94891808950E946E18E8
:102F600088F09F5798F0B92F9927B751B0F0E1F04A
:102F7000660F771F881F991F1AF0BA95C9F714C0FA
:102F8000B13091F00E948818B1E008950C9488182F
:102F9000672F782F8827B85F39F0B93FCCF3869533
:102FA00077956795B395D9F73EF490958095709590
:102FB00061957F4F8F4F9F4F0895E89409C097FB0D
:102FC0003EF490958095709561957F4F8F4F9F4F00
:102FD0009923A9F0F92F96E9BB279395F695879544
:102FE00077956795B795F111F8CFFAF4BB0F11F407
:102FF00060FF1BC06F5F7F4F8F4F9F4F16C08823AE
:1030000011F096E911C0772321F09EE8872F762FE3
:1030100005C0662371F096E8862F70E060E02AF024
:103020009A95660F771F881FDAF7880F9695879510
:1030300097F90895990F0008550FAA0BE0E8FEEFE5
:1030400016161706E807F907C0F012161306E4076C
:10305000F50798F0621B730B840B950B39F40A2665
:1030600061F0232B242B252B21F408950A2609F443
:10307000A140A6958FEF811D811D089597F99F6747
:1030800080E870E060E008959FEF80EC08950024F0
:103090000A941616170618060906089500240A94BD
:1030A00012161306140605060895092E0394000C43
:1030B00011F4882352F0BB0F40F4BF2B11F460FFD2
:1030C00004C06F5F7F4F8F4F9F4F089557FD9058FB
:1030D000440F551F59F05F3F71F04795880F97FBDC
:1030E000991F61F09F3F79F0879508951216130696
:1030F0001406551FF2CF4695F1DF08C016161706C5
:103100001806991FF1CF86957105610508940895F9
:10311000E894BB2766277727CB0197F908950E948B
:103120001A1808F48FEF08950E94A7180C945518E8
:103130000E94471838F00E944E1820F0952311F095
:103140000C943E180C94441811240C9489180E9475
:10315000661870F3959FC1F3950F50E0551F629F5D
:10316000F001729FBB27F00DB11D639FAA27F00DE0
:10317000B11DAA1F649F6627B00DA11D661F829F07
:103180002227B00DA11D621F739FB00DA11D621FEC
:10319000839FA00D611D221F749F3327A00D611D09
:1031A000231F849F600D211D822F762F6A2F1124EB
:1031B0009F5750409AF0F1F088234AF0EE0FFF1F1E
:1031C000BB1F661F771F881F91505040A9F79E3F75
:1031D000510580F00C943E180C9489185F3FE4F37D
:1031E000983ED4F3869577956795B795F795E795CB
:1031F0009F5FC1F7FE2B880F911D9695879597F9D4
:1032000008950E941A18880B990B089597FB072EB2
:1032100016F4009407D077FD09D00E941A1907FC14
:1032200005D03EF4909581959F4F089570956195D6
:103230007F4F0895AA1BBB1B51E107C0AA1FBB1FEC
:10324000A617B70710F0A61BB70B881F991F5A9532
:10325000A9F780959095BC01CD010895EE0FFF1F51
:103260000590F491E02D0994CF93DF93823091057E
:1032700010F482E090E0E091EC05F091ED0520E0A3
:1032800030E0C0E0D0E0309711F140815181481723
:103290005907C0F04817590761F48281938120973C
:1032A00019F09B838A832BC09093ED058093EC05E6
:1032B00026C02115310519F04217530718F49A0159
:1032C000BE01DF01EF010280F381E02DDCCF21158B
:1032D000310509F1281B390B2430310590F4129681
:1032E0008D919C9113976115710521F0FB019383DA
:1032F000828304C09093ED058093EC05FD01329626
:1033000044C0FD01E20FF31F8193919322503109D4
:103310002D933C933AC02091EA053091EB05232B85
:1033200041F420912701309128013093EB0520933F
:10333000EA0520912501309126012115310541F43E
:103340002DB73EB74091290150912A01241B350B1E
:10335000E091EA05F091EB05E217F307A0F42E1BCC
:103360003F0B2817390778F0AC014E5F5F4F2417E9
:10337000350748F04E0F5F1F5093EB054093EA0569
:103380008193919302C0E0E0F0E0CF01DF91CF9113
:1033900008950F931F93CF93DF93009709F48CC088
:1033A000FC013297138212820091EC051091ED0519
:1033B0000115110581F420813181820F931F209125
:1033C000EA053091EB052817390779F5F093EB05FD
:1033D000E093EA0571C0D80140E050E0AE17BF07A6
:1033E00050F412962D913C911397AD0121153105A2
:1033F00009F1D901F3CF9D01DA0133832283608182
:103400007181860F971F8217930769F4EC01288159
:103410003981260F371F2E5F3F4F318320838A81EA
:103420009B8193838283452B29F4F093ED05E093F0
:10343000EC0542C01396FC93EE931297ED0149916F
:1034400059919E01240F351FE217F30771F4808113
:103450009181840F951F029611969C938E93828181
:10346000938113969C938E931297E0E0F0E0D8013D
:1034700012968D919C911397009719F0F8018C0189
:10348000F6CF8D919C9198012E5F3F4F820F931F35
:103490002091EA053091EB052817390769F4309738
:1034A00029F41092ED051092EC0502C013821282ED
:1034B0001093EB050093EA05DF91CF911F910F91D7
:1034C000089581E090E0F8940C946F1AFB01DC0100
:1034D00002C001900D9241505040D8F70895F894E1
:0234E000FFCF1C
:1034E200FC0DFC0DFE4100600135E853FE44001462
:1034F2000297E5FE440012029445FE440008029F32
:1035020025010000000000EE05800068656C6C6F0C
:10351200206E6F616820697427732061757374650A
:103522006E0000000000000000000000000000002B
:103532000000000000000000000000000000000089
:103542000000000000000000000000000000000079
:103552000000000000000000000000000000000069
:103562000000000000000000000000000000000059
:103572000000000000000000000000000000000049
:103582000000000000000000000000000000000039
:103592000000000000000000000000000000000029
:1035A2000000000000000000000000000000000019
:1035B2000000000000000000000000000000000009
:1035C20000000000000000000000000000000000F9
:1035D20000000000000000000000000000000000E9
:1035E20000000000000000000000000000000000D9
:1035F20000000000000000000000000000000000C9
:1036020000000000000D0E131516191A1C232526A2
:10361200292A2C323400000000640D4D10FC0CAB42
:103622000D2D0D0B0D1F0D00000000E200DE00DA73
:1036320000A8013008F100ED00E90000000000FEE2
:10364200024D10A5015C016B0183014201000000E3
:1036520000420C220B9108930AFD0D25011D013D2C
:10366200026E02A302FF0D150112010F010C0105EA
:103672000118010201FF00FC00F9001C0E4C6F6FE3
:10368200705F436F756E743A200020436F323A20A8
:103692000020436F322054656D703A2000204F7A2B
:1036A2006F6E65204761733A20002050504D3A20DA
:1036B20000596F75722042617474657279204C658D
:1036C20076656C206973204C6F772E2020526570CE
:1036D2006C61636520536F6F6E0020424154544504
:1036E20052593A20000D0A0053697A65206F66200C
:1036F200666C6F61743A2000476F74207265706C5B
:10370200793A20002C20525353493A2000526563E3
:1037120065697665206661696C6564004E6F20722A
:1037220065706C792E2E2E0057696C64666972651D
:103732002050726F6A656374205374617274696E8B
:10374200672055702E2E2E2E004C6F526120726112
:1037520064696F20696E6974206661696C656400D2
:103762004C6F526120726164696F20696E697420C6
:103772004F4B2100536574204672657120746F3A75
:0E37820020006E616E00696E66006F76660054
:00000001FF
