:100000000C94B0000C949C0A0C94750A0C941E0776
:100010000C94FA060C94D6060C94D8000C94D800D4
:100020000C94D8000C94D8000C94D8000C94410384
:100030000C94D8000C94D8000C94D8000C94D800E0
:100040000C942B0A0C94D8000C9407090C94E1082A
:100050000C94D8000C94D8000C94D8000C94D800C0
:100060000C94D8000C94D8007274009274004894D8
:100070000078C4000000000800020100000304072B
:100080000000000000000000000000002400270025
:100090002A0000000000250028002B0000000000BE
:1000A00023002600290004040404040404040202BA
:1000B00002020202030303030303010204081020E7
:1000C000408001020408102001020408102000C230
:1000D00001000100110011000C0000E100000A0005
:1000E0002500250021000096000019003900390084
:1000F0003600127A00001F0046004600440080705F
:10010000000022004D004D004A00004B0000360068
:10011000750075007200403800004A009C009C0089
:100120009900802500007200EC00EC00E900C0128C
:100130000000E900DA01DA01D70160090000D70107
:10014000B603B603B303B0040000B3036E076E0733
:100150006B072C010000DC0EC11DC11DBE1D2A1342
:1001600011241FBECFEFD8E0DEBFCDBF12E0A0E06C
:10017000B1E0E8E4F2E302C005900D92A638B107C1
:10018000D9F724E0A6E8B2E001C01D92A63CB20770
:10019000E1F710E0C0EBD0E004C02197FE010E941F
:1001A000D417CF3AD107C9F70E945C0E0C942219DC
:1001B0000C9400009FB7F8948091C602882319F030
:1001C00081508093C6028091C602811105C08CB512
:1001D0008F7B8CBD1092C8029FBF08958CB58F771E
:1001E0008CBD08958CB580688CBD08956EBD0000EF
:1001F0000DB407FEFDCF8EB50895FC0173836283B5
:100200000895FC01778366830895FC0175836483F8
:1002100008950895089580E00895FC01818508956A
:10022000FC0180850895FC0187810895FC01868189
:100230000895FC01409595854923642B65870895B1
:10024000FC0164870895FC0163870895FC016287BF
:100250000895FC0164830895FC016583089580E09E
:100260000895FC012281338123303105D1F381E0EF
:100270000895CF93DF93EC01E881F9810280F38147
:10028000E02DCE0109958823B9F3DF91CF91089530
:1002900081E00895DC015196ED91FC915297908197
:1002A00050968C91809589238083089520917C03BA
:1002B00030917D032817390781F490917A0380915A
:1002C0007B03981751F0E0917A03F0E0EA57FD4F75
:1002D0008081082E000C990B08958FEF9FEF0895F1
:1002E00020917C0330917D032817390739F48FB7AB
:1002F000F89410927B0310927A038FBF0895209197
:100300007C0330917D032817390771F480917B03BA
:1003100020917A0390E0805C9F4F821B910960E4FA
:1003200070E00E94AC17089580E090E0089520915D
:100330007C0330917D0328173907B9F490917A0333
:1003400080917B03981789F0E0917A03F0E0EA57F7
:10035000FD4F808120917A0330E02F5F3F4F2F7354
:10036000332720937A0390E008958FEF9FEF08954D
:10037000089580E090E00895CF93DF93FC012281FF
:1003800033812230310569F0EC01668D848D0E9445
:10039000620960E08B8D0E94620982E090E09B839D
:1003A0008A83DF91CF910895CF93DF93EC01888DFD
:1003B000998DDC01ED91FC910680F781E02D099586
:1003C00061E08A8D0E94920961E08A8D0E94620933
:1003D00064E670E080E090E00E94E50981E0DF9152
:1003E000CF9108950F931F93CF93FC018281938146
:1003F0008430910569F08330910579F08230910560
:1004000089F00197A1F040E452E46FE070E013C07E
:1004100040E054E264EF70E00EC040E052E16AE771
:1004200070E009C040E059E06DE370E004C040E8CE
:1004300054E86EE170E0A481B581868197810097D0
:1004400041F08130910539F08230910531F0039708
:1004500031F090E005C094E003C098E001C09CE05A
:1004600080E000E012E12AE730E040175107620720
:10047000730740F436952795179507958F5F86305B
:10048000A1F787E021E02827119711F080E501C04E
:1004900080E7322F3695932B982B908721702187F8
:1004A000CFB7F8948091C602811127C0E0EBF0E04D
:1004B0008491E4ECF0E09491E82FF0E0EE0FFF1F60
:1004C000E857FF4FA591B491EC91E92321F461E045
:1004D0008AE00E94620961E08AE00E9492098CB57C
:1004E00080618CBD8CB580648CBD61E08DE00E9424
:1004F000920961E08BE00E9492098091C6028F5FB1
:100500008093C602CFBFCF911F910F9108958F9214
:100510009F92AF92BF92CF92DF92EF92FF92CF93D2
:10052000DF93EC016B010E941F0A4B015C01E12C7F
:10053000F12C0E941F0ADC01CB0188199909AA0934
:10054000BB098C159D05AE05BF0530F48A819B81E2
:10055000039779F381E001C080E0DF91CF91FF90B4
:10056000EF90DF90CF90BF90AF909F908F900895C5
:100570008F929F92AF92BF92CF92DF92EF92FF92B3
:10058000CF93DF93EC016B010E941F0A4B015C01CA
:10059000E12CF12C0E941F0ADC01CB01881999097A
:1005A000AA09BB098C159D05AE05BF0550F4E8816D
:1005B000F9810280F381E02DCE010995882351F362
:1005C00001C080E0DF91CF91FF90EF90DF90CF905E
:1005D000BF90AF909F908F9008958F929F92AF920F
:1005E000BF92CF92DF92EF92FF92CF93DF93FC0105
:1005F00026893789232B11F481E038C0EC010E9451
:100600001F0A6B017C0189E0882E912CA12CB12C52
:10061000E881F9810488F589E02DCE0109958823C8
:1006200059F30E941F0AAB01BC014C195D096E0908
:100630007F098E899F89A0E0B0E084179507A607FF
:10064000B70798F00E94F614A50194010E940D15B9
:100650009B01AC012F5F3F4F4F4F5F4FA4E6B0E0CF
:100660000E942C150E94E509D3CF80E0DF91CF9145
:10067000FF90EF90DF90CF90BF90AF909F908F90C2
:1006800008951F920F920FB60F921124CF92DF920E
:10069000EF92FF920F931F932F933F934F935F938C
:1006A0006F937F938F939F93AF93BF93CF93DF937A
:1006B000EF93FF93C091C902D091CA028A819B81B6
:1006C000049709F0CAC02A8D30E0F901EC58FF4FB9
:1006D0008491F901E654FF4F0491F901EA55FF4F67
:1006E0001491112379F081110E943909E12FF0E072
:1006F000EE0FFF1FE456FF4FA591B491EC91E0235C
:1007000081E009F480E081709D8D892719F09AA11C
:100710009F5F9AA399A1891771F09BA1903518F05A
:100720002DE130E002C02BE030E09BA1290F311D0C
:100730002BA389A303C08BA18C5E8BA38BA1803AD2
:1007400008F4DDC08DA19EA1969587959EA38DA3EB
:100750008AA1853028F08DA19EA198609EA38DA3CB
:100760008BA1805A8BA31AA28CA1882309F468C09C
:100770008FA18F5F8FA38C3008F4C1C08DA19EA183
:10078000982F9F73892F86958695887028E0280F6B
:10079000821749F0E82FF0E0EC5EFE4F30819317AE
:1007A00019F08F5FF5CF80E020E1829FC001112416
:1007B0002DA13EA196E0369527959A95E1F7422F17
:1007C0003695279536952795287038E0320F2317F0
:1007D00049F0E22FF0E0EC5EFE4F5081451719F032
:1007E0002F5FF5CF20E0822BAE0144595F4FFA0115
:1007F0009081DE01A559BF4F9923B1F0FA01908194
:1008000021E0290F20839E01290F311DF90180A7C6
:10081000FA0190818C91981788F01CA281E08F8F4B
:10082000CE010E94BC010AC08C939C91973008F4C1
:1008300060C09C91943408F05CC0E0CF1FA25FC000
:100840008DA19EA188339B4009F059C081E08CA303
:100850001FA2C459DF4F188252C08A819B8103971F
:1008600009F04DC08E0101591F4FF801808191E0C0
:10087000980F9083811137C07E01FDE6EF0EF11CC9
:10088000F7018081EF56FF4F9081891748F0CE0124
:100890000E94BC018B899C8901969C8B8B8B23C009
:1008A000FE01E80FF11DE059FF4F608170E06E011D
:1008B000FEE6CF0ED11CF601808191E0980F908367
:1008C00002C0759567958A95E2F7617077278B8DE1
:1008D0000E946209F6018081863028F01082F701BB
:1008E00080818F5F8083F8018081883040F01082A2
:1008F00006C01CA28F8598890196988B8F87FF91DF
:10090000EF91DF91CF91BF91AF919F918F917F91A7
:100910006F915F914F913F912F911F910F91FF9098
:10092000EF90DF90CF900F900FBE0F901F90189513
:100930008091C802882361F09FB7F8942091C80283
:100940008091C702213019F48DBB9FBF08958FBFDE
:1009500008952091C802222379F02FB7F89430919E
:10096000C802313039F43DB33093C7023DB33DBBCB
:100970002FBF02C02093C7028CBD9DBD0895EF928A
:10098000FF920F931F93CF93DF931F92CDB7DEB7E4
:100990007C01162F0FB7F894DC015896ED91FC916D
:1009A00059978085918549830E94A90460E0F701E9
:1009B000828D0E946209D70158968D919C9159971A
:1009C000DC01ED91FC91612F60680190F081E02DD8
:1009D0000995182FF701808D918DDC01ED91FC9127
:1009E0000190F081E02D4981642F099561E0F701C4
:1009F000828D0E9462090E9498040FBF812F0F9080
:100A0000DF91CF911F910F91FF90EF9008950F9379
:100A10001F93CF93DF93EC01162F0FB7F894E88D57
:100A2000F98D808591850E94A90460E08A8D0E94DD
:100A30006209888D998DDC01ED91FC91612F6F77B2
:100A40000190F081E02D0995888D998DDC01ED9163
:100A5000FC910190F081E02D60E00995182F61E094
:100A60008A8D0E9462090E9498040FBF812FDF9136
:100A7000CF911F910F910895EF92FF920F931F93C3
:100A8000CF93DF9300D01F92CDB7DEB78C010E94C9
:100A9000D401F82E882341F1F801838D823019F0BA
:100AA000833011F523C0E12C40E861E0C8010E94C9
:100AB000BF046AE070E080E090E00E94E50961E038
:100AC000C8010E9407058038A1F061E0C8010E94BA
:100AD0000705682F70E080E090E040E10E94C60CBE
:100AE0008CE891E00E94B20CF12C75C0EE24E394E6
:100AF000DBCF60E0F801838D0E949209F801848DBC
:100B00008F3F49F48091CB02843070F791E0980FC9
:100B10009093CB02848FF801848DE82FF0E0EE0FE4
:100B2000FF1FE253FD4F11830083811103C06EE765
:100B30007CE009C0813019F465E77CE004C08230B4
:100B400099F66CE67CE08E2D0E94420E40E06EE04D
:100B5000C8010E94BF0440E06FE0C8010E94BF04CA
:100B6000C8010E94E70A43E050E068E670E0CE0169
:100B700001960E94041549816DE1C8010E94BF04DD
:100B80004A816EE1C8010E94BF044B8166E2C80140
:100B90000E94BF0440E060E2C8010E94BF0448E038
:100BA00061E2C8010E94BF044CE666E0C8010E94F1
:100BB000BF0440E867E0C8010E94BF0440E068E06D
:100BC000C8010E94BF04F801E25EFE4F10826DE092
:100BD000C8010E94C30A8F2D0F900F900F90DF91D4
:100BE000CF911F910F91FF90EF90089520E0019712
:100BF0002FEF8F3F9207D9F70895DF92EF92FF9280
:100C00000F931F93CF93DF93EC01298D3A8D21151C
:100C1000310529F481E090E09B838A835AC0162F26
:100C2000DFB6F8948B8D81FD4DC0CE010E944A0144
:100C3000898D9A8D05960E94F6058B8D98E0E92E98
:100C4000F12C01E081FF1AC0802F812321F0CE0119
:100C50000E944A0106C0E989FA8990818889892B16
:100C60008083898D9A8D0E94F605000F81E0E81A35
:100C7000F10851F7CE010E944A011CC0802F812348
:100C800039F0E989FA8990818889892B808303C0AA
:100C9000CE010E944A01898D9A8D0E94F605000FAF
:100CA00081E0E81AF10851F7E989FA899081888989
:100CB000892B8083DFBE898D9A8D0E94F60521E005
:100CC00030E007C0E989FA8990818889892B80837F
:100CD000AFCFC901DF91CF911F910F91FF90EF909E
:100CE000DF900895EF92FF920F931F93CF93DF93BE
:100CF000C0917C03D0917D03209709F450C09B8D57
:100D0000EE85FF858D8591FF04C09081892329F4AC
:100D100046C09081892309F042C08B899C890E943A
:100D2000F60588E0E82EF12C10E001E08D899E891F
:100D30000E94F605EE85FF8590818D85892311F04F
:100D4000102B03C0802F80951823000F81E0E81A34
:100D5000F10861F78F89988D0E94F6058B8D81FDD2
:100D6000109580917B0320917A0390E001968F7318
:100D7000992730E08217930779F0E0917B03F0E048
:100D8000EA57FD4F108380917B0390E001968F73AB
:100D9000992780937B0303C08B8D81608B8FDF91BC
:100DA000CF911F910F91FF90EF9008951F920F9296
:100DB0000FB60F9211242F933F934F935F936F932E
:100DC0007F938F939F93AF93BF93EF93FF930E9473
:100DD0007206FF91EF91BF91AF919F918F917F919B
:100DE0006F915F914F913F912F910F900FBE0F9098
:100DF0001F9018951F920F920FB60F9211242F93E8
:100E00003F934F935F936F937F938F939F93AF9392
:100E1000BF93EF93FF930E947206FF91EF91BF91F2
:100E2000AF919F918F917F916F915F914F913F9182
:100E30002F910F900FBE0F901F9018951F920F9239
:100E40000FB60F9211242F933F934F935F936F939D
:100E50007F938F939F93AF93BF93EF93FF930E94E2
:100E60007206FF91EF91BF91AF919F918F917F910A
:100E70006F915F914F913F912F910F900FBE0F9007
:100E80001F901895FC01538D448D252F30E0842F41
:100E900090E0821B930B541710F0CF9608950197A2
:100EA0000895FC01918D828D981761F0828DDF018C
:100EB000A80FB11D5D968C91928D9F5F9F73928F4D
:100EC00090E008958FEF9FEF0895FC01918D828D42
:100ED000981731F0828DE80FF11D858D90E008950F
:100EE0008FEF9FEF0895FC01918D228D892F90E067
:100EF000805C9F4F821B91098F73992708958DED18
:100F000092E00E94730721E0892B09F420E0822FF0
:100F10000895FC01848DDF01A80FB11DA35ABF4FB6
:100F20002C91848D90E001968F739927848FA689E8
:100F3000B7892C93A089B1898C9180648C93938D0F
:100F4000848D981306C00288F389E02D80818F7DFF
:100F500080830895EF92FF920F931F93CF93DF93B7
:100F6000EC0181E0888F9B8D8C8D981305C0E889FA
:100F7000F989808185FD24C0F62E0B8D10E00F5F6E
:100F80001F4F0F731127E02E8C8DE8120CC00FB687
:100F900007FCFACFE889F989808185FFF5CFCE017A
:100FA0000E948907F1CF8B8DFE01E80FF11DE35AF6
:100FB000FF4FF0820B8FEA89FB898081806207C036
:100FC000EE89FF896083E889F98980818064808364
:100FD00081E090E0DF91CF911F910F91FF90EF9012
:100FE0000895CF93DF93EC01888D8823C9F0EA89B7
:100FF000FB89808185FD05C0A889B9898C9186FD12
:101000000FC00FB607FCF5CF808185FFF2CFA8890E
:10101000B9898C9185FFEDCFCE010E948907E7CF7A
:10102000DF91CF91089580E090E0892B29F00E9414
:101030007F0781110C94000008953FB7F8948091C8
:10104000D9029091DA02A091DB02B091DC0226B5C0
:10105000A89B05C02F3F19F00196A11DB11D3FBFF0
:10106000BA2FA92F982F8827820F911DA11DB11D7E
:10107000BC01CD0142E0660F771F881F991F4A957A
:10108000D1F7089508958BEF08950E940719CF9323
:10109000DF93EC018A819B81059771F047E061E065
:1010A000CE010E94BF0440E860E4CE010E94BF046C
:1010B00085E090E09B838A838A819B810597E1F399
:1010C0008D89DF91CF910895CF93DF93FC01228129
:1010D00033812130310549F0EC0140E061E00E94AC
:1010E000BF0481E090E09B838A8381E0DF91CF9110
:1010F0000895CF93DF93FC012281338123303105A2
:10110000B9F0EC0182819381049771F045E061E0D0
:10111000CF010E94BF0440E060E4CE010E94BF0402
:1011200084E090E09B838A83C35EDE4F888101C0A8
:1011300080E0DF91CF910895CF92DF92EF92FF92FE
:101140000F931F93CF93DF93EC017B018A01E8811A
:10115000F9810280F381E02D0995D82E882339F199
:10116000E114F104E1F001151105C9F0CFB6F894CE
:101170002D8D30E023503109F801808190E08217F5
:1011800093071CF09D8D94509083F801408150E0AE
:10119000BE016E5D7F4FC7010E941919CFBE8FB788
:1011A000F894FE01E35EFE4F10821D8E8FBF8D2DE1
:1011B000DF91CF911F910F91FF90EF90DF90CF9033
:1011C00008951F920F920FB60F9211242F933F9301
:1011D0004F935F936F937F938F939F93AF93BF933F
:1011E000EF93FF938DED92E00E948907FF91EF91BD
:1011F000BF91AF919F918F917F916F915F914F912F
:101200003F912F910F900FBE0F901F9018951F9236
:101210000F920FB60F9211242F938F939F93EF93FA
:10122000FF93E091ED02F091EE028081E091F302F4
:10123000F091F40282FD12C090818091F6028F5FDE
:101240008F732091F702821751F0E091F602F0E0DF
:10125000E352FD4F958F8093F60201C08081FF918C
:10126000EF919F918F912F910F900FBE0F901F9034
:101270001895833081F028F4813099F08230A1F004
:1012800008958730A9F08830B9F08430D1F4809186
:1012900080008F7D03C0809180008F7780938000D5
:1012A000089584B58F7702C084B58F7D84BD08957D
:1012B0008091B0008F7703C08091B0008F7D8093C4
:1012C000B00008951F93CF93DF93282F30E0F901EA
:1012D000EC58FF4F8491F901E654FF4FD491F90186
:1012E000EA55FF4FC491CC23C9F0162F81110E94FB
:1012F0003909EC2FF0E0EE0FFF1FEE56FF4FA591DE
:10130000B4918FB7F894111105C09C91ED2FE09521
:10131000E92302C0EC91ED2BEC938FBFDF91CF91CD
:101320001F910895CF93DF9390E0FC01E654FF4FA7
:101330002491FC01EA55FF4F8491882361F190E0EC
:10134000880F991FFC01E857FF4FC591D491FC010C
:10135000EE56FF4FA591B491611109C09FB7F89463
:101360008881209582238883EC912E230BC06230E4
:1013700061F49FB7F8943881822F80958323888306
:10138000EC912E2B2C939FBF06C08FB7F894E88169
:101390002E2B28838FBFDF91CF9108958E3008F0D8
:1013A0008E508770806480937C0080917A00806486
:1013B00080937A0080917A0086FDFCCF809178003E
:1013C0002091790090E0922B08958F929F92AF9296
:1013D000BF92CF92DF92EF92FF926B017C010E944D
:1013E0001D084B015C01C114D104E104F104F1F0CA
:1013F0000E941D08DC01CB0188199909AA09BB09C3
:10140000883E9340A105B10570F321E0C21AD108CE
:10141000E108F10888EE880E83E0981EA11CB11C3B
:10142000C114D104E104F10419F7DDCFFF90EF906E
:10143000DF90CF90BF90AF909F908F9008952FB77F
:10144000F8946091D5027091D6028091D702909164
:10145000D8022FBF08951F920F920FB60F9211243A
:101460002F933F938F939F93AF93BF938091D50218
:101470009091D602A091D702B091D8023091D402B7
:1014800023E0230F2D3720F40196A11DB11D05C0C7
:1014900026E8230F0296A11DB11D2093D40280934C
:1014A000D5029093D602A093D702B093D802809130
:1014B000D9029091DA02A091DB02B091DC02019690
:1014C000A11DB11D8093D9029093DA02A093DB0293
:1014D000B093DC02BF91AF919F918F913F912F917B
:1014E0000F900FBE0F901F9018951F920F920FB67E
:1014F0000F9211242F933F934F935F936F937F939A
:101500008F939F93AF93BF93EF93FF93E091080165
:10151000F09109010995FF91EF91BF91AF919F91D2
:101520008F917F916F915F914F913F912F910F908C
:101530000FBE0F901F9018951F920F920FB60F922B
:1015400011242F933F934F935F936F937F938F93C8
:101550009F93AF93BF93EF93FF93E0910601F091B8
:1015600007010995FF91EF91BF91AF919F918F91E5
:101570007F916F915F914F913F912F910F900FBE8F
:101580000F901F9018950F931F93CF938C01C62F28
:1015900068312CF465305CF0653114F409C0C7E1A2
:1015A00047E06DE4C8010E94BF04C35006C0C5E017
:1015B00044E06DE4C8010E94BF044BEF4C0F40684B
:1015C00069E0C801CF911F910F910C94BF04CF9394
:1015D000DF93FC01228133812230310549F0EC0197
:1015E00041E061E00E94BF0482E090E09B838A8337
:1015F000DF91CF910895BF92CF92DF92EF92FF9249
:101600000F931F93CF93DF934C3F10F0E12C77C0E3
:10161000142F072FF62EEC01E881F9810484F5855B
:10162000E02D0995CE010E94E70AE881F981028840
:10163000F389E02DCE010995E82E882339F340E0A7
:101640006DE0CE010E94BF044A8560E0CE010E9499
:10165000BF044B8560E0CE010E94BF044C8560E072
:10166000CE010E94BF044D8560E0CE010E94BF0400
:10167000BFB6F894E88DF98D808591850E94A90404
:1016800060E08A8D0E946209888D998DDC01ED9160
:10169000FC910190F081E02D60E80995CF2CD02ECF
:1016A000012F015068F0888D998DF60161916F01CD
:1016B000DC01ED91FC910190F081E02D0995F1CFD5
:1016C00061E08A8D0E9462090E949804BFBE44E0D6
:1016D000410F62E2CE010E94BF048A819B81039781
:1016E00071F043E061E0CE010E94BF0440E460E499
:1016F000CE010E94BF0483E090E09B838A838E2DFD
:10170000DF91CF911F910F91FF90EF90DF90CF90DD
:10171000BF900895DF92EF92FF920F931F93CF93A4
:10172000DF93EC0162E10E9407052A813B812430AE
:10173000310519F4982F907A41F42A813B812430A5
:101740003105A1F486FD20C011C08F8598890196CE
:10175000988B8F874FEF62E1CE01DF91CF911F9180
:101760000F91FF90EF90DF900C94BF042A813B8192
:101770002330310509F0A2C083FFA0C08B899C896A
:1017800001969C8B8B8BA4C063E1CE010E94070560
:10179000F82E60E1CE010E940705482F6DE0CE01D2
:1017A0000E94BF04DFB6F894E88DF98D808591859D
:1017B0000E94A90460E08A8D0E946209888D998D3B
:1017C000DC01ED91FC910190F081E02D60E0099544
:1017D0008E01025E1F4FEF2CE00EE01671F0888D37
:1017E000998DDC01ED91FC910190F081E02D60E09C
:1017F0000995F80181938F01F0CF61E08A8D0E94F5
:1018000062090E949804DFBEFD8E4FEF62E1CE01B7
:101810000E94BF0469E1CE010E9407058E01015EAE
:101820001E4F87FD8D5F85958595D8018C936AE164
:10183000CE010E9407058E87F80190818E8597FF63
:1018400003C0890F8E8709C0F0E18F02C001112407
:101850006FE070E00E94AC176E87FE01E25EFE4F03
:101860008081882319F08E858D5902C08E85845A17
:101870008E878D8DFE01E35EFE4F843090F08E8D5D
:101880008E838F8D8F8388A1888789A189878D8199
:1018900081110CC09E818C81981741F08E818F3F01
:1018A00029F08081882309F455CF12C089899A894B
:1018B00001969A8B898B81E08083F3CF2A813B81CB
:1018C0002530310509F046CF82FF44CF81708D8BE2
:1018D000CE010E94E70A3ECF8091D2029091D302BE
:1018E000009711F00C948A0B08958091D00290918A
:1018F000D102009711F00C948A0B08958091CE02CA
:101900009091CF02009711F00C948A0B0895CF921A
:10191000DF92EF92FF920F931F93CF93DF936C01AF
:101920007A018B01C0E0D0E0CE15DF0589F0D80147
:101930006D918D01D601ED91FC910190F081E02D2A
:10194000C6010995892B11F47E0102C02196ECCFC6
:10195000C701DF91CF911F910F91FF90EF90DF9022
:10196000CF900895009769F0FC0101900020E9F7FD
:101970003197AF01481B590BBC018DED92E00C94DF
:10198000870C80E090E008950C94B20C8F929F92A7
:10199000AF92BF920F931F93CF93DF93CDB7DEB774
:1019A000A1970FB6F894DEBF0FBECDBF19A242308B
:1019B00008F44AE08E010F5D1F4F842E912CA12C5C
:1019C000B12CA50194010E943F15E62FB901CA016F
:1019D00001501109EA3014F4E05D01C0E95CD8015E
:1019E000EC93232B242B252B61F7C8010E94B20C0A
:1019F000A1960FB6F894DEBF0FBECDBFDF91CF9199
:101A00001F910F91BF90AF909F908F900895E0919C
:101A1000DD02F091DE020190F081E02D682F8DED66
:101A200092E00994CF93DF930E94B20CEC018CE812
:101A300091E00E94B20C8C0F9D1FDF91CF91089511
:101A40008F929F92AF92BF92CF92DF92EF92FF92CE
:101A5000CF93DF93A0918903882311F03A2F01C01F
:101A600030E080918A0390E0880F991F84569F4F41
:101A7000C0908F03D0909003E0909103F090920378
:101A800040E050E0BA01FC01C591D49128812A239D
:101A900023130FC04A015B012FEF821A920AA20A98
:101AA000B20A4C155D056E057F0538F4B501A40139
:101AB000EACF342F252FCB0104C030E020E080E0B6
:101AC00090E0632F722FDF91CF91FF90EF90DF9026
:101AD000CF90BF90AF909F908F9008954F925F925C
:101AE0006F927F928F929F92AF92BF92CF92DF922E
:101AF000EF92FF926B017C01B42E9B01AC010E941E
:101B0000A717882319F089E792E027C0260137013B
:101B1000E89477F82FEF3FEF4FE75FE7C301B2019B
:101B20000E94A71781110DC02FEF3FEF4FE75FE72E
:101B3000C301B2010E94DD1518161CF48DE792E076
:101B40000CC02FEF3FEF4FE75FE4C701B6010E94E3
:101B50003517181684F481E892E0FF90EF90DF903B
:101B6000CF90BF90AF909F908F907F906F905F903D
:101B70004F900C94B20C2FEF3FEF4FE75FECC70193
:101B8000B6010E94DD1587FDE6CF20E030E0A90117
:101B9000C701B6010E94DD1587FF09C08DE20E94D2
:101BA000070D4C01F7FAF094F7F8F09402C0812C7D
:101BB000912CA12C60E070E080E09FE3AB1441F039
:101BC00020E030E040E251E40E94E215A394F6CF19
:101BD0009B01AC01C701B6010E9471152B013C01AC
:101BE0000E9454166B017C010E9483169B01AC017C
:101BF000C301B2010E9470152B013C014AE0C701EC
:101C0000B6010E94C60C7C01E80CF91CBB2029F02F
:101C10008EE20E94070DE80EF91EDB2CDD2021F17B
:101C200020E030E040E251E4C301B2010E943A17E3
:101C30002B013C010E9454164B01A12CB12C4AE00F
:101C4000C501B4010E94C60CE80EF91EC501B4011D
:101C50000E9483169B01AC01C301B2010E94701562
:101C60002B013C01DA94DACFC701FF90EF90DF90AF
:101C7000CF90BF90AF909F908F907F906F905F902C
:101C80004F9008958230B8F4E82FF0E0EE0FFF1F78
:101C9000EA5FFE4F71836083813039F08091690083
:101CA000836080936900E89A0895809169008C6050
:101CB00080936900E99A0895CF93DF93CDB7DEB79B
:101CC000C356D1400FB6F894DEBF0FBECDBF789497
:101CD00084B5826084BD84B5816084BD85B5826031
:101CE00085BD85B5816085BD80916E0081608093E2
:101CF0006E0010928100809181008260809381004B
:101D0000809181008160809381008091800081605A
:101D1000809380008091B10084608093B1008091B5
:101D2000B00081608093B00080917A0084608093DD
:101D30007A0080917A00826080937A0080917A00A4
:101D4000816080937A0080917A00806880937A0025
:101D50001092C100E091ED02F091EE0282E08083EA
:101D6000E091E902F091EA021082E091EB02F09139
:101D7000EC028FEC80831092F502E091F102F09179
:101D8000F20286E08083E091EF02F091F002808120
:101D900080618083E091EF02F091F00280818860A1
:101DA0008083E091EF02F091F0028081806880836F
:101DB000E091EF02F091F00280818F7D80838FE8C7
:101DC00091E00E94120D68EE73E080E090E00E94C6
:101DD000E50960E08EE00E94920961E08FE00E94D8
:101DE000920961E080E10E94920961E080E10E9435
:101DF000620983E10E94CE0961E082E00E949209BB
:101E000061E082E00E94620960E082E00E94620973
:101E10006AE070E080E090E00E94E50961E082E025
:101E20000E9462096AE070E080E090E00E94E509AB
:101E300084E993E00E943C05C15ADE4F8883CF5568
:101E4000D140811109C080EB91E00E94120D64E63F
:101E500070E080E090E0EACF87EC91E00E94120D04
:101E600044EE66E084E993E00E94BF0440EC67E042
:101E700084E993E00E94BF0440E068E084E993E0D5
:101E80000E94BF0411E01093B2048BED91E00E9418
:101E9000C40C42E060E070EC84E694E40E946E0DB5
:101EA0008CE891E00E94B20C6FE084E993E00E941C
:101EB000C30A83E08093980380939F0310939E034B
:101EC0007E012FEBE21A2EEFF20AA7014C5F5F4F63
:101ED000C05ADE4F59834883C056D140412C512C03
:101EE00050E4652E51E4752E8BEFC25ADE4F888385
:101EF000CE55D1400E941F0A00917E0310917F03AE
:101F00002091800330918103DC01CB01801B910B78
:101F1000A20BB30B00910201109103012091040167
:101F20003091050180179107A207B30708F415C384
:101F300089EE91E00E94120D0E941F0A60937E03B9
:101F400070937F0380938003909381034DE1D42E9F
:101F5000D701ED2D1D92EA95E9F78DE190E00E9401
:101F6000DA178C01DC011D92DA94E9F78091CC023A
:101F70009091CD026C01BFEFCB1ADB0AD092CD025B
:101F8000C092CC028091000190910101892B21F037
:101F900061E080E10E946209C601DD0CAA0BBB0B67
:101FA000F80180839183A283B383F70180839183B7
:101FB000A283B38382EF91E00E94C40CD8018D907C
:101FC0009D90AD90BC90B7FE0CC08DE20E94070DB5
:101FD00066277727CB01681979098A099B094AE0A6
:101FE00003C04AE0C501B4010E94C60C8AEF91E02B
:101FF0000E94C40C0E941F0A80908B0390908C0357
:10200000A0908D03B0908E039B01AC012819390973
:102010004A095B0949015A0130ED831637E09306FE
:10202000A104B10418F480919303C0C060938B03A2
:1020300070938C0380938D0390938E03109286038C
:1020400010928503109284031092830310928203EE
:1020500061E0809187030E9462096AEF70E080E08E
:1020600090E00E94E50961E0809187030E94920957
:1020700060E0809187030E94620964E170E080E083
:1020800090E00E94E509F89461E0809187030E9446
:1020900062098BE990E00197F1F762E08091870394
:1020A0000E94920983E290E00197F1F780E00E949C
:1020B000200D672B682B692B21F4109293037894E1
:1020C000B0C081E00E94200D672B682B692BA9F31B
:1020D000AE014F5F5F4F1A016A0180E00E94200D40
:1020E000D6016D937D938D939C93139781E00E940D
:1020F000200DF6016483758386839783F8E0CF0E05
:10210000D11CCE14DF0449F7789480E090E0D1012F
:102110004D915D916D917C91139714968D909D904A
:10212000AD90BC901797411551056105710529F0D7
:1021300081149104A104B10419F41092930371C0A5
:10214000FC0133E0F595E7953A95E1F7EE57FC4F42
:102150002081220F481559056A057B0508F4216086
:1021600020830196B8E02B0E311C8832910579F658
:102170002091860330E0409182038091830390E0B8
:10218000840F911D40918403840F911D409185031C
:10219000840F911D99272817390779F681E08093DC
:1021A0009303C15ADE4F8881CF55D1408823C9F1AE
:1021B000809188038B3029F0A0F18551823048F05E
:1021C00030C06091840370E080E090E00E9483164C
:1021D0002CC0D09084036D2D6F7770E080E090E08C
:1021E0000E94851620E030E040E853E40E943A1750
:1021F0004B015C016091850370E080E090E00E94FB
:1022000085169B01AC01C501B4010E9471152DEC2E
:102210003CEC4CEC5DE30E943A17D7FE06C09058A8
:1022200004C060E070E080EC9FE726E636E646EE0C
:102230005FE30E943A1720E030E040E052E40E9461
:102240007115F801608B718B828B938BC05ADE4FB6
:10225000A881B981C056D1406D937D938D939C9395
:1022600013978FEF91E00E94C40CF8016089718987
:102270008289938942E00E946E0DD80114964D9296
:102280005D926D927C92179720E030E040E651E439
:1022900018962D933D934D935C931B97F7014086C1
:1022A000518662867386448655866686778686E082
:1022B00092E00E94C40CD80114966D917D918D918D
:1022C0009C91179742E00E946E0D8EE092E00E9472
:1022D000C40CF801608571858285938542E00E9477
:1022E0006E0D812C912C540121E3C22ED12CC501FD
:1022F000B4010E945416862F0E94CE09BC01990F8A
:10230000880B990B0E9485169B01AC01C501B40195
:102310000E9471154B015C01F1E0CF1AD10839F729
:102320002AE037ED43EA5CE30E943A1729E238E2FB
:1023300040EA5BE30E943A17D8011C966D937D93A7
:102340008D939C931F97F701608B718B828B938B7E
:1023500086E192E00E94C40CD8011C966D917D919B
:102360008D919C911F9742E00E946E0D83E1C82ED3
:10237000D12C812C912C54019BE3292E97E9392EE5
:1023800060E08AE00E9462098BE594E00197F1F732
:1023900081E10E94CE099C018BE990E00197F1F761
:1023A00061E08AE0CE59DE4F2883C256D140CD5934
:1023B000DE4F3883C356D1400E946209C1010197A4
:1023C000F1F7C1010197F1F7CE59DE4F2881C256CE
:1023D000D140CD59DE4F3881C356D140B901330FBA
:1023E000880B990B0E94851620E030E040EA5BE301
:1023F0000E943A172BE734E14EE25EE30E943A175F
:102400002DEC3CEC4CEC5DE30E94701520E030E0DC
:102410004AE754E40E943A179B01AC01C501B4019C
:102420000E9471154B015C01B1E0CB1AD10809F093
:10243000A7CF20E030E040EA51E40E94E215F80125
:10244000648B758B868B978BD70154966D937D9398
:102450008D939C9357978EE192E00E94C40CF801F3
:10246000648975898689978942E00E946E0D8EE0A5
:102470000E94CE09BC01990F880B990B0E9485160A
:1024800020E030E040E85AE30E943A1721EE3AE7B4
:1024900040EA50E40E943A1720E030E040E051E486
:1024A0000E943A1721EE3AE740EA50E40E94E21512
:1024B00024E533E645E552EC0E943A1728E431EE74
:1024C0004BED53E40E947115D80158966D937D939E
:1024D0008D939C935B97F701608F718F828F938FA1
:1024E00086E292E00E94C40CD80158966D917D91CD
:1024F0008D919C915B9742E00E946E0D8CE891E07B
:102500000E94B20CF701C7014B9621E031912327BD
:10251000E817F907D9F7F801248FD7015C962C93B7
:1025200061E08FE00E94920961E08FE00E94620901
:102530004DE1B70184E993E00E94FB0A84E993E04E
:102540000E94310161E08FE00E94920960E08FE01B
:102550000E946209C8010E946F1884E993E00E94FA
:102560007908882309F467C0AE01425A5E4FBE0164
:102570006F5F7F4F84E993E00E949C08882309F4F1
:102580005AC08EE292E00E94C40CCE0101960E94D5
:10259000120D46E050E069E372E0CE0101960E9420
:1025A0000C19892B51F480E492E00E94120D1092D4
:1025B00001011092000160E015C046E050E060E5C6
:1025C00072E0CE0101960E940C19892B79F486E500
:1025D00092E00E94120D81E090E0909301018093BF
:1025E000000161E080E10E94620925C047E050E0FF
:1025F00065E672E0CE0101960E940C19892BD9F490
:102600008EE692E00E94C40CA984BA84CB84DC8458
:10261000D7FC14C0A0920201B0920301C092040141
:10262000D09205014AE0C601B5010E94C60C8CE8B3
:1026300091E00E94B20C0E94130856CC8DE20E94D9
:10264000070D66277727CB016A197B098C099D093D
:102650004AE0EBCFCF92DF92EF92FF92CF93DF93DE
:102660001092E0021092DF0298EEC92E93E0D92E6C
:10267000E12CF12CC092E102D092E202E092E3025E
:10268000F092E40288E291E09093DE028093DD0212
:1026900085EC90E09093EA028093E90284EC90E06C
:1026A0009093EC028093EB0280EC90E09093EE022A
:1026B0008093ED0281EC90E09093F0028093EF0222
:1026C00082EC90E09093F2028093F10286EC90E02D
:1026D0009093F4028093F3021092F6021092F702A4
:1026E0001092F8021092F9021092BB041092BA04F0
:1026F0001092BD041092BC041092BF041092BE044C
:1027000080E58093C0041092C1048AE391E0909325
:10271000B9048093B80410929703109296038FEF38
:102720008093980380939E0380939F031092A0034D
:102730001092A1031092A4031092A3031092A60377
:102740001092A5031092A8031092A7031092AB0356
:102750001092AA0328EB34E03093AD032093AC032E
:1027600094E09093AE0320E631E0309395032093FC
:1027700094031092B10493E09093AF038093B0035D
:102780008CE190E00E94DA17EC011B821A82CC8265
:10279000DD82EE82FF828EE491E0998388831C8A39
:1027A0001B8A1E8A1D8A188E1F8A1A8E198E8B8D7F
:1027B0008E7F8D7F8B8F61E089E00E94920961E0BE
:1027C00089E00E946209E3ECF0E0E491E88BEFEA33
:1027D000F0E0E491F0E0EE0FFF1FEE56FF4F859121
:1027E00094919A8B898B60E088E00E9492098B8D8E
:1027F00081FD04C061E088E00E94620988E08C8766
:10280000E2ECF0E0E491ED87EEEAF0E0E491F0E054
:10281000EE0FFF1FE456FF4F859194919F878E879F
:10282000D093B704C093B6041A8E198E188E1F8ADF
:102830001E8A1D8A8EEC90E020E030E0FC0145917C
:10284000559165917491403855426105710519F5AE
:102850004CE0429FC001439F900D1124FC01EE52B9
:10286000FF4F259134913C8B2B8BFC01EC52FF4F99
:10287000259134913E8B2D8BFC01EA52FF4F25911F
:102880003491388F2F8BFC01E852FF4F8591949142
:102890009A8F898F09C02F5F3F4F0C962C303105DE
:1028A00009F0CCCF1C8A1B8A8F89988D892B71F0F7
:1028B0008091680081608093680080916B008160E6
:1028C00080936B00898D9A8D0E94F60580917C0320
:1028D00090917D038C179D0771F08B8D8E7F8B8F70
:1028E0008FB7F89410927B0310927A03D0937D03F4
:1028F000C0937C038FBF87E0809387038BE0809336
:102900008803E1ECF0E0E491E0938903EDEAF0E084
:10291000E491E0938A0380E89EE3A0E0B0E0809336
:102920008F0390939003A0939103B09392030E941E
:102930001F0A60937E0370937F03809380039093BC
:102940008103DF91CF91FF90EF90DF90CF900895BA
:102950008F929F92AF92BF92CF92DF92EF92FF92AF
:10296000CF93DF93EC01688179818A819B81611526
:1029700071058105910521F464E279ED8BE597E01D
:102980002DE133EF41E050E00E940D1549015A015D
:102990009B01AC01A7EAB1E40E942C156B017C01FC
:1029A000ACEEB4EFA50194010E943A15DC01CB0115
:1029B0008C0D9D1DAE1DBF1DB7FF03C00197A10962
:1029C000B04888839983AA83BB83BC01CD019F77DC
:1029D000DF91CF91FF90EF90DF90CF90BF90AF90BD
:1029E0009F908F9008950E94A81408958AE091E026
:1029F0000E94A814089560930A0170930B018093BC
:102A00000C0190930D010895FB01DC0102C00590BB
:102A10000D9241505040D8F70895052E97FB1EF4B3
:102A200000940E94241557FD07D00E943F1507FC13
:102A300003D04EF40C942415509540953095219573
:102A40003F4F4F4F5F4F08959095809570956195DA
:102A50007F4F8F4F9F4F08950E946115A59F900D46
:102A6000B49F900DA49F800D911D11240895B7FF70
:102A70000C942C150E942C15821B930B0895A1E237
:102A80001A2EAA1BBB1BFD010DC0AA1FBB1FEE1FE8
:102A9000FF1FA217B307E407F50720F0A21BB30B33
:102AA000E40BF50B661F771F881F991F1A9469F7AF
:102AB00060957095809590959B01AC01BD01CF010B
:102AC0000895A29FB001B39FC001A39F700D811D07
:102AD0001124911DB29F700D811D1124911D089527
:102AE0005058BB27AA270E9488150C94FB160E94F9
:102AF000ED1638F00E94F41620F039F49F3F19F4D7
:102B000026F40C94EA160EF4E095E7FB0C94E41618
:102B1000E92F0E940C1758F3BA176207730784074E
:102B2000950720F079F4A6F50C942E170EF4E09595
:102B30000B2EBA2FA02D0B01B90190010C01CA0177
:102B4000A0011124FF27591B99F0593F50F4503E22
:102B500068F11A16F040A22F232F342F4427585F14
:102B6000F3CF469537952795A795F0405395C9F72C
:102B70007EF41F16BA0B620B730B840BBAF09150E4
:102B8000A1F0FF0FBB1F661F771F881FC2F70EC083
:102B9000BA0F621F731F841F48F487957795679556
:102BA000B795F7959E3F08F0B0CF9395880F08F042
:102BB0009927EE0F9795879508950E94C01608F4FF
:102BC00081E008950E94F6150C94FB160E94F416FD
:102BD00058F00E94ED1640F029F45F3F29F00C9464
:102BE000E41651110C942F170C94EA160E940C173E
:102BF00068F39923B1F3552391F3951B550BBB272C
:102C0000AA2762177307840738F09F5F5F4F220F70
:102C1000331F441FAA1FA9F335D00E2E3AF0E0E867
:102C200032D091505040E695001CCAF72BD0FE2FB1
:102C300029D0660F771F881FBB1F26173707480745
:102C4000AB07B0E809F0BB0B802DBF01FF279358FD
:102C50005F4F3AF09E3F510578F00C94E4160C94C7
:102C60002F175F3FE4F3983ED4F3869577956795E9
:102C7000B795F7959F5FC9F7880F911D9695879532
:102C800097F90895E1E0660F771F881FBB1F621751
:102C900073078407BA0720F0621B730B840BBA0B0F
:102CA000EE1F88F7E09508950E94141788F09F574B
:102CB00098F0B92F9927B751B0F0E1F0660F771F60
:102CC000881F991F1AF0BA95C9F714C0B13091F056
:102CD0000E942E17B1E008950C942E17672F782FBD
:102CE0008827B85F39F0B93FCCF38695779567951B
:102CF000B395D9F73EF490958095709561957F4F87
:102D00008F4F9F4F0895E89409C097FB3EF490952C
:102D10008095709561957F4F8F4F9F4F9923A9F0B4
:102D2000F92F96E9BB279395F69587957795679543
:102D3000B795F111F8CFFAF4BB0F11F460FF1BC087
:102D40006F5F7F4F8F4F9F4F16C0882311F096E91A
:102D500011C0772321F09EE8872F762F05C06623C8
:102D600071F096E8862F70E060E02AF09A95660F81
:102D7000771F881FDAF7880F9695879597F908953A
:102D8000990F0008550FAA0BE0E8FEEF161617067C
:102D9000E807F907C0F012161306E407F50798F0E4
:102DA000621B730B840B950B39F40A2661F0232BFD
:102DB000242B252B21F408950A2609F4A140A69579
:102DC0008FEF811D811D089597F99F6780E870E05E
:102DD00060E008959FEF80EC089500240A94161691
:102DE000170618060906089500240A9412161306F9
:102DF000140605060895092E0394000C11F4882387
:102E000052F0BB0F40F4BF2B11F460FF04C06F5FA2
:102E10007F4F8F4F9F4F089557FD9058440F551F78
:102E200059F05F3F71F04795880F97FB991F61F04C
:102E30009F3F79F087950895121613061406551FC3
:102E4000F2CF4695F1DF08C0161617061806991F2F
:102E5000F1CF86957105610508940895E894BB2724
:102E600066277727CB0197F908950E94C01608F4CA
:102E70008FEF08950E944D170C94FB160E94ED16DB
:102E800038F00E94F41620F0952311F00C94E4160B
:102E90000C94EA1611240C942F170E940C1770F34F
:102EA000959FC1F3950F50E0551F629FF001729FEF
:102EB000BB27F00DB11D639FAA27F00DB11DAA1FFE
:102EC000649F6627B00DA11D661F829F2227B00D4B
:102ED000A11D621F739FB00DA11D621F839FA00DD6
:102EE000611D221F749F3327A00D611D231F849F26
:102EF000600D211D822F762F6A2F11249F5750407D
:102F00009AF0F1F088234AF0EE0FFF1FBB1F661FF7
:102F1000771F881F91505040A9F79E3F510580F0C0
:102F20000C94E4160C942F175F3FE4F3983ED4F30F
:102F3000869577956795B795F795E7959F5FC1F764
:102F4000FE2B880F911D9695879597F908950E94FD
:102F5000C016880B990B089597FB072E16F4009462
:102F600007D077FD09D00E94C01707FC05D03EF4BA
:102F7000909581959F4F0895709561957F4F089525
:102F8000AA1BBB1B51E107C0AA1FBB1FA617B7078F
:102F900010F0A61BB70B881F991F5A95A9F78095AB
:102FA0009095BC01CD010895EE0FFF1F0590F4919F
:102FB000E02D0994CF93DF938230910510F482E0E5
:102FC00090E0E091C404F091C50420E030E0C0E05E
:102FD000D0E0309711F14081518148175907C0F076
:102FE0004817590761F482819381209719F09B83D8
:102FF0008A832BC09093C5048093C40426C02115F6
:10300000310519F04217530718F49A01BE01DF0188
:10301000EF010280F381E02DDCCF2115310509F1AC
:10302000281B390B2430310590F412968D919C9118
:1030300013976115710521F0FB019383828304C00E
:103040009093C5048093C404FD01329644C0FD01F1
:10305000E20FF31F81939193225031092D933C93FA
:103060003AC02091C2043091C304232B41F4209133
:103070001001309111013093C3042093C2042091B8
:103080000E0130910F012115310541F42DB73EB7E6
:103090004091120150911301241B350BE091C204A1
:1030A000F091C304E217F307A0F42E1B3F0B28177F
:1030B000390778F0AC014E5F5F4F2417350748F0B1
:1030C0004E0F5F1F5093C3044093C20481939193AA
:1030D00002C0E0E0F0E0CF01DF91CF9108950F93BF
:1030E0001F93CF93DF93009709F48CC0FC013297B4
:1030F000138212820091C4041091C50401151105B8
:1031000081F420813181820F931F2091C20430917C
:10311000C3042817390779F5F093C304E093C20478
:1031200071C0D80140E050E0AE17BF0750F41296CE
:103130002D913C911397AD012115310509F1D9016C
:10314000F3CF9D01DA013383228360817181860F81
:10315000971F8217930769F4EC0128813981260FA4
:10316000371F2E5F3F4F318320838A819B8193835A
:103170008283452B29F4F093C504E093C40442C034
:103180001396FC93EE931297ED01499159919E018C
:10319000240F351FE217F30771F480819181840FAA
:1031A000951F029611969C938E938281938113961C
:1031B0009C938E931297E0E0F0E0D80112968D91E7
:1031C0009C911397009719F0F8018C01F6CF8D911F
:1031D0009C9198012E5F3F4F820F931F2091C20454
:1031E0003091C3042817390769F4309729F41092F5
:1031F000C5041092C40402C0138212821093C30447
:103200000093C204DF91CF911F910F91089581E047
:1032100090E0F8940C942219FB01DC0104C08D911C
:103220000190801921F441505040C8F7881B990B38
:103230000895FB01DC0102C001900D924150504005
:08324000D8F70895F894FFCFC0
:103248000100881300004208420801000000000045
:10325800C60480000D0E131516191A1C23252629DD
:103268002A2C323400000000AA07870C4207F10715
:1032780073075107650700000000F600F200EE0032
:10328800F201DA0005010101FD0000000000FD0562
:10329800870CB90170017F019701560100000000F9
:1032A8003C0579089C08FB0A43083901310187026B
:1032B800B802ED024708290126012301200119015E
:1032C8002C011601130110010D0164080D0A0057A5
:1032D800696C64666972652050726F6A65637420F0
:1032E8005374617274696E672055702E2E2E2E00ED
:1032F8004C6F526120726164696F20696E69742035
:103308006661696C6564004C6F5261207261646922
:103318006F20696E6974204F4B21005365742046F5
:1033280072657120746F3A200053454E44494E47E8
:1033380021005061636B65745B005D203D200020B7
:10334800546D703A20002C20436F323A20002C2014
:10335800436F543A20002C204F7A473A20002C2003
:1033680050504D3A20002C204261743A20005245BA
:103378004345495645443A200066616E6F666600CB
:103388005475726E696E672046616E204F4646001E
:1033980066616E6F6E005475726E696E6720466165
:1033A8006E204F4E00696E74657276616C00494EEE
:1033B80054455256414C3A20006E616E00696E6663
:0633C800006F76660000B4
:040000050080037EF6
:107800000C94343C0C94513C0C94513C0C94513CE1
:107810000C94513C0C94513C0C94513C0C94513CB4
:107820000C94513C0C94513C0C94513C0C94513CA4
:107830000C94513C0C94513C0C94513C0C94513C94
:107840000C94513C0C94513C0C94513C0C94513C84
:107850000C94513C0C94513C0C94513C0C94513C74
:107860000C94513C0C94513C11241FBECFEFD8E036
:10787000DEBFCDBF11E0A0E0B1E0ECE9FFE702C060
:1078800005900D92A230B107D9F712E0A2E0B1E065
:1078900001C01D92AD30B107E1F70E942D3D0C945F
:1078A000CC3F0C94003C982F959595959595959582
:1078B000905D8F708A307CF0282F295A8091C0000B
:1078C00085FFFCCF9093C6008091C00085FFFCCF60
:1078D0002093C6000895282F205DF0CF982F809127
:1078E000C00085FFFCCF9093C6000895EF92FF92F1
:1078F0000F931F93EE24FF2487018091C00087FD22
:1079000017C00894E11CF11C011D111D81E4E8164B
:1079100082E4F8068FE0080780E0180770F3E09132
:107920000401F091050109958091C00087FFE9CF1E
:107930008091C6001F910F91FF90EF9008950E94D3
:10794000763C982F8091C00085FFFCCF9093C600B5
:1079500091362CF490330CF09053892F089597555D
:10796000892F08951F930E949F3C182F0E949F3CCF
:107970001295107F810F1F9108951F93182F882350
:1079800021F00E94763C1150E1F71F9108951F935A
:10799000182F0E94763C803249F0809103018F5F5E
:1079A000809303018530C1F01F9108958091C0003C
:1079B00085FFFCCF84E18093C6008091C00085FFE5
:1079C000FCCF1093C6008091C00085FFFCCF80E102
:1079D0008093C6001F910895E0910401F091050184
:1079E00009951F9108950E94763C803241F0809164
:1079F00003018F5F80930301853081F008958091AA
:107A0000C00085FFFCCF84E18093C6008091C00058
:107A100085FFFCCF80E18093C6000895E0910401CA
:107A2000F09105010995089540E951E08823A1F0FE
:107A30002D9A28EE33E0FA013197F1F721503040CA
:107A4000D1F72D9828EE33E0FA013197F1F7215064
:107A50003040D1F7815061F708953F924F925F9285
:107A60006F927F928F929F92AF92BF92CF92DF924E
:107A7000EF92FF920F931F93CF93DF93000080E16B
:107A80008093C4001092C50088E18093C10086E015
:107A90008093C2005098589A259A81E00E94143D24
:107AA00024E1F22E9EE1E92E85E9D82E0FE0C02ECA
:107AB00010E1B12EAA24A394B1E49B2EA6E58A2E50
:107AC000F2E57F2EE0E26E2E79E4572E63E5462E36
:107AD00050E5352E0E94763C8033B1F18133B9F107
:107AE000803409F46FC0813409F476C0823409F41B
:107AF00085C0853409F488C0803531F1823521F1A3
:107B0000813511F1853509F485C0863509F48DC0BC
:107B1000843609F496C0843709F403C1853709F423
:107B200072C1863709F466C0809103018F5F80932C
:107B30000301853079F6E0910401F0910501099582
:107B40000E94763C803351F60E94F33CC3CF0E94E2
:107B5000763C803249F78091C00085FFFCCFF092DF
:107B6000C6008091C00085FFFCCF9092C600809136
:107B7000C00085FFFCCF8092C6008091C00085FFC9
:107B8000FCCF7092C6008091C00085FFFCCF609250
:107B9000C6008091C00085FFFCCF5092C600809146
:107BA000C00085FFFCCF4092C6008091C00085FFD9
:107BB000FCCF3092C6008091C00085FFFCCFB09210
:107BC000C60088CF0E94763C863808F4BDCF0E945C
:107BD000763C0E94F33C7ECF0E94763C803809F4CC
:107BE0009CC0813809F40BC1823809F43CC1883942
:107BF00009F48FC080E00E94C73C6CCF84E10E94F2
:107C0000BD3C0E94F33C66CF85E00E94BD3C0E94D3
:107C1000F33C60CF0E94763C809306010E94763C44
:107C2000809307010E94F33C55CF0E94763C80333D
:107C300009F41DC183E00E94BD3C80E00E94C73C66
:107C400049CF0E94763C809309020E94763C809343
:107C5000080280910C028E7F80930C020E94763C79
:107C6000853409F415C18091080290910902892B8D
:107C700089F000E010E00E94763CF801E85FFE4FDA
:107C800080830F5F1F4F80910802909109020817AF
:107C9000190788F30E94763C803209F045CF809125
:107CA0000C0280FF01C16091060170910701660F0F
:107CB000771F7093070160930601A0910802B091AD
:107CC00009021097C9F0E8E0F1E09B01AD014E0F09
:107CD0005F1FF999FECF32BD21BD819180BDFA9A17
:107CE000F99A2F5F3F4FE417F50799F76A0F7B1F4B
:107CF00070930701609306018091C00085FFFCCF5F
:107D0000F092C6008091C00085FFFCCFB092C60003
:107D1000E1CE83E00E94C73CDDCE82E00E94C73CFA
:107D2000D9CE0E94763C809309020E94763C8093D3
:107D300008028091060190910701880F991F909386
:107D40000701809306010E94763C853409F4A6C0A1
:107D500080910C028E7F80930C020E94763C8032D0
:107D600009F0B8CE8091C00085FFFCCFF092C6002C
:107D7000609108027091090261157105B9F140E046
:107D800050E080910C02A82FA170B82FB27011C0E2
:107D9000BB2309F45CC0E0910601F0910701319624
:107DA000F0930701E09306014F5F5F4F46175707B7
:107DB000E8F4AA2369F3F999FECF209106013091E6
:107DC000070132BD21BDF89A90B58091C00085FFB2
:107DD000FCCF9093C6002F5F3F4F30930701209355
:107DE00006014F5F5F4F4617570718F38091C00099
:107DF00085FDE5CE8091C00085FFF8CFE0CE81E023
:107E00000E94C73C67CE0E94763C803209F08CCE3F
:107E10008091C00085FFFCCFF092C6008091C00029
:107E200085FFFCCFE092C6008091C00085FFFCCFAB
:107E3000D092C6008091C00085FFFCCFC092C600E2
:107E40008091C00085FFFCCFB092C60043CEE09188
:107E50000601F091070194918091C00085FFFCCF4D
:107E60009093C6009CCF80E10E94C73C33CE0E9415
:107E7000763C0E94763C182F0E94763C112309F430
:107E800083C0113009F484C08FE00E94C73C22CE29
:107E900080910C02816080930C02E5CE80910C02EF
:107EA000816080930C0259CF809107018823880F4D
:107EB000880B8A2180930B02809106019091070123
:107EC000880F991F90930701809306018091080203
:107ED00080FF09C080910802909109020196909359
:107EE000090280930802F894F999FECF1127E091D6
:107EF0000601F0910701C8E0D1E08091080290915D
:107F00000902103091F40091570001700130D9F34B
:107F100003E000935700E89500915700017001308D
:107F2000D9F301E100935700E89509901990009169
:107F3000570001700130D9F301E000935700E89534
:107F40001395103498F011270091570001700130FB
:107F5000D9F305E000935700E895009157000170B0
:107F60000130D9F301E100935700E895329602976A
:107F700009F0C7CF103011F00296E5CF112480919F
:107F8000C00085FFB9CEBCCE8EE10E94C73CA2CD19
:0C7F900085E90E94C73C9ECDF894FFCF0D
:027F9C00800063
:040000030000780081
:00000001FF