:100000000C94B0000C94B1120C948A120C94350D1F
:100010000C94110D0C94ED0C0C94D8000C94D80099
:100020000C94D8000C94D8000C94D8000C94980729
:100030000C94D8000C94D8000C94D8000C94D800E0
:100040000C9440120C94D8000C9448050C94220592
:100050000C94D8000C94D8000C94D8000C94D800C0
:100060000C94D8000C94D800000000002500280053
:100070002B000000000023002600290004040404D3
:100080000404040402020202020203030303030342
:10009000010204081020408001020408102001021F
:1000A0000408102000C201000100110011000C0022
:1000B00000E100000A002500250021000096000054
:1000C0001900390039003600127A00001F0046007E
:1000D000460044008070000022004D004D004A00A0
:1000E000004B0000360075007500720040380000BB
:1000F0004A009C009C009900802500007200EC00E2
:10010000EC00E900C0120000E900DA01DA01D701D1
:1001100060090000D701B603B603B303B0040000C2
:10012000B3036E076E076B072C010000DC0EC11DC8
:10013000C11DBE1D72740092740048940078C40002
:1001400000000000240027002A0000000008000230
:1001500001000003040700000000000000009F13DE
:1001600011241FBECFEFD8E0DEBFCDBF12E0A0E06C
:10017000B1E0EEECFAE302C005900D92A83DB107A4
:10018000D9F725E0A8EDB2E001C01D92A431B20775
:10019000E1F710E0C0EBD0E004C02197FE010E941F
:1001A0003F19CF3AD107C9F70E9413150C94651D6A
:1001B0000C9400008F929F92AF92BF92CF92DF92E9
:1001C000EF92FF92CF93DF93A0918003882311F0E9
:1001D0003A2F01C030E08091810390E0880F991F91
:1001E0008E589F4FC0908603D0908703E09088037D
:1001F000F090890340E050E0BA01FC01C591D49130
:1002000028812A2323130FC04A015B012FEF821A92
:10021000920AA20AB20A4C155D056E057F0538F4F4
:10022000B501A401EACF342F252FCB0104C030E063
:1002300020E080E090E0632F722FDF91CF91FF905C
:10024000EF90DF90CF90BF90AF909F908F900895E8
:10025000CF92DF92EF92FF920F931F93CF93DF9392
:100260006C017A018B01C0E0D0E0CE15DF0589F08A
:10027000D8016D918D01D601ED91FC910190F08135
:10028000E02DC6010995892B11F47E0102C021964B
:10029000ECCFC701DF91CF911F910F91FF90EF90AD
:1002A000DF90CF90089588ED92E00E94381021E011
:1002B000892B09F420E0822F0895EF92FF920F938B
:1002C0001F93CF93DF93EC0181E0888F9B8D8C8D02
:1002D000981305C0E889F989808185FD24C0F62E30
:1002E0000B8D10E00F5F1F4F0F731127E02E8C8DC9
:1002F000E8120CC00FB607FCFACFE889F9898081B3
:1003000085FFF5CFCE010E942D11F1CF8B8DFE011F
:10031000E80FF11DE35AFF4FF0820B8FEA89FB894A
:100320008081806207C0EE89FF896083E889F9894E
:1003300080818064808381E090E0DF91CF911F9184
:100340000F91FF90EF900895CF93DF93EC01888D8C
:100350008823C9F0EA89FB89808185FD05C0A889C9
:10036000B9898C9186FD0FC00FB607FCF5CF80814F
:1003700085FFF2CFA889B9898C9185FFEDCFCE0199
:100380000E942D11E7CFDF91CF910895009769F07A
:10039000FC0101900020E9F73197AF01481B590B90
:1003A000BC0188ED92E00C94280180E090E0089573
:1003B000CF93DF930E94C601EC0183EA91E00E9493
:1003C000C6018C0F9D1FDF91CF9108958F929F9250
:1003D000AF92BF920F931F93CF93DF93CDB7DEB74A
:1003E000A1970FB6F894DEBF0FBECDBF19A2423061
:1003F00008F44AE08E010F5D1F4F842E912CA12C32
:10040000B12CA50194010E94A316E62FB901CA01DF
:1004100001501109EA3014F4E05D01C0E95CD80133
:10042000EC93232B242B252B61F7C8010E94C601D6
:10043000A1960FB6F894DEBF0FBECDBFDF91CF916E
:100440001F910F91BF90AF909F908F900895E09172
:10045000D802F091D9020190F081E02D682F88ED4B
:1004600092E009940C94C6018F929F92AF92BF9232
:10047000CF92DF92EF92FF920F931F93CF93DF9370
:10048000CDB7DEB727970FB6F894DEBF0FBECDBF4E
:100490008C0125E1E22EF12C80918D0390918E0349
:1004A000DC01ED91FC910084F185E02D0995892B0B
:1004B00009F062C00130110551F19CF401151105DC
:1004C00009F0C3C080918D0390918E03DC01ED9102
:1004D000FC910280F381E02D47E050E06AE171E099
:1004E00033C00230110511F10330110509F0ADC020
:1004F00080918D0390918E03DC01ED91FC9102803F
:10050000F381E02D48E050E064E071E01DC080918F
:100510008D0390918E03DC01ED91FC910280F381BB
:10052000E02D47E050E063E171E00EC080918D0363
:1005300090918E03DC01ED91FC910280F381E02D1E
:1005400047E050E06CE071E00995B1E0EB1AF1088A
:1005500009F47EC00E9434124B015C010E943412E7
:10056000DC01CB0188199909AA09BB0982389105D8
:10057000A105B1059CF390CF80918D0390918E03DE
:10058000DC01ED91FC910084F185E02D09958091CD
:100590008D0390918E03DC01ED91FC910084F18537
:1005A000E02D0995079749F5FE0131967F016E010F
:1005B000F8E0CF0ED11C80918D0390918E03DC0169
:1005C000ED91FC910284F385E02D0995F70181936B
:1005D0007F01EC15FD0579F7CC80D12CDC2CCC24E7
:1005E0008D81C80ED11C0D2C000CEE08FF080FB633
:1005F000F894DEBF0FBECDBF26C084EDC82E8EEFAF
:10060000D82EEE24EA94FE2C80918D0390918E03D7
:10061000DC01ED91FC910084F185E02D099518161F
:1006200019068CF4FFEFCF1ADF0AEF0AFF0A809158
:100630008D0390918E03DC01ED91FC910284F38592
:10064000E02D0995E1CFC60105C080E09FEF02C013
:1006500085E39FEF27960FB6F894DEBF0FBECDBFA0
:10066000DF91CF911F910F91FF90EF90DF90CF908E
:10067000BF90AF909F908F900895CF92DF92EF92AE
:10068000FF920F931F93CF93DF93CDB7DEB7C05484
:10069000D1400FB6F894DEBF0FBECDBF0E9434121A
:1006A000009182031091830320918403309185038C
:1006B0006B017C01C01AD10AE20AF30A40EDC416AC
:1006C00047E0D406E104F10418F480918A03BCC029
:1006D00060938203709383038093840390938503D4
:1006E00010927D0310927C0310927B0310927A0388
:1006F0001092790361E080917E030E9477116AEF86
:1007000070E080E090E00E94FA1161E080917E0349
:100710000E94A71160E080917E030E94771164E13E
:1007200070E080E090E00E94FA11F89461E080911E
:100730007E030E9477118BE990E00197F1F762E068
:1007400080917E030E94A71183E290E00197F1F768
:1007500080E00E94DA00672B682B692B21F410924D
:100760008A0378943EC081E00E94DA00672B682BF0
:10077000692BA9F38E010F5F1F4F6E018FEBC81A13
:100780008EEFD80A780180E00E94DA00F7016083DA
:1007900071838283938381E00E94DA00F70164838E
:1007A000758386839783F8E0EF0EF11CEC14FD044B
:1007B00051F7789420E030E0F80140815181628166
:1007C0007381C480D580E680F780411551056105AD
:1007D000710529F0C114D104E104F10421F410924F
:1007E0008A0380E031C0F90183E0F595E7958A95A9
:1007F000E1F7E758FC4F8081880F4C155D056E05C9
:100800007F0508F4816080832F5F3F4F085F1F4F93
:100810002832310589F620917D0330E0409179033B
:1008200080917A0390E0840F911D40917B03840FA7
:10083000911D40917C03840F911D9927281739073A
:1008400071F681E080938A03C05CDE4F0FB6F894A6
:10085000DEBF0FBECDBFDF91CF911F910F91FF90F3
:10086000EF90DF90CF9008954F925F926F927F92BA
:100870008F929F92AF92BF92CF92DF92EF92FF92B0
:100880006B017C01B42E9B01AC010E9412198823DC
:1008900019F086EA91E027C026013701E89477F83D
:1008A0002FEF3FEF4FE75FE7C301B2010E9412193C
:1008B00081110DC02FEF3FEF4FE75FE7C301B2019A
:1008C0000E94411718161CF48AEA91E00CC02FEF21
:1008D0003FEF4FE75FE4C701B6010E94A01818166A
:1008E00084F48EEA91E0FF90EF90DF90CF90BF907C
:1008F000AF909F908F907F906F905F904F900C94EF
:10090000C6012FEF3FEF4FE75FECC701B6010E9432
:10091000411787FDE6CF20E030E0A901C701B6010D
:100920000E94411787FF09C08DE20E9427024C01F7
:10093000F7FAF094F7F8F09402C0812C912CA12CD6
:1009400060E070E080E09FE3AB1441F020E030E035
:1009500040E251E40E944617A394F6CF9B01AC01FC
:10096000C701B6010E94D5162B013C010E94BF179A
:100970006B017C010E94EE179B01AC01C301B20127
:100980000E94D4162B013C014AE0C701B6010E9427
:10099000E6017C01E80CF91CBB2029F08EE20E94E4
:1009A0002702E80EF91EDB2CDD2021F120E030E0EB
:1009B00040E251E4C301B2010E94A5182B013C01A1
:1009C0000E94BF174B01A12CB12C4AE0C501B40114
:1009D0000E94E601E80EF91EC501B4010E94EE175F
:1009E0009B01AC01C301B2010E94D4162B013C0152
:1009F000DA94DACFC701FF90EF90DF90CF90BF90ED
:100A0000AF909F908F907F906F905F904F900895E0
:100A10008230B8F4E82FF0E0EE0FFF1FE050FF4FF8
:100A200071836083813039F08091690083608093A5
:100A30006900E89A0895809169008C60809369004C
:100A4000E99A08951F920F920FB60F9211242F93D7
:100A50003F934F935F936F937F938F939F93AF9346
:100A6000BF93EF93FF9388ED92E00E942D11FF91C9
:100A7000EF91BF91AF919F918F917F916F915F9116
:100A80004F913F912F910F900FBE0F901F9018958F
:100A90001F920F920FB60F9211242F938F939F9353
:100AA000EF93FF93E091E802F091E9028081E091F9
:100AB000EE02F091EF0282FD12C090818091F1026E
:100AC0008F5F8F732091F202821751F0E091F10253
:100AD000F0E0E852FD4F958F8093F10201C08081D4
:100AE000FF91EF919F918F912F910F900FBE0F90DB
:100AF0001F9018959FB7F8948091F904882319F0F6
:100B000081508093F9048091F904811105C08CB55E
:100B10008F7B8CBD1092FB049FBF08958CB58F779F
:100B20008CBD08958CB580688CBD08956EBD0000A5
:100B30000DB407FEFDCF8EB50895FC01738362836B
:100B40000895FC01778366830895FC0175836483AF
:100B500008950895089580E00895FC018185089521
:100B6000FC0180850895FC0187810895FC01868140
:100B70000895FC01409595854923642B6587089568
:100B8000FC0164870895FC0163870895FC01628776
:100B90000895FC0164830895FC016583089580E055
:100BA0000895FC012281338123303105D1F381E0A6
:100BB0000895CF93DF93EC01E881F9810280F381FE
:100BC000E02DCE0109958823B9F3DF91CF910895E7
:100BD00081E0089520917703309178032817390731
:100BE00081F49091750380917603981751F0E0910C
:100BF0007503F0E0E754FB4F8081082E000C990B41
:100C000008958FEF9FEF0895209177033091780337
:100C10002817390739F48FB7F89410927603109299
:100C200075038FBF0895CF93DF93FC012281338139
:100C30002230310569F0EC01668D848D0E947711B8
:100C400060E08B8D0E94771182E090E09B838A8325
:100C5000DF91CF910895CF93DF93EC01888D998D2B
:100C6000DC01ED91FC910680F781E02D099561E0B2
:100C70008A8D0E94A71161E08A8D0E94771164E637
:100C800070E080E090E00E94FA1181E0DF91CF9166
:100C900008950F931F93CF93FC0182819381843039
:100CA000910569F08330910579F08230910589F0E2
:100CB0000197A1F040E452E46FE070E013C040E01F
:100CC00054E264EF70E00EC040E052E16AE770E089
:100CD00009C040E059E06DE370E004C040E854E82A
:100CE0006EE170E0A481B58186819781009741F023
:100CF0008130910539F08230910531F0039731F060
:100D000090E005C094E003C098E001C09CE080E062
:100D100000E012E12AE730E040175107620773074D
:100D200040F436952795179507958F5F8630A1F784
:100D300087E021E02827119711F080E501C080E7C6
:100D4000322F3695932B982B908721702187CFB720
:100D5000F8948091F904811127C0E6E8F0E08491CD
:100D6000EAE9F0E09491E82FF0E0EE0FFF1FE05C7D
:100D7000FE4FA591B491EC91E92321F461E08AE062
:100D80000E94771161E08AE00E94A7118CB5806112
:100D90008CBD8CB580648CBD61E08DE00E94A71194
:100DA00061E08BE00E94A7118091F9048F5F80932E
:100DB000F904CFBFCF911F910F9108958F929F9209
:100DC000AF92BF92CF92DF92EF92FF92CF93DF93D9
:100DD000EC016B010E9434124B015C01E12CF12CFF
:100DE0000E943412DC01CB0188199909AA09BB09B8
:100DF0008C159D05AE05BF0530F48A819B81039754
:100E000079F381E001C080E0DF91CF91FF90EF9016
:100E1000DF90CF90BF90AF909F908F9008958F926A
:100E20009F92AF92BF92CF92DF92EF92FF92CF93B9
:100E3000DF93EC016B010E9434124B015C01E12C49
:100E4000F12C0E943412DC01CB0188199909AA09FE
:100E5000BB098C159D05AE05BF0550F4E881F981ED
:100E60000280F381E02DCE010995882351F301C062
:100E700080E0DF91CF91FF90EF90DF90CF90BF9017
:100E8000AF909F908F9008958F929F92AF92BF9254
:100E9000CF92DF92EF92FF92CF93DF93FC012689EE
:100EA0003789232B11F481E038C0EC010E94341201
:100EB0006B017C0189E0882E912CA12CB12CE8815A
:100EC000F9810488F589E02DCE010995882359F32D
:100ED0000E943412AB01BC014C195D096E097F09F7
:100EE0008E899F89A0E0B0E084179507A607B70711
:100EF00098F00E945A16A50194010E9471169B0158
:100F0000AC012F5F3F4F4F4F5F4FA4E6B0E00E9410
:100F100090160E94FA11D3CF80E0DF91CF91FF901D
:100F2000EF90DF90CF90BF90AF909F908F900895FB
:100F30001F920F920FB60F921124CF92DF92EF9271
:100F4000FF920F931F932F933F934F935F936F9352
:100F50007F938F939F93AF93BF93CF93DF93EF9341
:100F6000FF93C091FC04D091FD048A819B8104977A
:100F700009F0CAC02A8D30E0F901E65BFE4F84918A
:100F8000F901E057FF4F0491F901E458FF4F149124
:100F9000112379F081110E944E11E12FF0E0EE0F44
:100FA000FF1FEE58FF4FA591B491EC91E02381E033
:100FB00009F480E081709D8D892719F09AA19F5FC7
:100FC0009AA399A1891771F09BA1903518F02DE192
:100FD00030E002C02BE030E09BA1290F311D2BA394
:100FE00089A303C08BA18C5E8BA38BA1803A08F4EC
:100FF000DDC08DA19EA1969587959EA38DA38AA104
:10100000853028F08DA19EA198609EA38DA38BA111
:10101000805A8BA31AA28CA1882309F468C08FA1DF
:101020008F5F8FA38C3008F4C1C08DA19EA1982F33
:101030009F73892F86958695887028E0280F8217E0
:1010400049F0E82FF0E0ED56FE4F3081931719F08C
:101050008F5FF5CF80E020E1829FC00111242DA198
:101060003EA196E0369527959A95E1F7422F369561
:10107000279536952795287038E0320F231749F0C9
:10108000E22FF0E0ED56FE4F5081451719F02F5F2B
:10109000F5CF20E0822BAE0144595F4FFA019081D9
:1010A000DE01A559BF4F9923B1F0FA01908121E0EB
:1010B000290F20839E01290F311DF90180A7FA0114
:1010C00090818C91981788F01CA281E08F8FCE01BF
:1010D0000E9413060AC08C939C91973008F460C05C
:1010E0009C91943408F05CC0E0CF1FA25FC08DA13A
:1010F0009EA188339B4009F059C081E08CA31FA2B8
:10110000C459DF4F188252C08A819B81039709F02E
:101110004DC08E0101591F4FF801808191E0980F59
:101120009083811137C07E01FDE6EF0EF11CF701BF
:101130008081EF56FF4F9081891748F0CE010E94C1
:1011400013068B899C8901969C8B8B8B23C0FE0197
:10115000E80FF11DE059FF4F608170E06E01FEE67F
:10116000CF0ED11CF601808191E0980F908302C0D0
:10117000759567958A95E2F7617077278B8D0E9448
:101180007711F6018081863028F01082F701808186
:101190008F5F8083F8018081883040F0108206C024
:1011A0001CA28F8598890196988B8F87FF91EF916C
:1011B000DF91CF91BF91AF919F918F917F916F916F
:1011C0005F914F913F912F911F910F91FF90EF9061
:1011D000DF90CF900F900FBE0F901F9018958091C9
:1011E000FB04882361F09FB7F8942091FB04809161
:1011F000FA04213019F48DBB9FBF08958FBF089565
:101200002091FB04222379F02FB7F8943091FB044E
:10121000313039F43DB33093FA043DB33DBB2FBFB9
:1012200002C02093FA048CBD9DBD0895EF92FF92F9
:101230000F931F93CF93DF931F92CDB7DEB77C013F
:10124000162F0FB7F894DC015896ED91FC91599741
:101250008085918549830E94000960E0F701828DB5
:101260000E947711D70158968D919C915997DC0176
:10127000ED91FC91612F60680190F081E02D09955E
:10128000182FF701808D918DDC01ED91FC9101907B
:10129000F081E02D4981642F099561E0F701828D8D
:1012A0000E9477110E94EF080FBF812F0F90DF91EE
:1012B000CF911F910F91FF90EF9008950F931F937F
:1012C000CF93DF93EC01162F0FB7F894E88DF98DCB
:1012D000808591850E94000960E08A8D0E947711C7
:1012E000888D998DDC01ED91FC91612F6F770190D4
:1012F000F081E02D0995888D998DDC01ED91FC91AF
:101300000190F081E02D60E00995182F61E08A8D51
:101310000E9477110E94EF080FBF812FDF91CF91BC
:101320001F910F910895DF92EF92FF920F931F93F9
:10133000CF93DF93EC0162E10E945E092A813B8139
:101340002430310519F4982F907A41F42A813B8199
:1013500024303105A1F486FD20C011C08F85988905
:101360000196988B8F874FEF62E1CE01DF91CF918D
:101370001F910F91FF90EF90DF900C9416092A8136
:101380003B812330310509F0A2C083FFA0C08B89C7
:101390009C8901969C8B8B8BA4C063E1CE010E943B
:1013A0005E09F82E60E1CE010E945E09482F6DE0D3
:1013B000CE010E941609DFB6F894E88DF98D80857C
:1013C00091850E94000960E08A8D0E947711888DC6
:1013D000998DDC01ED91FC910190F081E02D60E0B0
:1013E00009958E01025E1F4FEF2CE00EE01671F0A2
:1013F000888D998DDC01ED91FC910190F081E02DBB
:1014000060E00995F80181938F01F0CF61E08A8D4A
:101410000E9477110E94EF08DFBEFD8E4FEF62E160
:10142000CE010E94160969E1CE010E945E098E017B
:10143000015E1E4F87FD8D5F85958595D8018C9344
:101440006AE1CE010E945E098E87F80190818E8547
:1014500097FF03C0890F8E8709C0F0E18F02C0019A
:1014600011246FE070E00E9417196E87FE01E25EA2
:10147000FE4F8081882319F08E858D5902C08E859C
:10148000845A8E878D8DFE01E35EFE4F843090F08E
:101490008E8D8E838F8D8F8388A1888789A1898780
:1014A0008D8181110CC09E818C81981741F08E81B5
:1014B0008F3F29F08081882309F455CF12C0898994
:1014C0009A8901969A8B898B81E08083F3CF2A8158
:1014D0003B812530310509F046CF82FF44CF817032
:1014E0008D8BCE010E94FC123ECFEF92FF920F93A4
:1014F0001F93CF93DF9300D01F92CDB7DEB78C013F
:101500000E942B06F82E882341F1F801838D82304A
:1015100019F0833011F523C0E12C40E861E0C801E7
:101520000E9416096AE070E080E090E00E94FA11E3
:1015300061E0C8010E945E098038A1F061E0C80145
:101540000E945E09682F70E080E090E040E10E9418
:10155000E60183EA91E00E94C601F12C75C0EE24F9
:10156000E394DBCF60E0F801838D0E94A711F801BE
:10157000848D8F3F49F48091FE04843070F791E0B0
:10158000980F9093FE04848FF801848DE82FF0E08B
:10159000EE0FFF1FEF5FFA4F11830083811103C02D
:1015A00064E271E109C0813019F46BE171E104C0BA
:1015B000823099F662E171E18E2D0E94080540E0CB
:1015C0006EE0C8010E94160940E06FE0C8010E9469
:1015D0001609C8010E94FC1243E050E064E371E088
:1015E000CE0101960E94681649816DE1C8010E94F2
:1015F00016094A816EE1C8010E9416094B8166E214
:10160000C8010E94160940E060E2C8010E94160964
:1016100048E061E2C8010E9416094CE666E0C80194
:101620000E94160940E867E0C8010E94160940E0E0
:1016300068E0C8010E941609F801E25EFE4F1082C0
:101640006DE0C8010E94D8128F2D0F900F900F905F
:10165000DF91CF911F910F91FF90EF900895DC01E2
:101660005196ED91FC915297908150968C91809576
:101670008923808308952091770330917803281778
:10168000390771F4809176032091750390E0805CB6
:101690009F4F821B910960E470E00E941719089522
:1016A00080E090E008952091770330917803281727
:1016B0003907B9F49091750380917603981789F0F2
:1016C000E0917503F0E0E754FB4F808120917503B2
:1016D00030E02F5F3F4F2F7333272093750390E047
:1016E00008958FEF9FEF0895089580E090E00895AA
:1016F000CF92DF92EF92FF920F931F93CF93DF93DE
:10170000CDB7DEB7CC5FD1090FB6F894DEBF0FBE00
:10171000CDBF8BEFC450DF4F8883CC5FD04068E8EB
:1017200073E18FE893E00E940F078823A1F1AE01D7
:1017300044505F4F8E010F5F1F4FB8018FE893E059
:101740000E94CD10882321F18CE092E00E943202A9
:10175000C0909D030C2C000CDD08EE08FF08F7FE7E
:101760000CC08DE20E94270266277727CB016C19F7
:101770007D098E099F094AE003C04AE0C701B6010E
:101780000E94E60183EA91E00E94C601C80109C0F7
:101790008EE192E002C080E392E00E94D80180E0F6
:1017A00090E0C450DF4F0FB6F894DEBF0FBECDBF40
:1017B000DF91CF911F910F91FF90EF90DF90CF902D
:1017C00008950F931F93CF93DF931F92CDB7DEB78A
:1017D0008C01462F61E08FE049830E94A71161E0F0
:1017E0008FE00E9477114981B8018FE893E00E9451
:1017F00010138FE893E00E94D10561E08FE00E9412
:10180000A71160E08FE00E94771180E090E00F90D8
:10181000DF91CF911F910F91089520E001972FEF55
:101820008F3F9207D9F70895DF92EF92FF920F93BF
:101830001F93CF93DF93EC01298D3A8D211531054C
:1018400029F481E090E09B838A835AC0162FDFB68B
:10185000F8948B8D81FD4DC0CE010E942F0B898D98
:101860009A8D05960E940D0C8B8D98E0E92EF12C37
:1018700001E081FF1AC0802F812321F0CE010E9458
:101880002F0B06C0E989FA8990818889892B80838A
:10189000898D9A8D0E940D0C000F81E0E81AF108E5
:1018A00051F7CE010E942F0B1CC0802F812339F0ED
:1018B000E989FA8990818889892B808303C0CE01C8
:1018C0000E942F0B898D9A8D0E940D0C000F81E0D4
:1018D000E81AF10851F7E989FA8990818889892BFA
:1018E0008083DFBE898D9A8D0E940D0C21E030E04F
:1018F00007C0E989FA8990818889892B8083AFCFD5
:10190000C901DF91CF911F910F91FF90EF90DF9070
:101910000895EF92FF920F931F93CF93DF93C0919F
:101920007703D0917803209709F450C09B8DEE8502
:10193000FF858D8591FF04C09081892329F446C0DD
:101940009081892309F042C08B899C890E940D0CEB
:1019500088E0E82EF12C10E001E08D899E890E943C
:101960000D0CEE85FF8590818D85892311F0102B5C
:1019700003C0802F80951823000F81E0E81AF1083A
:1019800061F78F89988D0E940D0C8B8D81FD1095CC
:10199000809176032091750390E001968F739927CB
:1019A00030E08217930779F0E0917603F0E0E75496
:1019B000FB4F10838091760390E001968F739927F7
:1019C0008093760303C08B8D81608B8FDF91CF91E5
:1019D0001F910F91FF90EF9008951F920F920FB6F5
:1019E0000F9211242F933F934F935F936F937F93A5
:1019F0008F939F93AF93BF93EF93FF930E94890CB4
:101A0000FF91EF91BF91AF919F918F917F916F91D6
:101A10005F914F913F912F910F900FBE0F901F90AC
:101A200018951F920F920FB60F9211242F933F9388
:101A30004F935F936F937F938F939F93AF93BF93D6
:101A4000EF93FF930E94890CFF91EF91BF91AF91AB
:101A50009F918F917F916F915F914F913F912F91C6
:101A60000F900FBE0F901F9018951F920F920FB6F8
:101A70000F9211242F933F934F935F936F937F9314
:101A80008F939F93AF93BF93EF93FF930E94890C23
:101A9000FF91EF91BF91AF919F918F917F916F9146
:101AA0005F914F913F912F910F900FBE0F901F901C
:101AB00018952F923F924F925F926F927F928F92E2
:101AC0009F92AF92BF92CF92DF92EF92FF920F93CD
:101AD0001F93CF93DF93CDB7DEB7C651D1400FB67A
:101AE000F894DEBF0FBECDBFFE01E550FF4F11924F
:101AF00011921192119288E1DF011D928A95E9F706
:101B00008CE190E00E9445198C018CE1F801119262
:101B10008A95E9F78091FF04909100055C01FFEF41
:101B2000AF1ABF0AB0920005A092FF0461E080E105
:101B30000E947711C501BB0CAA0BBB0BF801808377
:101B40009183A283B3830E943D038823D1F18091C6
:101B50007F038B3029F0A8F18551823048F031C0E5
:101B600060917B0370E080E090E00E94EE172DC052
:101B7000B0907B036B2D6F7770E080E090E00E9467
:101B8000F01720E030E040E853E40E94A5182B0154
:101B90003C0180917C03682F70E080E090E00E941F
:101BA000F0179B01AC01C301B2010E94D5162DECC8
:101BB0003CEC4CEC5DE30E94A518B7FE06C09058C3
:101BC00004C060E070E080EC9FE726E636E646EE73
:101BD0005FE30E94A51820E030E040E052E40E945C
:101BE000D516D80150966D937D938D939C93539702
:101BF00080E090E00E943402BC01990F880B990BA1
:101C00000E94F017F801648375838683978381E0CF
:101C100090E00E943402BC01990F880B990B0E943E
:101C2000F01720E030E048EC52E40E94461720E034
:101C300030E040E151E40E94A51820E030E040EAA5
:101C400050E40E94461720E030E040E052E40E9459
:101C5000D5160E94B817072E000C880B990B0E940E
:101C6000F017D80118966D937D938D939C931B97D5
:101C700041E3A42EB12CC701B6010E94BF17862FE5
:101C80000E94E311BC01990F880B990B0E94F01779
:101C90009B01AC01C701B6010E94D5166B017C0106
:101CA000B1E0AB1AB10839F72AE037ED43EA5CE35B
:101CB0000E94A51829E238E240EA5BE30E94A518D9
:101CC000F801648775878687978783E1E82EF12C72
:101CD000412C512C32019BE5892E94E0992E2BE961
:101CE000A22EB12C3BE3C32E37E9D32E60E08AE06D
:101CF0000E947711C4010197F1F781E10E94E3117D
:101D00001C01C5010197F1F761E08AE00E9477119B
:101D1000C6010197F1F7C6010197F1F7B101330C44
:101D2000880B990B0E94F01720E030E040EA5BE35B
:101D30000E94A5182BE734E14EE25EE30E94A5184D
:101D40002DEC3CEC4CEC5DE30E94D41620E030E03E
:101D50004AE754E40E94A5189B01AC01C301B201FB
:101D60000E94D5162B013C01F1E0EF1AF10809F0B1
:101D7000BDCF20E030E040EA51E40E944617D80190
:101D800054966D937D938D939C9357976AE070E082
:101D900080E090E00E94FA118EE00E94E311BC0105
:101DA000990F880B990B0E94F01720E030E040E873
:101DB0005AE30E94A51821EE3AE740EA50E40E9457
:101DC000A51820E030E040E051E40E94A51821EE83
:101DD0003AE740EA50E40E94461724E533E645E539
:101DE00052EC0E94A51828E431EE4BED53E40E941A
:101DF000D516F801608F718F828F938FC080D1804C
:101E0000E280F380C550DF4FC882D982EA82FB822C
:101E1000CB5FD040C088D188E288F388C150DF4FC3
:101E2000C882D982EA82FB82CF5FD040C480D5804D
:101E3000E680F780CD5FDE4FC882D982EA82FB82DE
:101E4000C350D140C95FDE4FC882D982EA82FB828B
:101E5000C750D140C484D584E684F784C55FDE4F83
:101E6000C882D982EA82FB82CB50D140C488D5880F
:101E7000E688F788C15FDE4FC882D982EA82FB829A
:101E8000CF50D140CD5EDE4F688379838A839B83B8
:101E9000C351D14083818F9382818F9381818F93AE
:101EA00080818F938DE392E09F938F93CE01019673
:101EB0007C019F938F930E948D1AC7010E9432026A
:101EC0008BE492E00E943202D80150966D917D9190
:101ED0008D919C91539742E00E94340483E592E0F7
:101EE0000E943202F801648175818681978142E007
:101EF0000E9434048BE592E00E943202D8011896C9
:101F00006D917D918D919C911B9742E00E943404CC
:101F100088E692E00E943202F80164857585868524
:101F2000978542E00E94340486E792E00E943202E4
:101F3000D80154966D917D918D919C91579742E077
:101F40000E9434048EE792E00E943202F801608D14
:101F5000718D828D938D42E00E94340483EA91E07A
:101F60000E94C6010FB6F894DEBF0FBECDBF6CE174
:101F700070E0CE0185509F4F0E94E10B0E94780BCC
:101F80007C0164E670E080E090E00E94FA114CE190
:101F900050E0BE0165507F4FC7010E94771A892B20
:101FA00059F58AE892E00E94D80164E070E086EA80
:101FB00092E00E94E10BC8010E94DA1960E080E122
:101FC0000E947711CA5EDE4F0FB6F894DEBF0FBED7
:101FD000CDBFDF91CF911F910F91FF90EF90DF90D8
:101FE000CF90BF90AF909F908F907F906F905F90B9
:101FF0004F903F902F9008958AEA92E00E94D80176
:1020000064EF71E080E090E00E94FA11B0CFFC0133
:10201000538D448D252F30E0842F90E0821B930B4D
:10202000541710F0CF96089501970895FC01918DF3
:10203000828D981761F0828DDF01A80FB11D5D962A
:102040008C91928D9F5F9F73928F90E008958FEF98
:102050009FEF0895FC01918D828D981731F0828D4C
:10206000E80FF11D858D90E008958FEF9FEF0895A3
:10207000FC01918D228D892F90E0805C9F4F821B07
:1020800091098F739927089580E090E0892B29F0BA
:102090000E94530181110C94000008953FB7F894F9
:1020A00080910C0590910D05A0910E05B0910F0542
:1020B00026B5A89B05C02F3F19F00196A11DB11DA3
:1020C0003FBFBA2FA92F982F8827820F911DA11DDE
:1020D000B11DBC01CD0142E0660F771F881F991F1B
:1020E0004A95D1F7089508958BEF08950E94721ACA
:1020F000CF93DF93EC018A819B81059771F047E0D4
:1021000061E0CE010E94160940E860E4CE010E9421
:10211000160985E090E09B838A838A819B810597DD
:10212000E1F38D89DF91CF910895CF93DF93FC0187
:10213000228133812130310549F0EC0140E061E03A
:102140000E94160981E090E09B838A8381E0DF9101
:10215000CF910895CF93DF93FC0122813381233007
:102160003105B9F0EC0182819381049771F045E06B
:1021700061E0CF010E94160940E060E4CE010E94B8
:10218000160984E090E09B838A83C35EDE4F8881DA
:1021900001C080E0DF91CF910895CF92DF92EF925E
:1021A000FF920F931F93CF93DF93EC017B018A0182
:1021B000E881F9810280F381E02D0995D82E8823EA
:1021C00039F1E114F104E1F001151105C9F0CFB6C0
:1021D000F8942D8D30E023503109F801808190E092
:1021E000821793071CF09D8D94509083F8014081D5
:1021F00050E0BE016E5D7F4FC7010E94841ACFBEC2
:102200008FB7F894FE01E35EFE4F10821D8E8FBFE4
:102210008D2DDF91CF911F910F91FF90EF90DF9067
:10222000CF9008958091050590910605009711F0D3
:102230000C949309089580910305909104050097EB
:1022400011F00C9493090895809101059091020575
:10225000009711F00C9493090895FC01848DDF011F
:10226000A80FB11DA35ABF4F2C91848D90E0019609
:102270008F739927848FA689B7892C93A089B189F8
:102280008C9180648C93938D848D981306C0028802
:10229000F389E02D80818F7D80830895833081F0E4
:1022A00028F4813099F08230A1F008958730A9F0A8
:1022B0008830B9F08430D1F4809180008F7D03C0E4
:1022C000809180008F7780938000089584B58F7708
:1022D00002C084B58F7D84BD08958091B0008F7752
:1022E00003C08091B0008F7D8093B00008951F934C
:1022F000CF93DF93282F30E0F901E65BFE4F849106
:10230000F901E057FF4FD491F901E458FF4FC49110
:10231000CC23C9F0162F81110E944E11EC2FF0E052
:10232000EE0FFF1FE859FF4FA591B4918FB7F894B6
:10233000111105C09C91ED2FE095E92302C0EC91AD
:10234000ED2BEC938FBFDF91CF911F910895CF9329
:10235000DF9390E0FC01E057FF4F2491FC01E4582B
:10236000FF4F8491882361F190E0880F991FFC0151
:10237000E05CFE4FC591D491FC01E859FF4FA59157
:10238000B491611109C09FB7F89488812095822388
:102390008883EC912E230BC0623061F49FB7F894D0
:1023A0003881822F809583238883EC912E2B2C9368
:1023B0009FBF06C08FB7F894E8812E2B28838FBF6C
:1023C000DF91CF9108958E3008F08E508770806431
:1023D00080937C0080917A00806480937A00809161
:1023E0007A0086FDFCCF809178002091790090E002
:1023F000922B08958F929F92AF92BF92CF92DF92CD
:10240000EF92FF926B017C010E944E104B015C0128
:10241000C114D104E104F104F1F00E944E10DC017A
:10242000CB0188199909AA09BB09883E9340A105E7
:10243000B10570F321E0C21AD108E108F10888EE75
:10244000880E83E0981EA11CB11CC114D104E104C4
:10245000F10419F7DDCFFF90EF90DF90CF90BF90A0
:10246000AF909F908F9008952FB7F89460910805D2
:102470007091090580910A0590910B052FBF089571
:102480001F920F920FB60F9211242F933F938F93A9
:102490009F93AF93BF938091080590910905A091F8
:1024A0000A05B0910B053091070523E0230F2D3766
:1024B00020F40196A11DB11D05C026E8230F029648
:1024C000A11DB11D20930705809308059093090570
:1024D000A0930A05B0930B0580910C0590910D0512
:1024E000A0910E05B0910F050196A11DB11D80931D
:1024F0000C0590930D05A0930E05B0930F05BF91A9
:10250000AF919F918F913F912F910F900FBE0F90A0
:102510001F9018951F920F920FB60F9211242F93B0
:102520003F934F935F936F937F938F939F93AF935B
:10253000BF93EF93FF93E0910201F091030109959E
:10254000FF91EF91BF91AF919F918F917F916F918B
:102550005F914F913F912F910F900FBE0F901F9061
:1025600018951F920F920FB60F9211242F933F933D
:102570004F935F936F937F938F939F93AF93BF938B
:10258000EF93FF93E0910001F09101010995FF9114
:10259000EF91BF91AF919F918F917F916F915F91DB
:1025A0004F913F912F910F900FBE0F901F90189554
:1025B0000F931F93CF938C01C62F68312CF4653095
:1025C0005CF0653114F409C0C7E147E06DE4C8016F
:1025D0000E941609C35006C0C5E044E06DE4C8017E
:1025E0000E9416094BEF4C0F406869E0C801CF917B
:1025F0001F910F910C941609CF93DF93FC01228158
:1026000033812230310549F0EC0141E061E00E9464
:10261000160982E090E09B838A83DF91CF91089531
:10262000BF92CF92DF92EF92FF920F931F93CF93BF
:10263000DF934C3F10F0E12C77C0142F072FF62EBC
:10264000EC01E881F9810484F585E02D0995CE013E
:102650000E94FC12E881F9810288F389E02DCE0105
:102660000995E82E882339F340E06DE0CE010E9401
:1026700016094A8560E0CE010E9416094B8560E08C
:10268000CE010E9416094C8560E0CE010E94160919
:102690004D8560E0CE010E941609BFB6F894E88D22
:1026A000F98D808591850E94000960E08A8D0E94E5
:1026B0007711888D998DDC01ED91FC910190F0816D
:1026C000E02D60E80995CF2CD02E012F015068F045
:1026D000888D998DF60161916F01DC01ED91FC917E
:1026E0000190F081E02D0995F1CF61E08A8D0E9483
:1026F00077110E94EF08BFBE44E0410F62E2CE01B5
:102700000E9416098A819B81039771F043E061E082
:10271000CE010E94160940E460E4CE010E94160931
:1027200083E090E09B838A838E2DDF91CF911F9170
:102730000F91FF90EF90DF90CF90BF900895CF92D0
:10274000DF92EF92FF92CF93DF931092DB02109211
:10275000DA0298EEC92E93E0D92EE12CF12CC0922A
:10276000DC02D092DD02E092DE02F092DF028FE224
:1027700091E09093D9028093D80285EC90E09093F9
:10278000E5028093E40284EC90E09093E70280936A
:10279000E60280EC90E09093E9028093E80281ECFD
:1027A00090E09093EB028093EA0282EC90E09093A9
:1027B000ED028093EC0286EC90E09093EF02809320
:1027C000EE021092F1021092F2021092F3021092B5
:1027D000F4021092B2041092B1041092B404109258
:1027E000B3041092B6041092B50480E58093B70448
:1027F0001092B80481E491E09093B0048093AF0408
:1028000010929203109291038FEF80939303809321
:10281000990380939A0310929B0310929C03109249
:102820009F0310929E031092A1031092A003109296
:10283000A3031092A2031092A6031092A5032FEAFD
:1028400034E03093A8032093A70394E09093A90366
:1028500027E631E03093900320938F031092AC046D
:1028600093E09093AA038093AB038CE190E00E94E5
:102870004519EC011B821A82CC82DD82EE82FF8236
:1028800085E591E0998388831C8A1B8A1E8A1D8AAC
:10289000188E1F8A1A8E198E8B8D8E7F8D7F8B8F4F
:1028A00061E089E00E94A71161E089E00E94771150
:1028B000E9E9F0E0E491E88BE5E8F0E0E491F0E0AC
:1028C000EE0FFF1FE859FF4F859194919A8B898BEA
:1028D00060E088E00E94A7118B8D81FD04C061E05B
:1028E00088E00E94771188E08C87E8E9F0E0E491C5
:1028F000ED87E4E8F0E0E491F0E0EE0FFF1FEE5822
:10290000FF4F859194919F878E87D0938E03C093BC
:102910008D031A8E198E188E1F8A1E8A1D8A84EACC
:1029200090E020E030E0FC01459155916591749173
:10293000403855426105710519F54CE0429FC001D0
:10294000439F900D1124FC01E855FF4F25913491D0
:102950003C8B2B8BFC01E655FF4F259134913E8B30
:102960002D8BFC01E455FF4F25913491388F2F8B2F
:10297000FC01E255FF4F859194919A8F898F09C090
:102980002F5F3F4F0C962C30310509F0CCCF1C8ABD
:102990001B8A8F89988D892B71F0809168008160E6
:1029A0008093680080916B00816080936B00898DBB
:1029B0009A8D0E940D0C80917703909178038C176B
:1029C0009D0771F08B8D8E7F8B8F8FB7F89410924F
:1029D000760310927503D0937803C09377038FBF6B
:1029E00087E080937E038BE080937F03E7E9F0E04C
:1029F000E491E0938003E3E8F0E0E491E093810365
:102A000080E89EE3A0E0B0E0809386039093870384
:102A1000A0938803B0938903DF91CF91FF90EF904B
:102A2000DF90CF900895789484B5826084BD84B59A
:102A3000816084BD85B5826085BD85B5816085BDB9
:102A400080916E00816080936E0010928100809171
:102A500081008260809381008091810081608093F9
:102A60008100809180008160809380008091B1001E
:102A700084608093B1008091B00081608093B00049
:102A800080917A00846080937A0080917A008260DD
:102A900080937A0080917A00816080937A0080919F
:102AA0007A00806880937A001092C100E091E80279
:102AB000F091E90282E08083E091E402F091E50286
:102AC0001082E091E602F091E7028FEC8083109291
:102AD000F002E091EC02F091ED0286E08083E0915B
:102AE000EA02F091EB02808180618083E091EA024A
:102AF000F091EB02808188608083E091EA02F0919E
:102B0000EB02808180688083E091EA02F091EB0221
:102B100080818F7D808382EB91E00E94D80168EEF6
:102B200073E080E090E00E94FA1160E08EE00E9485
:102B3000A71161E08FE00E94A71161E080E10E948F
:102B4000A71161E080E10E94771183E10E94E31107
:102B500061E082E00E94A71161E082E00E947711AB
:102B600060E082E00E9477116AE070E080E090E02F
:102B70000E94FA1161E082E00E9477116AE070E041
:102B800080E090E00E94FA118FE893E00E94750ABD
:102B9000811109C083ED91E00E94D80164E670E0E4
:102BA00080E090E0EFCF8AEE91E00E94D80144EE01
:102BB00066E08FE893E00E94160940EC67E08FE83A
:102BC00093E00E94160940E068E08FE893E00E94DD
:102BD0001609C1E0C093AD048EEF91E00E9432026D
:102BE00042E060E070EC84E694E40E94340483EAFE
:102BF00091E00E94C6016FE08FE893E00E94D81236
:102C000082E08093930380939A03C09399030E9478
:102C1000590D0E944410FBCF8F929F92AF92BF92AA
:102C2000CF92DF92EF92FF92CF93DF93EC01688116
:102C300079818A819B81611571058105910521F456
:102C400064E279ED8BE597E02DE133EF41E050E070
:102C50000E94711649015A019B01AC01A7EAB1E437
:102C60000E9490166B017C01ACEEB4EFA5019401BB
:102C70000E949E16DC01CB018C0D9D1DAE1DBF1D5B
:102C8000B7FF03C00197A109B04888839983AA833D
:102C9000BB83BC01CD019F77DF91CF91FF90EF9077
:102CA000DF90CF90BF90AF909F908F9008950E943B
:102CB0000C16089581E291E00E940C16089560932D
:102CC00021017093220180932301909324010895A0
:102CD000FB01DC0102C005900D9241505040D8F735
:102CE0000895052E97FB1EF400940E94881657FD48
:102CF00007D00E94A31607FC03D04EF40C9488164C
:102D000050954095309521953F4F4F4F5F4F089517
:102D100090958095709561957F4F8F4F9F4F089547
:102D20000E94C516A59F900DB49F900DA49F800D85
:102D3000911D11240895B7FF0C9490160E949016CF
:102D4000821B930B0895A1E21A2EAA1BBB1BFD0147
:102D50000DC0AA1FBB1FEE1FFF1FA217B307E4077A
:102D6000F50720F0A21BB30BE40BF50B661F771FD2
:102D7000881F991F1A9469F76095709580959095B2
:102D80009B01AC01BD01CF010895A29FB001B39F8B
:102D9000C001A39F700D811D1124911DB29F700D64
:102DA000811D1124911D08955058BB27AA270E9408
:102DB000EC160C9466180E94581838F00E945F18A0
:102DC00020F039F49F3F19F426F40C9455180EF4B2
:102DD000E095E7FB0C944F18E92F0E94771858F301
:102DE000BA17620773078407950720F079F4A6F5F0
:102DF0000C9499180EF4E0950B2EBA2FA02D0B0110
:102E0000B90190010C01CA01A0011124FF27591B2F
:102E100099F0593F50F4503E68F11A16F040A22F35
:102E2000232F342F4427585FF3CF469537952795A6
:102E3000A795F0405395C9F77EF41F16BA0B620BA5
:102E4000730B840BBAF09150A1F0FF0FBB1F661FEC
:102E5000771F881FC2F70EC0BA0F621F731F841F2F
:102E600048F4879577956795B795F7959E3F08F055
:102E7000B0CF9395880F08F09927EE0F9795879517
:102E800008950E942B1808F481E008950E945A17B3
:102E90000C9466180E945F1858F00E94581840F071
:102EA00029F45F3F29F00C944F1851110C949A1893
:102EB0000C9455180E94771868F39923B1F35523A1
:102EC00091F3951B550BBB27AA276217730784073D
:102ED00038F09F5F5F4F220F331F441FAA1FA9F3D3
:102EE00035D00E2E3AF0E0E832D091505040E695C1
:102EF000001CCAF72BD0FE2F29D0660F771F881F22
:102F0000BB1F261737074807AB07B0E809F0BB0B14
:102F1000802DBF01FF2793585F4F3AF09E3F510528
:102F200078F00C944F180C949A185F3FE4F3983E95
:102F3000D4F3869577956795B795F7959F5FC9F711
:102F4000880F911D9695879597F90895E1E0660F92
:102F5000771F881FBB1F621773078407BA0720F00B
:102F6000621B730B840BBA0BEE1F88F7E095089574
:102F70000E94BF176894B1110C949A1808950E948A
:102F80007F1888F09F5798F0B92F9927B751B0F064
:102F9000E1F0660F771F881F991F1AF0BA95C9F7DD
:102FA00014C0B13091F00E949918B1E008950C94CA
:102FB0009918672F782F8827B85F39F0B93FCCF37D
:102FC000869577956795B395D9F73EF4909580955A
:102FD000709561957F4F8F4F9F4F0895E89409C07A
:102FE00097FB3EF490958095709561957F4F8F4F3C
:102FF0009F4F9923A9F0F92F96E9BB279395F69552
:10300000879577956795B795F111F8CFFAF4BB0FCF
:1030100011F460FF1BC06F5F7F4F8F4F9F4F16C033
:10302000882311F096E911C0772321F09EE8872FBD
:10303000762F05C0662371F096E8862F70E060E079
:103040002AF09A95660F771F881FDAF7880F9695F2
:10305000879597F90895990F0008550FAA0BE0E896
:10306000FEEF16161706E807F907C0F0121613064A
:10307000E407F50798F0621B730B840B950B39F48A
:103080000A2661F0232B242B252B21F408950A26F0
:1030900009F4A140A6958FEF811D811D089597F930
:1030A0009F6780E870E060E008959FEF80EC0895EE
:1030B00000240A9416161706180609060895002417
:1030C0000A9412161306140605060895092E039491
:1030D000000C11F4882352F0BB0F40F4BF2B11F405
:1030E00060FF04C06F5F7F4F8F4F9F4F089557FD64
:1030F0009058440F551F59F05F3F71F04795880F66
:1031000097FB991F61F09F3F79F0879508951216FC
:1031100013061406551FF2CF4695F1DF08C01616A8
:1031200017061806991FF1CF869571056105089459
:103130000895E894BB2766277727CB0197F9089570
:103140000E942B1808F48FEF08950E94B8180C9471
:1031500066180E94581838F00E945F1820F09523D6
:1031600011F00C944F180C94551811240C949A18C3
:103170000E94771870F3959FC1F3950F50E0551F8B
:10318000629FF001729FBB27F00DB11D639FAA27BC
:10319000F00DB11DAA1F649F6627B00DA11D661F0B
:1031A000829F2227B00DA11D621F739FB00DA11D2C
:1031B000621F839FA00D611D221F749F3327A00DE6
:1031C000611D231F849F600D211D822F762F6A2F82
:1031D00011249F5750409AF0F1F088234AF0EE0FE7
:1031E000FF1FBB1F661F771F881F91505040A9F714
:1031F0009E3F510580F00C944F180C949A185F3F35
:10320000E4F3983ED4F3869577956795B795F7954F
:10321000E7959F5FC1F7FE2B880F911D96958795C7
:1032200097F908950E942B18880B990B089597FB26
:10323000072E16F4009407D077FD09D00E942B19B1
:1032400007FC05D03EF4909581959F4F08957095A9
:1032500061957F4F0895AA1BBB1B51E107C0AA1FB0
:10326000BB1FA617B70710F0A61BB70B881F991F27
:103270005A95A9F780959095BC01CD010895EE0F60
:10328000FF1F0590F491E02D0994CF93DF938230D6
:10329000910510F482E090E0E0911205F0911305A1
:1032A00020E030E0C0E0D0E0309711F14081518162
:1032B00048175907C0F04817590761F48281938174
:1032C000209719F09B838A832BC0909313058093DA
:1032D000120526C02115310519F04217530718F4BD
:1032E0009A01BE01DF01EF010280F381E02DDCCF06
:1032F0002115310509F1281B390B2430310590F4D3
:1033000012968D919C9113976115710521F0FB0127
:103310009383828304C09093130580931205FD016B
:10332000329644C0FD01E20FF31F81939193225026
:1033300031092D933C933AC020911005309111052D
:10334000232B41F42091270130912801309311055E
:10335000209310052091250130912601211531057A
:1033600041F42DB73EB74091290150912A01241B09
:10337000350BE0911005F0911105E217F307A0F469
:103380002E1B3F0B2817390778F0AC014E5F5F4FBB
:103390002417350748F04E0F5F1F509311054093D7
:1033A00010058193919302C0E0E0F0E0CF01DF913E
:1033B000CF9108950F931F93CF93DF93009709F454
:1033C0008CC0FC0132971382128200911205109179
:1033D00013050115110581F420813181820F931F9E
:1033E00020911005309111052817390779F5F093D0
:1033F0001105E093100571C0D80140E050E0AE1710
:10340000BF0750F412962D913C911397AD012115F1
:10341000310509F1D901F3CF9D01DA01338322830C
:1034200060817181860F971F8217930769F4EC0101
:1034300028813981260F371F2E5F3F4F318320832C
:103440008A819B8193838283452B29F4F093130512
:10345000E093120542C01396FC93EE931297ED0190
:10346000499159919E01240F351FE217F30771F41A
:1034700080819181840F951F029611969C938E9363
:103480008281938113969C938E931297E0E0F0E0F3
:10349000D80112968D919C911397009719F0F8011D
:1034A0008C01F6CF8D919C9198012E5F3F4F820F3A
:1034B000931F20911005309111052817390769F4E1
:1034C000309729F4109213051092120502C013824E
:1034D00012821093110500931005DF91CF911F9177
:1034E0000F91089581E090E0F8940C94651DFB0124
:1034F000DC0104C08D910190801921F441505040AD
:10350000C8F7881B990B0895FB01DC0102C00190EC
:103510000D9241505040D8F70895AEE0B0E0E3E995
:10352000FAE10C943C1D0D891E8986E08C831A8378
:1035300009838FEF9FE79E838D83AE01475E5F4FC8
:103540006F89788DCE0101960E94B01A2F8138853F
:10355000F801E20FF31F10822E96E4E00C94581D40
:10356000ACE0B0E0E6EBFAE10C942E1D7C016B01BF
:103570008A01FC0117821682838181FFBDC1CE01C1
:1035800001964C01F7019381F60193FD859193FF1C
:1035900081916F01882309F4ABC1853239F493FD21
:1035A000859193FF81916F01853229F4B70190E0F5
:1035B0000E94981CE7CF512C312C20E02032A0F43F
:1035C0008B3269F030F4803259F0833269F4206133
:1035D0002CC08D3239F0803339F4216026C022604E
:1035E000246023C0286021C027FD27C030ED380F9C
:1035F0003A3078F426FF06C0FAE05F9E300D1124C1
:10360000532E13C08AE0389E300D1124332E2062D1
:103610000CC08E3221F426FD6BC1206406C08C36AE
:1036200011F4206802C0883641F4F60193FD8591BB
:1036300093FF81916F018111C1CF982F9F7D955488
:10364000933028F40C5F1F4FFFE3F9830DC08336DE
:1036500031F0833771F0833509F05BC022C0F80187
:10366000808189830E5F1F4F44244394512C540161
:1036700015C03801F2E06F0E711CF801A080B18016
:1036800026FF03C0652D70E002C06FEF7FEFC5011C
:103690002C870E948D1C2C0183012C852F77222ED4
:1036A00017C03801F2E06F0E711CF801A080B180E4
:1036B00026FF03C0652D70E002C06FEF7FEFC501EC
:1036C0002C870E94821C2C012C852068222E8301CD
:1036D00023FC1BC0832D90E048165906B0F4B701B7
:1036E00080E290E00E94981C3A94F4CFF50127FC08
:1036F000859127FE81915F01B70190E00E94981C9F
:1037000031103A94F1E04F1A51084114510471F705
:10371000E5C0843611F0893639F5F80127FF07C076
:1037200060817181828193810C5F1F4F08C060812D
:103730007181072E000C880B990B0E5F1F4F2F769F
:10374000722E97FF09C090958095709561957F4F77
:103750008F4F9F4F2068722E2AE030E0A4010E9414
:10376000D01CA82EA81844C0853729F42F7EB22E6D
:103770002AE030E025C0F22FF97FBF2E8F36C1F04E
:1037800018F4883579F0B4C0803719F0883721F003
:10379000AFC02F2F2061B22EB4FE0DC08B2D8460E0
:1037A000B82E09C024FF0AC09F2F9660B92E06C00C
:1037B00028E030E005C020E130E002C020E132E046
:1037C000F801B7FE07C060817181828193810C5F2F
:1037D0001F4F06C06081718180E090E00E5F1F4F37
:1037E000A4010E94D01CA82EA818FB2DFF777F2EC5
:1037F00076FE0BC0372D3E7FA51450F474FE0AC030
:1038000072FC08C0372D3E7E05C0BA2C372D03C090
:10381000BA2C01C0B52C34FF0DC0FE01EA0DF11D1C
:103820008081803311F4397E09C032FF06C0B39421
:10383000B39404C0832F867809F0B39433FD13C08A
:1038400030FF06C05A2CB31418F4530C5B18B32C79
:10385000B31468F4B70180E290E03C870E94981CA2
:10386000B3943C85F5CFB31410F43B1801C0312C50
:1038700034FF12C0B70180E390E03C870E94981C9F
:103880003C8532FF17C031FD03C088E790E002C0DD
:1038900088E590E0B7010CC0832F867859F031FF9E
:1038A00002C08BE201C080E237FD8DE2B70190E0FB
:1038B0000E94981CA51438F4B70180E390E00E94A0
:1038C000981C5A94F7CFAA94F401EA0DF11D808157
:1038D000B70190E00E94981CA110F5CF332009F4A5
:1038E00051CEB70180E290E00E94981C3A94F6CF46
:1038F000F7018681978102C08FEF9FEF2C96E2E15E
:103900000C944A1DFC010590615070400110D8F7DD
:10391000809590958E0F9F1F0895FC016150704017
:1039200001900110D8F7809590958E0F9F1F0895F4
:103930000F931F93CF93DF93FB01238121FD03C0DE
:103940008FEF9FEF28C022FF16C046815781248148
:1039500035814217530744F4A081B1819D012F5F47
:103960003F4F318320838C93268137812F5F3F4FD8
:103970003783268310C0EB01092F182F0084F185AF
:10398000E02D0995892BE1F68E819F8101969F8319
:103990008E83812F902FDF91CF911F910F910895EA
:1039A000FA01AA27283051F1203181F1E8946F9370
:1039B0006E7F6E5F7F4F8F4F9F4FAF4FB1E03ED016
:1039C000B4E03CD0670F781F891F9A1FA11D680FB4
:1039D000791F8A1F911DA11D6A0F711D811D911DE7
:1039E000A11D20D009F468943F912AE0269F11245C
:1039F0003019305D3193DEF6CF010895462F4770C0
:103A0000405D4193B3E00FD0C9F7F6CF462F4F701A
:103A1000405D4A3318F0495D31FD4052419302D078
:103A2000A9F7EACFB4E0A69597958795779567951E
:103A3000BA95C9F700976105710508959B01AC011E
:103A40000A2E06945795479537952795BA95C9F745
:103A5000620F731F841F951FA01D08952F923F9220
:103A60004F925F926F927F928F929F92AF92BF928E
:103A7000CF92DF92EF92FF920F931F93CF93DF933A
:103A8000CDB7DEB7CA1BDB0B0FB6F894DEBF0FBE97
:103A9000CDBF09942A88398848885F846E847D84E4
:103AA0008C849B84AA84B984C884DF80EE80FD80E6
:103AB0000C811B81AA81B981CE0FD11D0FB6F8945C
:0E3AC000DEBF0FBECDBFED010895F894FFCF1D
:103ACE0073107310FE4100600135E853FE4400147C
:103ADE000297E5FE440012029445FE440008029F40
:103AEE002501000000000014058000000000005DAC
:103AFE000128010710A401381016102A100000002A
:103B0E0000960592058E0549067A05A505A1059D27
:103B1E000500000000140C2801750B04063B0B5326
:103B2E000BEA0500000000750AAA10CD10101374E0
:103B3E0010D905D105DE060F0744077810C905C652
:103B4E0005C305C005B905CC05B605B305B005AD71
:103B5E000595100D0E131516191A1C232526292A44
:103B6E002C32340D0A006E616E00696E66006F763F
:103B7E00660057696C64666972652050726F6A657B
:103B8E006374205374617274696E672055702E2EA3
:103B9E002E2E004C6F526120726164696F20696E27
:103BAE006974206661696C6564004C6F52612072A5
:103BBE006164696F20696E6974204F4B21005365F3
:103BCE0074204672657120746F3A2000476F74201E
:103BDE007265706C792C20525353493A200052650D
:103BEE006365697665206661696C65642E2E2E00AC
:103BFE0054696D6564206F75742E2E2E00506163AE
:103C0E006B65745B25645D203D3E002054656D70D0
:103C1E003A20002C20436F323A20002C20436F3282
:103C2E005F54656D703A20002C204F7A6F6E655F81
:103C3E004761733A20002C2050504D3A20002C2022
:103C4E00426174746572793A20005061636B6574D9
:103C5E0073206D617463682E2053656E64696E67A0
:103C6E002041434B2E0041434B004552524F523A96
:103C7E00205041434B45545320444F204E4F542027
:103C8E004D41544348212053454E44494E4720410F
:083C9E004741494E2E2E2E0075
:107800000C94343C0C94513C0C94513C0C94513CE1
:107810000C94513C0C94513C0C94513C0C94513CB4
:107820000C94513C0C94513C0C94513C0C94513CA4
:107830000C94513C0C94513C0C94513C0C94513C94
:107840000C94513C0C94513C0C94513C0C94513C84
:107850000C94513C0C94513C0C94513C0C94513C74
:107860000C94513C0C94513C11241FBECFEFD8E036
:10787000DEBFCDBF11E0A0E0B1E0ECE9FFE702C060
:1078800005900D92A230B107D9F712E0A2E0B1E065
:1078900001C01D92AD30B107E1F70E942D3D0C945F
:1078A000CC3F0C94003C982F959595959595959582
:1078B000905D8F708A307CF0282F295A8091C0000B
:1078C00085FFFCCF9093C6008091C00085FFFCCF60
:1078D0002093C6000895282F205DF0CF982F809127
:1078E000C00085FFFCCF9093C6000895EF92FF92F1
:1078F0000F931F93EE24FF2487018091C00087FD22
:1079000017C00894E11CF11C011D111D81E4E8164B
:1079100082E4F8068FE0080780E0180770F3E09132
:107920000401F091050109958091C00087FFE9CF1E
:107930008091C6001F910F91FF90EF9008950E94D3
:10794000763C982F8091C00085FFFCCF9093C600B5
:1079500091362CF490330CF09053892F089597555D
:10796000892F08951F930E949F3C182F0E949F3CCF
:107970001295107F810F1F9108951F93182F882350
:1079800021F00E94763C1150E1F71F9108951F935A
:10799000182F0E94763C803249F0809103018F5F5E
:1079A000809303018530C1F01F9108958091C0003C
:1079B00085FFFCCF84E18093C6008091C00085FFE5
:1079C000FCCF1093C6008091C00085FFFCCF80E102
:1079D0008093C6001F910895E0910401F091050184
:1079E00009951F9108950E94763C803241F0809164
:1079F00003018F5F80930301853081F008958091AA
:107A0000C00085FFFCCF84E18093C6008091C00058
:107A100085FFFCCF80E18093C6000895E0910401CA
:107A2000F09105010995089540E951E08823A1F0FE
:107A30002D9A28EE33E0FA013197F1F721503040CA
:107A4000D1F72D9828EE33E0FA013197F1F7215064
:107A50003040D1F7815061F708953F924F925F9285
:107A60006F927F928F929F92AF92BF92CF92DF924E
:107A7000EF92FF920F931F93CF93DF93000080E16B
:107A80008093C4001092C50088E18093C10086E015
:107A90008093C2005098589A259A81E00E94143D24
:107AA00024E1F22E9EE1E92E85E9D82E0FE0C02ECA
:107AB00010E1B12EAA24A394B1E49B2EA6E58A2E50
:107AC000F2E57F2EE0E26E2E79E4572E63E5462E36
:107AD00050E5352E0E94763C8033B1F18133B9F107
:107AE000803409F46FC0813409F476C0823409F41B
:107AF00085C0853409F488C0803531F1823521F1A3
:107B0000813511F1853509F485C0863509F48DC0BC
:107B1000843609F496C0843709F403C1853709F423
:107B200072C1863709F466C0809103018F5F80932C
:107B30000301853079F6E0910401F0910501099582
:107B40000E94763C803351F60E94F33CC3CF0E94E2
:107B5000763C803249F78091C00085FFFCCFF092DF
:107B6000C6008091C00085FFFCCF9092C600809136
:107B7000C00085FFFCCF8092C6008091C00085FFC9
:107B8000FCCF7092C6008091C00085FFFCCF609250
:107B9000C6008091C00085FFFCCF5092C600809146
:107BA000C00085FFFCCF4092C6008091C00085FFD9
:107BB000FCCF3092C6008091C00085FFFCCFB09210
:107BC000C60088CF0E94763C863808F4BDCF0E945C
:107BD000763C0E94F33C7ECF0E94763C803809F4CC
:107BE0009CC0813809F40BC1823809F43CC1883942
:107BF00009F48FC080E00E94C73C6CCF84E10E94F2
:107C0000BD3C0E94F33C66CF85E00E94BD3C0E94D3
:107C1000F33C60CF0E94763C809306010E94763C44
:107C2000809307010E94F33C55CF0E94763C80333D
:107C300009F41DC183E00E94BD3C80E00E94C73C66
:107C400049CF0E94763C809309020E94763C809343
:107C5000080280910C028E7F80930C020E94763C79
:107C6000853409F415C18091080290910902892B8D
:107C700089F000E010E00E94763CF801E85FFE4FDA
:107C800080830F5F1F4F80910802909109020817AF
:107C9000190788F30E94763C803209F045CF809125
:107CA0000C0280FF01C16091060170910701660F0F
:107CB000771F7093070160930601A0910802B091AD
:107CC00009021097C9F0E8E0F1E09B01AD014E0F09
:107CD0005F1FF999FECF32BD21BD819180BDFA9A17
:107CE000F99A2F5F3F4FE417F50799F76A0F7B1F4B
:107CF00070930701609306018091C00085FFFCCF5F
:107D0000F092C6008091C00085FFFCCFB092C60003
:107D1000E1CE83E00E94C73CDDCE82E00E94C73CFA
:107D2000D9CE0E94763C809309020E94763C8093D3
:107D300008028091060190910701880F991F909386
:107D40000701809306010E94763C853409F4A6C0A1
:107D500080910C028E7F80930C020E94763C8032D0
:107D600009F0B8CE8091C00085FFFCCFF092C6002C
:107D7000609108027091090261157105B9F140E046
:107D800050E080910C02A82FA170B82FB27011C0E2
:107D9000BB2309F45CC0E0910601F0910701319624
:107DA000F0930701E09306014F5F5F4F46175707B7
:107DB000E8F4AA2369F3F999FECF209106013091E6
:107DC000070132BD21BDF89A90B58091C00085FFB2
:107DD000FCCF9093C6002F5F3F4F30930701209355
:107DE00006014F5F5F4F4617570718F38091C00099
:107DF00085FDE5CE8091C00085FFF8CFE0CE81E023
:107E00000E94C73C67CE0E94763C803209F08CCE3F
:107E10008091C00085FFFCCFF092C6008091C00029
:107E200085FFFCCFE092C6008091C00085FFFCCFAB
:107E3000D092C6008091C00085FFFCCFC092C600E2
:107E40008091C00085FFFCCFB092C60043CEE09188
:107E50000601F091070194918091C00085FFFCCF4D
:107E60009093C6009CCF80E10E94C73C33CE0E9415
:107E7000763C0E94763C182F0E94763C112309F430
:107E800083C0113009F484C08FE00E94C73C22CE29
:107E900080910C02816080930C02E5CE80910C02EF
:107EA000816080930C0259CF809107018823880F4D
:107EB000880B8A2180930B02809106019091070123
:107EC000880F991F90930701809306018091080203
:107ED00080FF09C080910802909109020196909359
:107EE000090280930802F894F999FECF1127E091D6
:107EF0000601F0910701C8E0D1E08091080290915D
:107F00000902103091F40091570001700130D9F34B
:107F100003E000935700E89500915700017001308D
:107F2000D9F301E100935700E89509901990009169
:107F3000570001700130D9F301E000935700E89534
:107F40001395103498F011270091570001700130FB
:107F5000D9F305E000935700E895009157000170B0
:107F60000130D9F301E100935700E895329602976A
:107F700009F0C7CF103011F00296E5CF112480919F
:107F8000C00085FFB9CEBCCE8EE10E94C73CA2CD19
:0C7F900085E90E94C73C9ECDF894FFCF0D
:027F9C00800063
:040000030000780081
:00000001FF