:100000000C9453000C947B000C947B000C947B00AC
:100010000C947B000C947B000C947B000C947B0074
:100020000C947B000C947B000C947B000C947B0064
:100030000C947B000C947B000C947B000C947B0054
:100040000C9457020C947B000C9425020C94FF0135
:100050000C947B000C947B000C947B000C947B0034
:100060000C947B000C947B0000000000250028000D
:100070002B0000000000240027002A0004040404D0
:100080000404040402020202020203030303030342
:10009000010204081020408001020408102001021F
:1000A00004081020970311241FBECFEFD8E0DEBF55
:1000B000CDBF11E0A0E0B1E0E2EAF1E102C00590BD
:1000C0000D92AC33B107D9F721E0ACE3B1E001C048
:1000D0001D92A63EB207E1F710E0C3E5D0E004C0F0
:1000E0002197FE010E94BF04C235D107C9F70E94C3
:1000F000A1020C94CF080C940000CF93DF9390E002
:10010000FC01E057FF4F2491FC01E458FF4F84911C
:100110008823C1F090E0880F991FFC01EE58FF4F33
:10012000C591D491FC01E859FF4FA591B4919FB7B7
:10013000F8948881E22FE0958E2388838C91E823C0
:10014000EC939FBFDF91CF910895CF92DF92EF9212
:10015000FF920F931F93CF93DF936C017A018B0172
:10016000C0E0D0E0CE15DF0589F0D8016D918D019A
:10017000D601ED91FC910190F081E02DC601099529
:10018000892B11F47E0102C02196ECCFC701DF91CB
:10019000CF911F910F91FF90EF90DF90CF90089536
:1001A000089580E090E00895FC01538D448D252F43
:1001B00030E0842F90E0821B930B541710F0CF9601
:1001C000089501970895FC01918D828D981761F033
:1001D000828DDF01A80FB11D5D968C91928D9F5F7E
:1001E0009F73928F90E008958FEF9FEF0895FC0129
:1001F000918D828D981731F0828DE80FF11D858DDC
:1002000090E008958FEF9FEF0895FC01918D228D6E
:10021000892F90E0805C9F4F821B91098F739927F3
:10022000089585E491E00E94050121E0892B09F4FD
:1002300020E0822F0895FC01848DDF01A80FB11DFD
:10024000A35ABF4F2C91848D90E001968F7399270C
:10025000848FA689B7892C93A089B1898C918064F9
:100260008C93938D848D981306C00288F389E02DBA
:1002700080818F7D80830895EF92FF920F931F936B
:10028000CF93DF93EC0181E0888F9B8D8C8D981349
:1002900005C0E889F989808185FD24C0F62E0B8D83
:1002A00010E00F5F1F4F0F731127E02E8C8DE812A7
:1002B0000CC00FB607FCFACFE889F989808185FF69
:1002C000F5CFCE010E941B01F1CF8B8DFE01E80F0F
:1002D000F11DE35AFF4FF0820B8FEA89FB89808181
:1002E000806207C0EE89FF896083E889F98980818F
:1002F0008064808381E090E0DF91CF911F910F9126
:10030000FF90EF900895CF93DF93EC01888D8823C1
:10031000C9F0EA89FB89808185FD05C0A889B98972
:100320008C9186FD0FC00FB607FCF5CF808185FF4D
:10033000F2CFA889B9898C9185FFEDCFCE010E94BB
:100340001B01E7CFDF91CF91089580E090E0892BEA
:1003500029F00E94110181110C94000008958E3043
:1003600008F08E508770806480937C0080917A00C2
:10037000806480937A0080917A0086FDFCCF809122
:1003800078002091790090E0922B08953FB7F8947F
:100390008091410190914201A0914301B0914401AB
:1003A00026B5A89B05C02F3F19F00196A11DB11DD0
:1003B0003FBFBA2FA92F982F8827820F911DA11D0B
:1003C000B11DBC01CD0142E0660F771F881F991F48
:1003D0004A95D1F70895009769F0FC01019000203B
:1003E000E9F73197AF01481B590BBC0185E491E057
:1003F0000C94A50080E090E008950E94F2051F9201
:100400000F920FB60F9211242F933F934F935F9348
:100410006F937F938F939F93AF93BF93EF93FF93CC
:1004200085E491E00E941B01FF91EF91BF91AF9194
:100430009F918F917F916F915F914F913F912F91FC
:100440000F900FBE0F901F9018951F920F920FB62E
:100450000F9211242F938F939F93EF93FF93E0912B
:100460005501F09156018081E0915B01F0915C01B2
:1004700082FD12C0908180915E018F5F8F73209109
:100480005F01821751F0E0915E01F0E0EB5BFE4FFF
:10049000958F80935E0101C08081FF91EF919F91C4
:1004A0008F912F910F900FBE0F901F9018951F9254
:1004B0000F920FB60F9211242F933F938F939F9318
:1004C000AF93BF9380913D0190913E01A0913F0178
:1004D000B091400130913C0123E0230F2D3720F4EF
:1004E0000196A11DB11D05C026E8230F0296A11D8E
:1004F000B11D20933C0180933D0190933E01A09358
:100500003F01B09340018091410190914201A0913F
:100510004301B09144010196A11DB11D8093410199
:1005200090934201A0934301B0934401BF91AF91D6
:100530009F918F913F912F910F900FBE0F901F9021
:100540001895789484B5826084BD84B5816084BD3B
:1005500085B5826085BD85B5816085BD80916E0061
:10056000816080936E001092810080918100826092
:1005700080938100809181008160809381008091CF
:1005800080008160809380008091B10084608093BE
:10059000B1008091B00081608093B00080917A00BA
:1005A000846080937A0080917A00826080937A00E0
:1005B00080917A00816080937A0080917A008068CF
:1005C00080937A001092C10088E191E00E94EB01D3
:1005D00084E291E00E94EB01E0915501F091560117
:1005E00082E08083E0915101F09152011082E0910C
:1005F0005301F09154018FEC808310925D01E091E2
:100600005901F0915A0186E08083E0915701F09101
:100610005801808180618083E0915701F0915801F9
:10062000808188608083E0915701F091580180813A
:1006300080688083E0915701F091580180818F7D1F
:10064000808383E10E947D0082E10E947D0081E140
:100650000E947D001AE303EA93E8B92E28E2A22E55
:10066000C7E2D1E081E10E94AF0183E10E94AF01C6
:100670007C0182E10E94AF013C0182E390E00E9494
:10068000C5046C01B70166197709072E000C880BA9
:10069000990B0E94C6032AE936E648E454E40E9416
:1006A00001049F938F937F936F931F930F93BF9238
:1006B000AF92DF93CF93DF92CF920E94F705C601EE
:1006C0000E94EB01C6010E945A050E94C6012B013F
:1006D0003C018DB79EB70C960FB6F8949EBF0FBE27
:1006E0008DBF88EEC82E83E0D82EE12CF12C0E941D
:1006F000C601DC01CB0184199509A609B709883E1A
:100700009340A105B10558F091E0C91AD108E1085C
:10071000F10828EE420E23E0521E611C711CC11428
:10072000D104E104F10419F70E94A5019BCFE5E48F
:10073000F1E01382128288EE93E0A0E0B0E08483BF
:100740009583A683B7838AE091E09183808385ECCB
:1007500090E09587848784EC90E09787868780EC8B
:1007600090E0918B808B81EC90E0938B828B82EC7C
:1007700090E0958B848B86EC90E0978B868B118E26
:10078000128E138E148E0895E89409C097FB3EF4E0
:1007900090958095709561957F4F8F4F9F4F9923CE
:1007A000A9F0F92F96E9BB279395F695879577954C
:1007B0006795B795F111F8CFFAF4BB0F11F460FF0C
:1007C0001BC06F5F7F4F8F4F9F4F16C0882311F064
:1007D00096E911C0772321F09EE8872F762F05C078
:1007E000662371F096E8862F70E060E02AF09A9513
:1007F000660F771F881FDAF7880F9695879597F908
:1008000008950E9414040C9485040E94770438F023
:100810000E947E0420F0952311F00C946E040C9439
:10082000740411240C94B9040E94960470F3959FEB
:10083000C1F3950F50E0551F629FF001729FBB27D7
:10084000F00DB11D639FAA27F00DB11DAA1F649F73
:100850006627B00DA11D661F829F2227B00DA11D26
:10086000621F739FB00DA11D621F839FA00D611DAC
:10087000221F749F3327A00D611D231F849F600DCD
:10088000211D822F762F6A2F11249F5750409AF0F6
:10089000F1F088234AF0EE0FFF1FBB1F661F771F82
:1008A000881F91505040A9F79E3F510580F00C944D
:1008B0006E040C94B9045F3FE4F3983ED4F386953C
:1008C00077956795B795F795E7959F5FC1F7FE2BED
:1008D000880F911D9695879597F9089597F99F67C9
:1008E00080E870E060E008959FEF80EC08950024B8
:1008F0000A941616170618060906089500240A9485
:1009000012161306140605060895092E0394000C0A
:1009100011F4882352F0BB0F40F4BF2B11F460FF99
:1009200004C06F5F7F4F8F4F9F4F089557FD9058C2
:10093000440F551F59F05F3F71F04795880F97FBA3
:10094000991F61F09F3F79F087950895121613065D
:100950001406551FF2CF4695F1DF08C0161617068C
:100960001806991FF1CF86957105610508940895C1
:10097000E894BB2766277727CB0197F90895EE0FF8
:10098000FF1F0590F491E02D0994CF93DF938230FF
:10099000910510F482E090E0E091E401F091E5012E
:1009A00020E030E0C0E0D0E0309711F1408151818B
:1009B00048175907C0F04817590761F4828193819D
:1009C000209719F09B838A832BC09093E501809335
:1009D000E40126C02115310519F04217530718F418
:1009E0009A01BE01DF01EF010280F381E02DDCCF2F
:1009F0002115310509F1281B390B2430310590F4FC
:100A000012968D919C9113976115710521F0FB0150
:100A10009383828304C09093E5018093E401FD01F8
:100A2000329644C0FD01E20FF31F8193919322504F
:100A300031092D933C933AC02091E2013091E301BA
:100A4000232B41F420910201309103013093E30103
:100A50002093E2012091000130910101211531051F
:100A600041F42DB73EB74091040150910501241B7C
:100A7000350BE091E201F091E301E217F307A0F4F6
:100A80002E1B3F0B2817390778F0AC014E5F5F4FE4
:100A90002417350748F04E0F5F1F5093E301409332
:100AA000E2018193919302C0E0E0F0E0CF01DF9199
:100AB000CF9108950F931F93CF93DF93009709F47D
:100AC0008CC0FC013297138212820091E4011091D4
:100AD000E5010115110581F420813181820F931FF9
:100AE0002091E2013091E3012817390779F5F0935D
:100AF000E301E093E20171C0D80140E050E0AE179D
:100B0000BF0750F412962D913C911397AD0121151A
:100B1000310509F1D901F3CF9D01DA013383228335
:100B200060817181860F971F8217930769F4EC012A
:100B300028813981260F371F2E5F3F4F3183208355
:100B40008A819B8193838283452B29F4F093E5016D
:100B5000E093E40142C01396FC93EE931297ED01EB
:100B6000499159919E01240F351FE217F30771F443
:100B700080819181840F951F029611969C938E938C
:100B80008281938113969C938E931297E0E0F0E01C
:100B9000D80112968D919C911397009719F0F80146
:100BA0008C01F6CF8D919C9198012E5F3F4F820F63
:100BB000931F2091E2013091E3012817390769F46E
:100BC000309729F41092E5011092E40102C01382DB
:100BD00012821093E3010093E201DF91CF911F9104
:100BE0000F91089581E090E0F8940C94CF08AEE066
:100BF000B0E0EDEFF5E00C94A6080D891E8986E0C3
:100C00008C831A8309838FEF9FE79E838D83AE01C8
:100C1000475E5F4F6F89788DCE0101960E941A065C
:100C20002F813885F801E20FF31F10822E96E4E041
:100C30000C94C208ACE0B0E0E0E2F6E00C94980856
:100C40007C016B018A01FC0117821682838181FF7E
:100C5000BDC1CE0101964C01F7019381F60193FDD0
:100C6000859193FF81916F01882309F4ABC185328F
:100C700039F493FD859193FF81916F01853229F4B9
:100C8000B70190E00E940208E7CF512C312C20E000
:100C90002032A0F48B3269F030F4803259F0833284
:100CA00069F420612CC08D3239F0803339F4216031
:100CB00026C02260246023C0286021C027FD27C0F1
:100CC00030ED380F3A3078F426FF06C0FAE05F9E28
:100CD000300D1124532E13C08AE0389E300D11249C
:100CE000332E20620CC08E3221F426FD6BC12064AD
:100CF00006C08C3611F4206802C0883641F4F60133
:100D000093FD859193FF81916F018111C1CF982F40
:100D10009F7D9554933028F40C5F1F4FFFE3F983B8
:100D20000DC0833631F0833771F0833509F05BC035
:100D300022C0F801808189830E5F1F4F44244394B1
:100D4000512C540115C03801F2E06F0E711CF801EE
:100D5000A080B18026FF03C0652D70E002C06FEF58
:100D60007FEFC5012C870E94F7072C0183012C859A
:100D70002F77222E17C03801F2E06F0E711CF80198
:100D8000A080B18026FF03C0652D70E002C06FEF28
:100D90007FEFC5012C870E94EC072C012C85206871
:100DA000222E830123FC1BC0832D90E04816590698
:100DB000B0F4B70180E290E00E9402083A94F4CFC8
:100DC000F50127FC859127FE81915F01B70190E035
:100DD0000E94020831103A94F1E04F1A5108411470
:100DE000510471F7E5C0843611F0893639F5F80100
:100DF00027FF07C060817181828193810C5F1F4F43
:100E000008C060817181072E000C880B990B0E5F62
:100E10001F4F2F76722E97FF09C090958095709581
:100E200061957F4F8F4F9F4F2068722E2AE030E0F0
:100E3000A4010E943A08A82EA81844C0853729F4B6
:100E40002F7EB22E2AE030E025C0F22FF97FBF2E90
:100E50008F36C1F018F4883579F0B4C0803719F0B6
:100E6000883721F0AFC02F2F2061B22EB4FE0DC005
:100E70008B2D8460B82E09C024FF0AC09F2F966076
:100E8000B92E06C028E030E005C020E130E002C005
:100E900020E132E0F801B7FE07C0608171818281F4
:100EA00093810C5F1F4F06C06081718180E090E0EC
:100EB0000E5F1F4FA4010E943A08A82EA818FB2D10
:100EC000FF777F2E76FE0BC0372D3E7FA51450F4A2
:100ED00074FE0AC072FC08C0372D3E7E05C0BA2CD5
:100EE000372D03C0BA2C01C0B52C34FF0DC0FE0154
:100EF000EA0DF11D8081803311F4397E09C032FF83
:100F000006C0B394B39404C0832F867809F0B394D9
:100F100033FD13C030FF06C05A2CB31418F4530C21
:100F20005B18B32CB31468F4B70180E290E03C87FF
:100F30000E940208B3943C85F5CFB31410F43B181B
:100F400001C0312C34FF12C0B70180E390E03C8730
:100F50000E9402083C8532FF17C031FD03C088E7BC
:100F600090E002C088E590E0B7010CC0832F86783E
:100F700059F031FF02C08BE201C080E237FD8DE203
:100F8000B70190E00E940208A51438F4B70180E38D
:100F900090E00E9402085A94F7CFAA94F401EA0D57
:100FA000F11D8081B70190E00E940208A110F5CFE9
:100FB000332009F451CEB70180E290E00E9402088C
:100FC0003A94F6CFF7018681978102C08FEF9FEFA9
:100FD0002C96E2E10C94B408FC010590615070403D
:100FE0000110D8F7809590958E0F9F1F0895FC01F2
:100FF0006150704001900110D8F7809590958E0F48
:101000009F1F08950F931F93CF93DF93FB012381BD
:1010100021FD03C08FEF9FEF28C022FF16C046813D
:101020005781248135814217530744F4A081B1814F
:101030009D012F5F3F4F318320838C932681378121
:101040002F5F3F4F3783268310C0EB01092F182FE6
:101050000084F185E02D0995892BE1F68E819F8131
:1010600001969F838E83812F902FDF91CF911F91C7
:101070000F910895FA01AA27283051F1203181F10A
:10108000E8946F936E7F6E5F7F4F8F4F9F4FAF4F90
:10109000B1E03ED0B4E03CD0670F781F891F9A1FA3
:1010A000A11D680F791F8A1F911DA11D6A0F711D57
:1010B000811D911DA11D20D009F468943F912AE063
:1010C000269F11243019305D3193DEF6CF0108954B
:1010D000462F4770405D4193B3E00FD0C9F7F6CF7C
:1010E000462F4F70405D4A3318F0495D31FD405244
:1010F000419302D0A9F7EACFB4E0A69597958795DA
:1011000077956795BA95C9F70097610571050895B8
:101110009B01AC010A2E0694579547953795279564
:10112000BA95C9F7620F731F841F951FA01D0895FC
:101130002F923F924F925F926F927F928F929F92E7
:10114000AF92BF92CF92DF92EF92FF920F931F93D5
:10115000CF93DF93CDB7DEB7CA1BDB0B0FB6F89486
:10116000DEBF0FBECDBF09942A88398848885F84C6
:101170006E847D848C849B84AA84B984C884DF8037
:10118000EE80FD800C811B81AA81B981CE0FD11D1B
:101190000FB6F894DEBF0FBECDBFED010895F894F1
:0211A000FFCF7F
:1011A2000000E6018000000000003C01A500D40020
:1011B20083010501E300F7005374617274696E677D
:1011C2002E2E2E000D0A0063616C69623A2025669C
:0C11D2002C20636F6E633A2025660A0033
:107800000C94343C0C94513C0C94513C0C94513CE1
:107810000C94513C0C94513C0C94513C0C94513CB4
:107820000C94513C0C94513C0C94513C0C94513CA4
:107830000C94513C0C94513C0C94513C0C94513C94
:107840000C94513C0C94513C0C94513C0C94513C84
:107850000C94513C0C94513C0C94513C0C94513C74
:107860000C94513C0C94513C11241FBECFEFD8E036
:10787000DEBFCDBF11E0A0E0B1E0ECE9FFE702C060
:1078800005900D92A230B107D9F712E0A2E0B1E065
:1078900001C01D92AD30B107E1F70E942D3D0C945F
:1078A000CC3F0C94003C982F959595959595959582
:1078B000905D8F708A307CF0282F295A8091C0000B
:1078C00085FFFCCF9093C6008091C00085FFFCCF60
:1078D0002093C6000895282F205DF0CF982F809127
:1078E000C00085FFFCCF9093C6000895EF92FF92F1
:1078F0000F931F93EE24FF2487018091C00087FD22
:1079000017C00894E11CF11C011D111D81E4E8164B
:1079100082E4F8068FE0080780E0180770F3E09132
:107920000401F091050109958091C00087FFE9CF1E
:107930008091C6001F910F91FF90EF9008950E94D3
:10794000763C982F8091C00085FFFCCF9093C600B5
:1079500091362CF490330CF09053892F089597555D
:10796000892F08951F930E949F3C182F0E949F3CCF
:107970001295107F810F1F9108951F93182F882350
:1079800021F00E94763C1150E1F71F9108951F935A
:10799000182F0E94763C803249F0809103018F5F5E
:1079A000809303018530C1F01F9108958091C0003C
:1079B00085FFFCCF84E18093C6008091C00085FFE5
:1079C000FCCF1093C6008091C00085FFFCCF80E102
:1079D0008093C6001F910895E0910401F091050184
:1079E00009951F9108950E94763C803241F0809164
:1079F00003018F5F80930301853081F008958091AA
:107A0000C00085FFFCCF84E18093C6008091C00058
:107A100085FFFCCF80E18093C6000895E0910401CA
:107A2000F09105010995089540E951E08823A1F0FE
:107A30002D9A28EE33E0FA013197F1F721503040CA
:107A4000D1F72D9828EE33E0FA013197F1F7215064
:107A50003040D1F7815061F708953F924F925F9285
:107A60006F927F928F929F92AF92BF92CF92DF924E
:107A7000EF92FF920F931F93CF93DF93000080E16B
:107A80008093C4001092C50088E18093C10086E015
:107A90008093C2005098589A259A81E00E94143D24
:107AA00024E1F22E9EE1E92E85E9D82E0FE0C02ECA
:107AB00010E1B12EAA24A394B1E49B2EA6E58A2E50
:107AC000F2E57F2EE0E26E2E79E4572E63E5462E36
:107AD00050E5352E0E94763C8033B1F18133B9F107
:107AE000803409F46FC0813409F476C0823409F41B
:107AF00085C0853409F488C0803531F1823521F1A3
:107B0000813511F1853509F485C0863509F48DC0BC
:107B1000843609F496C0843709F403C1853709F423
:107B200072C1863709F466C0809103018F5F80932C
:107B30000301853079F6E0910401F0910501099582
:107B40000E94763C803351F60E94F33CC3CF0E94E2
:107B5000763C803249F78091C00085FFFCCFF092DF
:107B6000C6008091C00085FFFCCF9092C600809136
:107B7000C00085FFFCCF8092C6008091C00085FFC9
:107B8000FCCF7092C6008091C00085FFFCCF609250
:107B9000C6008091C00085FFFCCF5092C600809146
:107BA000C00085FFFCCF4092C6008091C00085FFD9
:107BB000FCCF3092C6008091C00085FFFCCFB09210
:107BC000C60088CF0E94763C863808F4BDCF0E945C
:107BD000763C0E94F33C7ECF0E94763C803809F4CC
:107BE0009CC0813809F40BC1823809F43CC1883942
:107BF00009F48FC080E00E94C73C6CCF84E10E94F2
:107C0000BD3C0E94F33C66CF85E00E94BD3C0E94D3
:107C1000F33C60CF0E94763C809306010E94763C44
:107C2000809307010E94F33C55CF0E94763C80333D
:107C300009F41DC183E00E94BD3C80E00E94C73C66
:107C400049CF0E94763C809309020E94763C809343
:107C5000080280910C028E7F80930C020E94763C79
:107C6000853409F415C18091080290910902892B8D
:107C700089F000E010E00E94763CF801E85FFE4FDA
:107C800080830F5F1F4F80910802909109020817AF
:107C9000190788F30E94763C803209F045CF809125
:107CA0000C0280FF01C16091060170910701660F0F
:107CB000771F7093070160930601A0910802B091AD
:107CC00009021097C9F0E8E0F1E09B01AD014E0F09
:107CD0005F1FF999FECF32BD21BD819180BDFA9A17
:107CE000F99A2F5F3F4FE417F50799F76A0F7B1F4B
:107CF00070930701609306018091C00085FFFCCF5F
:107D0000F092C6008091C00085FFFCCFB092C60003
:107D1000E1CE83E00E94C73CDDCE82E00E94C73CFA
:107D2000D9CE0E94763C809309020E94763C8093D3
:107D300008028091060190910701880F991F909386
:107D40000701809306010E94763C853409F4A6C0A1
:107D500080910C028E7F80930C020E94763C8032D0
:107D600009F0B8CE8091C00085FFFCCFF092C6002C
:107D7000609108027091090261157105B9F140E046
:107D800050E080910C02A82FA170B82FB27011C0E2
:107D9000BB2309F45CC0E0910601F0910701319624
:107DA000F0930701E09306014F5F5F4F46175707B7
:107DB000E8F4AA2369F3F999FECF209106013091E6
:107DC000070132BD21BDF89A90B58091C00085FFB2
:107DD000FCCF9093C6002F5F3F4F30930701209355
:107DE00006014F5F5F4F4617570718F38091C00099
:107DF00085FDE5CE8091C00085FFF8CFE0CE81E023
:107E00000E94C73C67CE0E94763C803209F08CCE3F
:107E10008091C00085FFFCCFF092C6008091C00029
:107E200085FFFCCFE092C6008091C00085FFFCCFAB
:107E3000D092C6008091C00085FFFCCFC092C600E2
:107E40008091C00085FFFCCFB092C60043CEE09188
:107E50000601F091070194918091C00085FFFCCF4D
:107E60009093C6009CCF80E10E94C73C33CE0E9415
:107E7000763C0E94763C182F0E94763C112309F430
:107E800083C0113009F484C08FE00E94C73C22CE29
:107E900080910C02816080930C02E5CE80910C02EF
:107EA000816080930C0259CF809107018823880F4D
:107EB000880B8A2180930B02809106019091070123
:107EC000880F991F90930701809306018091080203
:107ED00080FF09C080910802909109020196909359
:107EE000090280930802F894F999FECF1127E091D6
:107EF0000601F0910701C8E0D1E08091080290915D
:107F00000902103091F40091570001700130D9F34B
:107F100003E000935700E89500915700017001308D
:107F2000D9F301E100935700E89509901990009169
:107F3000570001700130D9F301E000935700E89534
:107F40001395103498F011270091570001700130FB
:107F5000D9F305E000935700E895009157000170B0
:107F60000130D9F301E100935700E895329602976A
:107F700009F0C7CF103011F00296E5CF112480919F
:107F8000C00085FFB9CEBCCE8EE10E94C73CA2CD19
:0C7F900085E90E94C73C9ECDF894FFCF0D
:027F9C00800063
:040000030000780081
:00000001FF